:020000040000FA
:06000000020107022FFBC4
:03002B000234811B
:030033000234593B
:030043000234097B
:0300530002306E0A
:03006B000234312B
:030073000234A6AE
:10008300022E67E5C754F84401F5C7790122000041
:100093000080FB120086B900030200F1E4792178A5
:1000A30008B800028004F709D8FCE479297802B87B
:1000B30000028004F709D8FCE490028178A6791144
:1000C3008002F0A3D8FCD9FA7A267B139001377803
:1000D300E279068015E493A3AD82AE838A828B8393
:1000E300F0A3AA82AB838D828E83D8E9D9E7758288
:1000F300E17583D2740412011975829175830074BA
:100103000012011975D00075813F751881751902A8
:10011300759F00020096C09FF59FE473D09F22D085
:1001230083D082C09FE493C0E0740193C0E0740263
:1001330093F59F22FF0000B4000028002800283018
:1001430075A000A000A000A00000080008E001F0D6
:10015300001000100010001000100010005000509C
:1001630000500010001000D0070000000000000F36
:100173000001000500307507001000010081FF0039
:10018300000000FF160934091C09FF0202020802DD
:100193005000A0000000E803022F82010000028249
:1001A3000233820100007D13023982010000B30291
:1001B3000233820100007E13023B82010000C90268
:1001C3000233820100007F13023D82010000CB0253
:1001D3000233820100008013023F82080000CC0238
:1001E3000233820100008113024182010000821365
:1001F300FF0100FF20022F82010000FF81023382F2
:10020300010000E61302438200000000000237826F
:1002130003000019030A0F0A0F0A0F0A0F0A0F0A35
:100223000F0A0F0A0F0A0F0A0F0A0F0A0F0A0F8C81
:1002330011A4118611280645BA073F2B0A38830DEE
:100243003164112B98172466201DF82A17823C105D
:100253007C5609DE7603A6AEFC18F6F6756E707250
:100263006F6772616D6D656400000000000000003F
:100273003C00FFFF00000F09445053204578706590
:1002830072656D656E74051296009001020A000294
:1002930001060502F0FFA0F0D0120000F4120C13C7
:1002A300E812CA12FFFFFFFF5101DC01000000004A
:1002B300000000000000000000000000FF12436F78
:1002C3006E6E2E20506172616D730008436F6E6E07
:1002D3002E20506172616D7320526571000844696C
:1002E30073636F6E6E6563742052657100022F82B3
:1002F3000100000882023382010000AF14024D8224
:10030300010000D00D023782030000D60D023582B2
:10031300010000B014023382010000BD14024B82BD
:10032300020000DC0D023582010000BE140233829C
:10033300010000CF14024982020000E40D0235825D
:10034300010000D014020202020202020202010DA5
:100353000000001001022F82010000FC81023382A1
:100363000100003715022982010000E50D023382E6
:100373000100003815022782010000138102338235
:100383000100003915022382010000ED0D023382C2
:100393000100003B15021D82010000308002338200
:1003A3000100003C15022182010000828102338298
:1003B3000100003A15023182010000878102338275
:1003C3000100003D15024782010000528102338281
:1003D3000100003E15025182010000ED80023382CC
:1003E3000100003F1502538201000040151A4470BA
:1003F30074203100001A447074203200001A4470D3
:1004030074203300001A447074203400001A4470BE
:1004130074203500001A447074203600001A4470AA
:100423007420370000022F820100000E8202338203
:10043300010000DF150213820300000F0E02378252
:10044300030000230E023582010000E0150233820F
:10045300010000E715021582030000290E0237820E
:100463000300003D0E023582010000E815023382CD
:10047300010000EF15021782030000430E023782CA
:10048300030000570E023582010000F0150233828B
:10049300010000F7150219820300005D0E02378286
:1004A300030000710E023582010000F81502338249
:1004B300010000FF15021B82030000770E02378242
:1004C3000300008B0E023582010000001602338206
:1004D3000100000716027182030000910E023782A9
:1004E300030000A50E0235820100000816023382C4
:1004F3000100000F16021F82030000AB0E023782B9
:10050300030000BF0E023582010000101601E8034C
:10051300053F100A01FF00013075030201060000C8
:1005230000000000000000000000000000000000C8
:100533000000000000000000000001FFFF06008033
:100543000CE8031A53656E736F72732E2044617443
:1005530061000A53656E736F72732E20436F6E666C
:100563002E000A53656E736F72732E2043616C699C
:1005730062722E000A0A53656E736F72732E2050D7
:100583006572696F6400022F820100000B820233DF
:100593008201000035170257820100001B12023747
:1005A300820300002F120235820100003617023346
:1005B30082010000441702598203000035120235FC
:1005C3008201000045170233820100006617025DB5
:1005D30082030000671702358201000068170233A7
:1005E300820100005417025B8203000036120237B7
:1005F30082030000461202358201000055170A43A8
:100603006861726163746572697374696320310030
:1006130002436861722E203200001A5472616E73B5
:10062300706F727400001A4E4557000000000000FE
:10063300000000000000000000000054696D6572B6
:100643007320436F6E666967000008436861722E0A
:10065300203500001A30303A30303A3030005469D7
:100663006D650000022F82010000058202338201C2
:100673000000F017026582030000B91202358201FF
:100683000000F117023382010000021802678201A1
:100693000000BA12023582010000031802338201FE
:1006A30000000C18026982030000BB1202358203AA
:1006B30000000D180233820100001818026B820338
:1006C30000001918023782030000D5120235820197
:1006D30000002D180233820100003C18026D8202D3
:1006E3000000DB120235820100003D180233820153
:1006F30000004618026F8203000047180237820386
:100703000000E012023582010000501800000000D2
:10071300000000000112012218BF041201222FBFA2
:100723000412012260BF041201229BBF04120122A2
:10073300C5BF04120122EFBF0412012206C0041236
:1007430001221DC00412012234C0041201225DC023
:100753000412012270C00412012286C00412012275
:1007630099C004120122C0C004120122B7AD0312C2
:100773000122BBAE03120122F3AE0312012216AF14
:100783000312012221AF0312012244AF03120122FB
:1007930053B00312012228B103120122A3B10312A1
:1007A30001222BB20312012266B2031201229DB26F
:1007B300031201222BB30312012204B403120122F8
:1007C30064B4031201226FB403120122EEB40312C4
:1007D3000122F1B403120122F4B40312012283B5FE
:1007E3000312012286B503120122B6B503120122B8
:1007F300E0B503120122CEB60312012280B7031221
:100803000122468F041201226E8F041201229C8F53
:1008130004120122D38F0412012231900412012207
:100823007C9004120122C790041201220791041242
:1008330001224D91041201227B910412012238926C
:10084300041201224292041201224F920412012245
:100853008292041201224E93041201225A9304122B
:1008630001227293041201227C9304120122DFCD30
:1008730004120122EDCD0412012205CE041201223D
:100883001DCE0412012213B102120122BFB10212C2
:1008930001223AB2021201225BB30212012297B380
:1008A3000212012240B40212012227B502120122D0
:1008B3008BB602120122E2B60212012263B70212C0
:1008C300012253B802120122A0B80212012226B952
:1008D3000212012258B9021201226CBB0212012238
:1008E300AEBB02120122CCBB021201224FBC021288
:1008F300012223BD02120122EBBD02120122EBE60B
:1009030003120122BEE70312012267E80312012248
:10091300BAE8031201226AE903120122F6E903127B
:100923000122E2EA0312012211EB0312012224EC59
:10093300031201226CEC0312012241ED0312012286
:100943007DED0312012299ED031201227BFF0312B5
:1009530001229DA004120122B3A004120122D9A0F6
:1009630004120122F5A104120122FFA104120122A3
:1009730034A3041201222CA4041201224985041277
:100983000122798604120122AC8604120122F68622
:1009930004120122BD880412012224A102120122A1
:1009A3008EA102120122EDA202120122FDA2021265
:1009B30001222AA30212012281A3021201222AA4E4
:1009C3000212012231A502120122FBA50212012209
:1009D3005BA7021201229EA70212012243A8021260
:1009E300012290A802120122B6A802120122C4AA6F
:1009F30002120122C9AA02120122CEAC0212012262
:100A03001BAD021201228EAD02120122C1AD0212F0
:100A1300012263AE021201220CAF0212012244AF83
:100A23000212012247AF021201228FAF02120122EA
:100A3300CFAF0212012226B002120122ADB7041277
:100A43000122C5B7041201220DB80412012223B8F2
:100A5300041201226AB8041201227EB9041201228F
:100A63000BBA0412012256BA041201227482011233
:100A73000122808201120122BB8201120122008322
:100A830001120122C08301120122468401120122B4
:100A9300AB8401120122D7840112012210850112B5
:100AA30001224E8701120122328901120122188B81
:100AB300011201225B8C01120122A98E0112012273
:100AC300BB8F01120122069101120122169201121B
:100AD30001223392011201226E920112012290929D
:100AE30001120122F39201120122B4970112012291
:100AF3004998011201229A9801120122C198011208
:100B030001221399011201223199011201228B99B9
:100B130001120122749A01120122EA9B011201229D
:100B23006E9C011201220080041201220A80041229
:100B330001224D8004120122688004120122F880F0
:100B4300041201222081041201225D810412012278
:100B5300948104120122BD81041201223282041203
:100B630001224782041201225C82041201228D8237
:100B730004120122A18204120122C682041201225C
:100B83000083041201222C83041201225A830412CB
:100B93000122A58304120122048404120122838406
:100BA30004120122CC8404120122F68404120122CD
:100BB300218504120122F6CA0412012259E9021204
:100BC300012287E902120122D5EA02120122B5EBC2
:100BD30002120122D4EB0212012251EC0212012271
:100BE30094EC02120122EAED02120122ABEE021290
:100BF300012232F102120122D3F102120122C9F2BF
:100C030002120122C6F30212012220F5021201226E
:100C1300ABF50212012216C7041201227FC7041288
:100C23000122D3C704120122FAC7041201222BC8DE
:100C3300041201220394041201227094041201226B
:100C4300B79404120122CF9504120122CB96041209
:100C53000122AE9704120122F1B70312012233B825
:100C63000312012205B903120122DEB90312012284
:100C7300D8BA03120122BABB0312012223BC031206
:100C83000122D9BC031201224DBD03120122B9BDB9
:100C930003120122E2BD031201225CBE03120122F0
:100CA300F5BE031201225ABF031201226FBF0312C2
:100CB3000122B5BF03120122CEBF0312012233C0AA
:100CC3000312012236C003120122B4B4041201221A
:100CD300DCB4041201221AB504120122D8B504129D
:100CE30001223FB6041201225BB60412012283B62D
:100CF30004120122B3B604120122C2B60412012265
:100D03003FB70412012265B70412012200800212C8
:100D13000122DE81021201221084021201224C847C
:100D23000212012279840212012263850212012236
:100D3300AE8502120122F985021201220B860212EC
:100D430001224B8602120122808602120122CE86E4
:100D530002120122FD8602120122208702120122C1
:100D63006D8702120122F287021201220C8A0212FB
:100D730001224B8C021201228C8C021201222E8E34
:100D8300021201226F8E02120122E28E021201224E
:100D93002E8F02120122DC8F02120122B79002125F
:100DA300012244DC0212012242DD02120122DBE3B2
:100DB30002120122FCE502120122C7E702120122FC
:100DC3002FE902120122D59C01120122849D0112F6
:100DD3000122CA9D01120122009F011201225D9F7F
:100DE300011201228B9F0112012221A10112012272
:100DF3009BA101120122B6A10112012231A201120B
:100E030001228BA301120122EBA401120122F1A5FD
:100E13000112012252A7011201226BA70112012222
:100E2300C9A701120122B7A801120122EAA80112DF
:100E330001225AA901120122D4A9011201221EAAD8
:100E430001120122E8AA01120122BDAB0112012203
:100E53009CAC0112012227AD0112012295AD0112B2
:100E6300012209AE0112012234AE01120122F3AEB6
:100E73000112012258B00112012275B001120122A0
:100E830094B00112012285B101120122AAB101120B
:100E93000122D4B1011201224FB201120122A9B2DF
:100EA3000112012212B401120122C0B40112012263
:100EB30001B50112012270CE02120122BECE02122E
:100EC3000122CACE02120122A8CF02120122D9CFD7
:100ED300021201220AD0021201228AD00212012236
:100EE300C2D00212012214D10212012251D10212E4
:100EF30001226ED30212012294D5021201227FD75E
:100F03000212012269D902120122213500120122A3
:100F130040CA0112012270CA0112012249D10112F1
:100F23000122CED201120122CBD801120122B3D960
:100F330001120122F0D90112012213DA0112012256
:100F430044DA011201224DDA0112012257DA0112A9
:100F5300012245DB011201223BDC0112012231B5E2
:100F63000112012230B90112012236B90112012204
:100F730071C0011201228AC50112012266AE041258
:100F8300012260AF04120122D4AF0412012212B075
:100F93000412012286B004120122FFB004120122BE
:100FA30008B10412012214B10412012229B104125E
:100FB300012267B1041201227DB10412012270984B
:100FC300041201227D98041201229798041201222F
:100FD300D698041201221499041201227999041259
:100FE30001228E9904120122999904120122A699D1
:100FF30004120122BD9904120122CB990412012289
:10100300D69904120122E29904120122F1990412E1
:101013000122FC99041201221F9A04120122C69A8A
:1010230004120122D69A04120122F09A0412012218
:101033000D9B04120122299B041201224E9B0412D0
:101043000122599B041201226E9B04120122829BEE
:1010530004120122E39B04120122E99B04120122E0
:10106300EF9B04120122F59B041201220D9C041232
:101073000122409C04120122C6F1011201224AF20C
:1010830001120122F9F20112012258F40112012284
:1010930079F60112012265F7011201229AF7011272
:1010A3000122BCF7011201226BF80112012263FA3B
:1010B300011201228CFA011201221EFB01120122EC
:1010C30050FB011201225DFB01120122B4FB01124C
:1010D3000122DAFB0112012247FE011201224AFF1B
:1010E30001120122A2FF0112012204C002120122F5
:1010F3000EC102120122F5C102120122FFC1021226
:10110300012221C2021201222DC202120122C6C3F0
:1011130002120122F5C30212012211C50212012299
:101123006AC502120122D0C602120122AFC70212FF
:1011330001220BC80212012278C802120122B3C88D
:1011430002120122F2C802120122ABCB02120122C7
:10115300C5CB0212012251CC021201225FCC021232
:101163000122B8CC02120122C6CC0212012239CDCF
:10117300021201229DCD02120122E7CD02120122A9
:101183002798031201224998031201226F9A03122E
:101193000122849D031201229C9E031201224F9F70
:1011A3000312012231A00312012288C20412012278
:1011B300ADC2041201221FC30412012271DF031204
:1011C30001227ADF0312012283DF031201225AE094
:1011D300031201220BE20312012241E20312012254
:1011E3007BE203120122B1E203120122EBE20312BA
:1011F30001221FE3031201224BE30312012294E3B2
:1012030003120122CEE30312012217E40312012287
:101213006FE403120122A4E403120122FFE4031288
:10122300012239E5031201228AE503120122C0E5F6
:1012330003120122FAE50312012228E60312012216
:101243004BE60312012285CF04120122B1CF04120F
:1012530001220CD00412012216D00412012226D03E
:1012630004120122E190021201228592021201224C
:101273000393021201221F94021201227E9402128E
:1012830001220D95021201227F9602120122169A63
:1012930002120122B19C02120122D29D02120122EA
:1012A300699F0212012214A00212012224A0021239
:1012B3000122ACA0021201225852001201221B5536
:1012C300001201222756001201222A56001201227F
:1012D300B65600120122CF5700120122E357001223
:1012E30001222D58001201222A5900120122675EA1
:1012F30000120122A55E00120122625F0012012288
:101303002760001201226E6000120122F2600012B7
:101313000122F66000120122326100120122E26111
:1013230000120122BB630012012253640012012246
:10133300926400120122446500120122F665001234
:1013430001220C66001201222266001201225F664E
:1013530000120122B16600120122DA660012012294
:10136300956700120122CE6700120122076800125E
:101373000122406800120122F06800120122216953
:101383000012012231690012012241690012012277
:10139300516900120122A46900120122DD690012C1
:1013A3000122166A001201224F6A00120122886A82
:1013B30000120122A16A00120122E86A001201222E
:1013C300106B001201225D6B001201227E6B001272
:1013D3000122876C00120122FB6C001201222DC432
:1013E30004120122ACC4041201222CF602120122BF
:1013F30059F60212012267F60212012220F90212A3
:10140300012243F902120122E2FA02120122C1FC73
:101413000212012218FD02120122B3FD021201225F
:10142300D2FD02120122A9FE02120122DDFE0212E6
:101433000122CD8C03120122E28C031201223E8D84
:1014430003120122A98D03120122F18D031201223D
:101453005B8E031201228A8E03120122679203120A
:101463000122759203120122D792031201221593CE
:1014730003120122309303120122CB9303120122A0
:10148300709403120122F394031201222C95031288
:101493000122B795031201220E96031201226D96C3
:1014A300031201229396031201229C960312012236
:1014B300F09703120122F1D703120122CFD80312AE
:1014C30001222BD90312012245D90312012256D935
:1014D3000312012233DD0312012253DD0312012221
:1014E30030D0041201221BAB0412012274AB04128C
:1014F3000122BAAB04120122FEAD0412012202D270
:10150300041201221DD2041201222DD2041201223F
:101513005AC0031201227AC003120122F0C103123E
:1015230001223EC2031201225EC203120122C6C27D
:101533000312012248C3031201228EC303120122A4
:101543001AC40312012263C8031201220FCC04122E
:10155300012239CC04120122646D00120122CE7AD9
:1015630000120122EF7B001201220E7C00120122E5
:10157300B67C00120122B6CE041201226ED00312F1
:10158300012293D003120122F1D00312012240D28F
:10159300031201220080031201224580031201225B
:1015A300628003120122518303120122A2840312D7
:1015B30001224E8703120122908C03120122B5C926
:1015C300041201221CCA04120122D9D004120122DE
:1015D3002C3500120122453800120122F73900127E
:1015E30001229B3A001201223E3B00120122F53BED
:1015F30000120122243C00120122E24000120122C7
:10160300794100120122B542001201221D4300124A
:101613000122D14300120122874600120122C14652
:10162300001201222B4700120122894700120122D6
:10163300E7470012012244480012012233490012F5
:101643000122794900120122BE4900120122E14917
:1016530000120122244B00120122384B00120122F6
:10166300414C00120122804C00120122AC4C0012AA
:101673000122FB4C001201221C4D001201225A4D83
:1016830000120122A14F00120122E24F0012012297
:10169300805000120122EB5000120122245200124A
:1016A3000122FCFE021201220DFF02120122E5FFBC
:1016B30002120122E87F001201220CD4041201223B
:1016C30004CD0412012214CD0412012231CD0412DF
:1016D3000122D1CD04120122ADB10412012257B26D
:1016E3000412012299B4041201225F7E0012012226
:1016F300B47E00120122E07E00120122607F0012FC
:10170300012271C804120122A1C804120122FDC8DA
:101713000412012278C904120122708A04120122E0
:10172300928A04120122278B04120122258C0412AF
:101733000122E68E041201220EEE031201220BF0A7
:101743000312012291F00312012298F103120122E4
:101753005CF203120122DAF203120122BDF3031237
:101763000122C0F303120122CEF303120122EDF38F
:101773000312012218F40312012243F4031201227B
:1017830051F4031201226BF403120122D2C004129A
:101793000122E5C00412012214C104120122BD9CDE
:1017A300041201221A9D04120122779E04120122BF
:1017B300739F0412012279D104120122F2D104127F
:1017C300012238BD041201229FBD041201224ABE28
:1017D30004120122C0BE04120122C6A70412012270
:1017E300F9A704120122FFA80412012254AA041229
:1017F300012255A30312012231A40312012278A46A
:1018030003120122B5A40312012223A5031201220C
:101813007DA503120122EDA503120122C5A6031221
:101823000122B8A7031201223CA803120122DFA957
:10183300031201226AAA03120122FAAA0312012245
:1018430093AB03120122AAAB03120122E5AC0312EC
:1018530001223BAD0312012253DE01120122F7E202
:1018630001120122E8E50112012211E6011201220F
:1018730028E60112012251E60112012203E70112B7
:101883000122E1E80112012233EA011201227AEF77
:1018930001120122B3EF01120122F7EF011201221B
:1018A30003F10112012236A40412012224A5041219
:1018B300012295A504120122BDA5041201224FA7FE
:1018C300041201220FFA031201225FFA031201220A
:1018D30088FA03120122A2FB03120122EBFC03127A
:1018E30001223EFF03120122B5C504120122CDC518
:1018F3000412012246C60412012249C6041201221F
:10190300EDC60412012274C803120122B9C80312DE
:101913000122D6C80312012290CA031201227DCBF1
:101923000312012259CD031201223ED003120122D8
:1019330084D20412012280BA04120122B7BC041219
:10194300012279F403120122BDF40312012266F588
:10195300031201229FF5031201220CF60312012246
:1019630022F60312012260F60312012208F7031282
:1019730001222FF70312012256F7031201227DF7EA
:1019830003120122A4F703120122E5F70312012235
:10199300FCF7031201220CF80312012295F903123A
:1019A3000122BEF903120122D2F903120122E4F942
:1019B30003120122F5F9031201223CD3041201227E
:1019C300B8D30412012282D304120122E4D30412F5
:1019D30001222BD404E066701008A3E066700A08A5
:1019E300A3E066700408A3E06622C3E7960809E74C
:1019F300960809E7960809E79622C3E09608A3E04C
:101A03009608A3E09608A3E09622C008C3E096F5E3
:101A13000808A3E096420808A3E096420808A3E05A
:101A23009645087001D3D00822080808E630E7116C
:101A33001222C4121A44080808C64480C61818188B
:101A430022181818E9799EC608CAC608CBC608CC5E
:101A5300C6C370207996CACBCC7019798ECBCC7063
:101A6300137986CC700EF9802ACA33CACB33CBCC18
:101A730033CC331930E7F2CCCBCA3350147004EAB9
:101A830030E00DE4CA3ACACB3BCBCC3CCC50020984
:101A9300C3E913C6CC182313C6CB18C6CA18C6F994
:101AA300228A088B098C0A8D0B7808121AEE20F013
:101AB3001430E72B74FFFCFBFA747F8022E4FCFBF9
:101AC300FA7480801AB48008BC00F2BB00EF800F68
:101AD30050EBF9E4C39AFAE49BFBE49CFCE499C65B
:101AE300CC18C6CB18C6CA18C6F922E4C9C608CA98
:101AF300C608CBC6D3330308CCC63392F0C3947F56
:101B0300402E94184019C9B90704CACBCC225025DA
:101B1300C309CA33CACB33CBCC33CC33D9F422F485
:101B2300600DC9CCC313CB13CBCA13CAD9F6CC22CD
:101B3300E4FCFBFA2214FCFBFA22E62618461846BC
:101B4300184622E72719471947194722181818E694
:101B53000846087009E626087005E633F4220822D1
:101B6300191919E70947097009E727097005E733C8
:101B7300F4220922E6084608C3134608336002E646
:101B830033F422E7094709C3134709336002E733F4
:101B9300F422121B77601C121B866017121B3D7008
:101BA30007121B467001D322C0D0121B467006D009
:101BB300D0B322C32233D0D0501430E0F6C3E7961B
:101BC3000809E7960809E7960809E796B32220E093
:101BD300D5E6970809E6970809E6970809E697B353
:101BE30022121B77601B121B866016121B3D7007A7
:101BF300121B46600CB322C0D0121B467005D0D016
:101C030022C32233D0D0501330E0EBC3E796080948
:101C1300E7960809E7960809E7962220E0E4E697A5
:101C23000809E6970809E6970809E6972200121BB8
:101C330077604F121B866012E7548066F6121B4FC3
:101C43007011121B46703B090909F4F618F618F6D1
:101C530018F622121B637015121B3D08080860EA70
:101C6300E6447FF618768018E4F618F622121B3D38
:101C73006016121B467012E4F608F608F608E654DE
:101C830080F609090918181822EAC0E0EBC0E0EC55
:101C9300C0E0EDC0E0E687F0A4FBACF008E687F017
:101CA300A42CFCE435F0FA1809E687F0A42C4B6069
:101CB300027401CA35F0FCE433FB09E687F0D2F77E
:101CC300A42CCB35F0FC1908E687F0A42BCC35F017
:101CD300FBE433FD0819E687F0D2E7A42C4ACB35A1
:101CE300F0CD3400FC09E687F0D2E7A42DCC35F023
:101CF300FDE433FA0918E687F0D2F7A42CCD35F0CA
:101D0300CA3400FC08E687F0D2E7D2F7A42ACC3520
:101D1300F07A7E20E70B0ACB33CBCD33CDCC33CC5B
:101D230033CB3350147004ED30E00ED2F1E4CD3DEB
:101D3300CDCC3CCC3B5005DA05C2F1EB547FC63326
:101D430008E63392F0FBE73309E733C39A502D2BB0
:101D530070190C0D4C4D70151806E608C333700D41
:101D630020F10AA2F013F6E418800B4024E4F630C5
:101D7300F002768018F618F618F68024D33B145038
:101D83001074FFA2F013F6187680E418F618F680A4
:101D93000FA2F013F618E63303F618ECF618EDF677
:101DA300D0E0FDD0E0FCD0E0FBD0E0FA22121B86AD
:101DB3006046121B77603DE9687008F618F618F65E
:101DC30018F622748067F7121DE409090974806705
:101DD300F722121B77601D121B86700519191980D3
:101DE3001A121B4F701F121B63C37003E66733196C
:101DF300191940071818182208080874FFF618F66E
:101E030018F618F622121B636017121B46702192F4
:101E1300F0121B3D7019501720F014080808090927
:101E230009E7F61819E7F61819E7F61819E7F6227D
:101E3300121B3D60E6E869701F0808E62480F60877
:101E4300E436F618547FB47F0CE654806007F6E45A
:101E530018F618F622181822E9C6CC08C6CD08C60B
:101E6300CE08C6CFC0E0E8C0E0EAC0E0EBC0E009BE
:101E7300E9F809E7FA09E7FBE6F918E6F8C3EC988D
:101E8300ED99EE9AEBC2E7F5F0EFC2E795F0500E4D
:101E9300600CEBCFFBEACEFAE9CDF9E8CCF8EAA285
:101EA300E7D2E7FAEB33FB13F5F0EEA2E7D2E7FE56
:101EB300EF33FFC5F013A2E730E601B313C5F0C358
:101EC300C0E0C0F07F00C39BFB605E9418600F40CE
:101ED3001D14601AD0E023F9D0E0F8021FB68AF08F
:101EE300E9486003D2F0E4AFF0FAF9F8803BEB3055
:101EF300E40D89F0EA6003D2F0E4AFF0F9CAF8EB3D
:101F030030E30D88F0EF6002D2F0AFF0E4CAC9F815
:101F1300EB54076014FBC3EA13FAE913F9E813F867
:101F2300EF135002D2E0FFDBEDD0E0C0E030E73941
:101F3300C3E49FFFF5F0EC98FC42F0ED99FD42F00D
:101F4300EE9AFE42F0D0E0F9D0E0F8E5F0607AE9ED
:101F530023F9EE20E742D8028067C3EF33FFEC3367
:101F6300FCED33FDEE33FE80EAEC28FCED39FDEEAB
:101F73003AFED0E023F9D0E0F84002801BC3EE1311
:101F8300FEED13FDEC13FCEF135002D2E0FF08B893
:101F930000067F7F74FF802EEF3350178CF020F004
:101FA3000260100CBC000C0DBD00080EBE0004083E
:101FB300E860DFE933E813FFEE2313FE4F4D4C8057
:101FC30008E95480FFE4FEFDFCEE33EF33F47004C4
:101FD300FCFD7E80D0E0FBD0E0FAD0E0F8D0E0CF8B
:101FE300C618CEC618CDC618CCC6F922121B7770F8
:101FF3000418181822121B86700D74FFF61819F6B0
:102003001819F61819F622E7548066F6121B3D706C
:102013000F121B4670F014F608F608F608F680D186
:10202300121B46700CF608F608768008E6447F809B
:10203300EC121B66700C121B5260BFE65480F6E470
:1020430080BB121B52700519191980A5E869700C21
:10205300763F18768018F618F6E8F922E6CDC0E048
:1020630018ECC0E0E633CD33CDD313F6E719FCE724
:10207300191933CC33C3947F400ECD9D502408E609
:102083005480F6E418F6800FF4043D14501408E667
:10209300447FF6187680E418F618F6D0E0FCD0E01A
:1020A300FD22CCD313CCFD18E4C6CBC0E018E4C6A4
:1020B300CAC0E00808ED08C633E613F618E433C6D1
:1020C30075F003C3CA97CA09CB97CB199C40047D0B
:1020D30008802EBD000302219816B6FF05060608E8
:1020E3001618C3CA33CACB33CB33CA27CA09CB3773
:1020F300CB193CC37D08803E187D0820E75CC633BE
:10210300C6CA33CACB33CB33DDF1D5F0EB30E77B33
:10211300CA97CA09CB974ACB199C406F4B7025E6E7
:1021230020E0218066187D08C3CA97CA09CB97CBE4
:10213300199CD3C633C6CA33CACB33CB3350C9DD9C
:10214300E7D5F0E1D3E4C636C608C636C608C636B8
:10215300C608C636C61818188031C3CA97CA09CB31
:1021630097CB199CB34097C633C6CA33CACB33CB7C
:1021730033DD34D5F02EC6A2E0C640C8CA27CA094B
:10218300CB37194A70BECB3CB480B90808E6330894
:10219300E633601F181818D0E0FAD0E0FBD0E0FC5B
:1021A300D0E0FD22187D08CA27CA09CB37CB193CDA
:1021B300D3808013F618E4B67F11F618B6FF0EF637
:1021C30018C60470D20808768080CAF618F618F686
:1021D30080C5080808EAC0E0EBC0E086F0E7A4FA8F
:1021E300180986F0E7A42AFA180986F0E7A42AFA60
:1021F300180986F0E7A42AFA1986F0E7A4FBE5F0AC
:102203002AFA190886F0E7A42BFBE5F03AFA190835
:1022130086F0E7A42BFBE5F03AFA18180986F0E7F5
:10222300A4C5F02BFBE43AFA1908E7C5F0C6A426C7
:10223300F6E5F03BFBE43AFA1886F0E7A4F6E5F09E
:102243000826F6E43B08F6E43A08F6D0E0FBD0E0D3
:10225300FA22E4CFC0E0E4CEC0E0E4CDC0E0E4CCB9
:10226300C0E075F020E626F608E633F608E633F616
:1022730008E633F6181818EC33FCED33FDEE33FEA5
:10228300EF33FFC3EC9709ED9709EE9709EF971921
:102293001919400FFFEC97FC09ED97FD09EE97FE26
:1022A300191906D5F0BFECF709EDF709EEF709EFB9
:1022B300F7191919D0E0FCD0E0FDD0E0FED0E0FF23
:1022C30022181818E4C396F608E496F608E496F67E
:1022D30008E496F6226016080808C6C313C618C693
:1022E30013C618C613C618C613C6D5E0EA2270096A
:1022F300080808226016181818C6C333C608C63360
:10230300C608C633C608C633C6D5E0EA22E627F6B2
:102313000809E637F60809E637F60809E637F6222C
:10232300E026F608A3E036F608A3E036F608A3E0B5
:1023330036F622E026F008A3E036F008A3E036F0F4
:1023430008A3E036F022C3E697F60809E697F608F5
:1023530009E697F60809E697F622C3E0C696F6085B
:10236300A3E0C696F608A3E0C696F608A3E0C696D1
:10237300F622C3E096F008A3E096F008A3E096F0F7
:1023830008A3E096F022E657F60809E657F608098F
:10239300E657F60809E657F622E056F608A3E05694
:1023A300F608A3E056F608A3E056F622E056F00836
:1023B300A3E056F008A3E056F008A3E056F022E0AD
:1023C30066F608A3E066F608A3E066F608A3E066EF
:1023D300F622E0F608A3E0F608A3E0F608A3E0F689
:1023E30022E6F008A3E6F008A3E6F008A3E6F0224D
:1023F300E0FAA3E0FBA3E0FCA3E0FD22EAF0A3EBF9
:10240300F0A3ECF0A3EDF022E0F8A3E0F9A3E0FAE7
:10241300A3E0FB22E8F0A3E9F0A3EAF0A3EBF022A8
:10242300CAC0E0E6F0A308DAFAD0E0FA22CAC0E0B4
:10243300E0A3C582CCC582C583CDC583F0A3C58285
:10244300CCC582C583CDC583DAE6D0E0CA22C3E416
:1024530098F8E499F91224928026C3E49AFAE49B4B
:10246300FBE920E7E9122492E498F8E499F922C3FE
:10247300E498F8E499F9122492E498F8E499F9C3FA
:10248300E49AFAE49BFB22EB20E7CFE920E7E0B9EB
:102493000010BB0008E88AF084F8AAF022E4FBC825
:1024A300FA22EB70227B10C833C8C933C9335007F3
:1024B300C39AC3DBF280069A50012ADBEAC833F4DD
:1024C300C8C933F4C9FA2275F008E4C833C8C9335C
:1024D300C933C99AC99B5004C92AC93BD5F0ECFB3F
:1024E300C833F4C8E4C9FA22600D08C6A2E713C6CC
:1024F30018C613C6D5E0F322600C08C6C313C6186A
:10250300C613C6D5E0F422700422600D18C6C33387
:10251300C608C633C6D5E0F41822251810AF08F54F
:1025230018400C15198008F51840021519D2AF226E
:1025330000C0D0251810AF08F518500C05198008F5
:10254300F51850020519D2AFD0D0222518F5821004
:10255300AF08F518400C15198008F5184002151935
:10256300D2AF851983222518F582E43519F5832224
:102573002518F8E43519F9222518FAE43519FB2250
:102583002518FCE43519FD22E4732518C582C0E043
:10259300E51934FFC583C0E0E518C3958224F8101C
:1025A300AF08858319858218800885831985821869
:1025B300D2AFCEF0A3E520F0A37808E608F0A3DEBF
:1025C300FAEFF0A3E58124FAF8E608F0A3E608F0B1
:1025D300A3E608F0A30808E608F0A3E608F0A315AD
:1025E300811581D0E0FED0E0F8158115811581E8D1
:1025F300C0E0EEC0E0222518C582C0E0E51934FF33
:10260300C583C0E0E518C3958224F910AF0885831C
:10261300198582188008858319858218D2AFCEF078
:10262300A3E520F0A37808E608F0A3DEFAEFF0A311
:10263300E58124FBF8E608F0A3E608F0A30808E622
:1026430008F0A3E608F0A315811581D0E0FED0E0E1
:10265300F815811581E8C0E0EEC0E0228519838575
:102663001882E0A3FEE0A3F5207808E0A3F608DFD4
:10267300FAE0A3FFE0A3C0E0E0A3C0E0E0A3C0E072
:10268300E0A3C0E0E0A3C0E010AF08858218858313
:10269300198008858218858319D2AFD083D082022E
:1026A300011F851983851882E0A3FEE0A3F5207836
:1026B30008E0A3F608DFFAE0A3FFE0A3C0E0E0A38D
:1026C300C0E0E0A3C0E0E0A3C0E010AF088582183B
:1026D3008583198008858218858319D2AFD083D06A
:1026E3008222C0D02518C582C0E0E51934FFC58316
:1026F300C0E0E518C3958224F310AF0885831985DC
:1027030082188008858319858218D2AFC8F0A3E99F
:10271300F0A3EAF0A3EBF0A37908E709F0A3D8FA52
:10272300ECF0A3EDF0A3EEF0A3EFF0A3D0E0F0A361
:10273300D0E0F0A3D0E0F0A3E520F0A3E5F0F0A310
:1027430022851983851882E0C0E0A3E0F9A3E0FAAB
:10275300A3E0FBA37808E0F608A3DFFAE0FCA3E01C
:10276300FDA3E0FEA3E0FFA3E0C0E0A3E0C0E0A37D
:10277300E0F5D0A3E0F520A3E0A3F5F010AF0885C2
:1027830083198582188008858319858218D2AFD072
:1027930082D083D0E0F8D0E03274048006740280E3
:1027A300027401C0E0F40412254ED0E01224232267
:1027B3007404800474028000CCC0E0EDC0E0E5182E
:1027C300C39CCCAD1950011D10AF068C188D198018
:1027D300068C188D19D2AF122430D0E0FDD0E0FC66
:1027E30022D083D082E9C0E0E493A3C386F0C5F08E
:1027F30095F0F908E493A386F0C5F095F0700BE427
:1028030093A3C3994005E9048002A3E475F002A4ED
:102813002582F582E5F03583F583D0E0F9E493A3CF
:10282300C0E0E493C0E022D083D082ECC0E0EDC0EE
:10283300E0E493A3FCE493A3FDED4C600D12287632
:10284300EC24FFFCED34FFFD80EFE493A3FCE49361
:10285300A3FDED4C600D1228B5EC24FFFCED34FF15
:10286300FD80EFD0E0FDD0E0FCE493A3C0E0E4936F
:10287300C0E022C0E0C3E493960874019396184025
:102883000FE493667008087401936618700070195A
:10289300A3A3C3E49396087401939618A3A3400DCE
:1028A300D0E0D0E0D0E0022866A3A3A3A3A3A3D0E3
:1028B300E022C0E0C0F088F0E49366700808740179
:1028C3009366187000A8F0A3A3700BD0F0D0E0D0EB
:1028D300E0D0E0022866A3A3D0F0D0E02274F51282
:1028E30025F9EAFEEBFFEE2434F8EF3400F988080B
:1028F3008909EE2435F582EF3400F583E0F8EE2400
:1029030037F582EF3400F583E0F50AEC850AF0A48D
:10291300FCAAF0850AF0EDA42AFDE82CF8E43DF9C1
:102923007A257B00122492EA850882850983F0F8D0
:10293300740758F97401B900028004C333D9FCFA4F
:10294300E8131313541FF8EE28F8EF3400F9E824C2
:102953005DF582E93400F583E05A6008EE2434F52E
:1029630082EF802CEE2434F582EF3400F583E0C04F
:10297300E0EE2436F582EF3400F583E0F5F0D0E0A5
:1029830084A8F0EE28F8EF3400F9E82438F582E95A
:102993003400F583E0F97F040226A574F51225F9C6
:1029A300EAFEEBFFEE2434F582EF3400F583E0C05A
:1029B300E0EE2435F582EF3400F583D0E0F08E822B
:1029C3008F83A3A3A3A3A3A3A3C082C0838E828F59
:1029D30083A3A3A3A3A3E0F8A3E0F9D083D082E069
:1029E300C398F508A3E099F509EE247FF582EF3447
:1029F30000F583E064017069EE2480F582EF340012
:102A0300F583E0F8A3E0F98E828F83A3A3A3A3A3A6
:102A1300A3A3E0FCA3E0FD8E828F83A3A3A3A3A3C0
:102A2300E0FAA3E0FBC3EA9CEB9D5010C3EC98EDE6
:102A330099402EC3EA98EB995027800EC3EA98EB8E
:102A4300994007C3EC98ED9940177CDC7D04EEFABE
:102A5300EFFB120E68EE247FF582EF3400F583E47A
:102A6300F0EE2434F8EF3400F9E8FCE9FDEE243508
:102A7300F582EF3400F583E0F8EE2437F582EF3486
:102A830000F583E0F50AE508850AF0A4F508AAF045
:102A9300850AF0E509A42AF509E82508F8E43509CB
:102AA300F97A257B00122492EA8C828D83F0F874E4
:102AB3000758F97401B900028004C333D9FCFAE85A
:102AC300131313541FF8EE28F8EF3400F9E8245DCC
:102AD300F582E93400F583E05A6008EE2434F58288
:102AE300EF802CEE2434F582EF3400F583E0C0E070
:102AF300EE2436F582EF3400F583E0F5F0D0E08480
:102B0300A8F0EE28F8EF3400F9E82438F582E93428
:102B130000F583E0F91233F5022999C082C0838559
:102B23001882851983E0F8A3E0F9C3EA9CEB9D5072
:102B330010C3EC98ED99401BC3EA98EB99501480AD
:102B43000EC3EA98EB994007C3EC98ED99400479DA
:102B53000180027900D083D08222EAC39CFAEB9DE4
:102B6300FB2274EF1225F99003A2E064086005E0EC
:102B73006407702A9061C8E060249003D0E0F46099
:102B83001DE0F875F003A4C8AAF02AF974D228FE50
:102B9300740339FF8E828F83A3A3A3E07003022CF7
:102BA30095906060E0C0E0EE2468F582EF3400F5B4
:102BB30083D0E0F0750C45750D05750800750900A7
:102BC300E5D914F50AE5D95403F50E6017740365C6
:102BD3000E605CE50A6010EE2467F582EF3400F5C1
:102BE30083E07003022C7A900540E06401602AEED2
:102BF3002482F582EF3400F583E0600478048002D8
:102C03007800850A08E508C398FA95E0FB120D1EC3
:102C13008A088B09EA4509700512105A8074EE245C
:102C230082F582EF3400F583E070048A0C8B0DE5A6
:102C33000A6012850C82850D83F50BE5D9F0A31587
:102C43000BE50B70F6EE2482F582EF3400F583E09A
:102C5300604474FC250AF50A780C1227A0AC0AA973
:102C63000EEEFAEFFB120F047402122533E97026FD
:102C7300AA08AB091217C8793D8E828F83A3A3A339
:102C8300A3E0FA7B00120BF2EEFAEFFB120E8012B6
:102C93000F16790080747403650E6056850A1075EB
:102CA300110078101227A0AC0CAD0DAA08AB0912C5
:102CB3000EE07402122533EE2468F582EF3400F53A
:102CC30083E064807004747F8001E0F50C780C125B
:102CD30027A4E50EF50C780C1227A4A90AAC08ADBD
:102CE300099003D0E0FA7B00120BB674021225336D
:102CF30080139003A2E06408600BAC0CAD0DEEFAF8
:102D0300EFFB120F7012106679017F0A0226A57479
:102D1300F51225F974FC12251DEAFEEBFF8908A2C2
:102D2300AFE433F509C2AF806AEE2463F8EF3400F1
:102D3300F97A007B00A2AFE433F50AC2AF88828937
:102D430083E0FCA3E0FDEC4D603A88828983E0FADE
:102D5300A3E0FB8A828B83E0FCA3E0FD8882898366
:102D6300ECF0A3EDF08A828B83E4F0A3F0888289F0
:102D730083E0FCA3E0FDEC4D700A88828983A3A362
:102D8300E4F0A3F0E50AA2E092AF1217C89004E3BF
:102D9300E004F0EE2463F582EF3400F583E0F8A35A
:102DA300E0F9E849603DEE2463F582EF3400F583F2
:102DB300E02402FAA3E03400FBEA2402F50AEB3430
:102DC30000F50B780A1227A08A828B83E0FCA3E02C
:102DD300F9EEFAEFFB120EA47402122533E9700325
:102DE300022D2C9004E3E060639004E4E0F8900487
:102DF300E3E0C398500C7402650870509004E5E05A
:102E0300604A8E828F83A3A3A3A3E08518828519CA
:102E130083F0A3E4F09004E3E0F87402122569E878
:102E2300F0A3E4F09004E3E0F89004E2E028F07407
:102E330002122569AC82AD83851882851983AA8223
:102E4300AB837901120BC29004E3E4F0E509A2E03D
:102E530092AF74041225330229990000008521875B
:102E63008522C622C0E0C0D0E8C0E0E9C0E0EAC0E5
:102E7300E0EBC0E0ECC0E0EDC0E0EEC0E0C008C0B5
:102E830009C00AC00BC082C083C0F0A2AFE433FE06
:102E9300C2AF759B00906182E0A2E05012E591A25F
:102EA300E0500C7591FE740165217003122B65E0EF
:102EB300A2E55051E591A2E5504B7591DF9003A235
:102EC300E064076005E064087023740165217035D0
:102ED30079019003D0E0FA75F003A4CAA8F028FBA7
:102EE30074D22AFA74033BFB122D128018E0640D8E
:102EF30070139003C4E004F064287002E4F07A00D5
:102F0300E0F912106C906182E0A2E64003022FAE5A
:102F1300E591A2E64003022FAE7591BF9003A2E0B4
:102F230064057008120F9A120FA68003120FA07582
:102F33002100120FFAE99003A3F07900120FEE12A9
:102F43000DD27A017B009003A1E0F91214929078DC
:102F530003E064427055900544E014F0704DC2AF35
:102F6300122F6600782AD0E0F618D0E0F6E59F54D9
:102F73000770057509FF800375097FC4C0E07829D0
:102F8300E6F50808E65509F509740B78081224FBE1
:102F9300D0E02508F8906270E0A2E740F8E8C33378
:102FA300906272F0906270E0D2E0F0906181E0A2F2
:102FB300E35009E5E9A2E3500375E9F7A3E0A2E7CB
:102FC3005009E591A2E7500375917FEEA2E092AF1D
:102FD300D0F0D083D082D00BD00AD009D008D0E073
:102FE300FED0E0FDD0E0FCD0E0FBD0E0FAD0E0F989
:102FF300D0E0F8D0D0D0E032C0E0C0D0C082C083EF
:10300300906183E0A2E05009E5BFA2E0500375BFE1
:10301300FEE0A2E15009E5BFA2E1500375BFFDE068
:10302300A2E25009E5BFA2E2500375BFFBE0A2E3B1
:103033005009E5BFA2E3500375BFF7E0A2E45009CE
:10304300E5BFA2E4500375BFEFE0A2E55009E5BF79
:10305300A2E5500375BFDFE0A2E65009E5BFA2E693
:10306300500375BFBFD083D0828088C0E0C0D0E852
:10307300C0E0E9C0E0EAC0E0EBC0E0ECC0E0EDC0D6
:10308300E0C0F0E5A7A2E6500FE5A1A2E650095380
:10309300A7BF75A1BF1230D3E5A7A2E5500CE5A1E8
:1030A300A2E5500653A7DF75A1DFE5A7A2E150090A
:1030B300E5A1A2E1500375A1FDE5A7A2E2500CE54D
:1030C300A1A2E2500653A7FB75A1FBD0F0022FE4A7
:1030D30074F81225F97521019003A2E064067015B6
:1030E300120F348A828B83A3A3A3A3A3A3E0FAA31F
:1030F300E0FB120F88A2AFE433FED2AF9003A8E047
:10310300640170187A207B009003A1E0F912153452
:103113007A207B009003A1E0F9121498906182E079
:10312300D2E6F0900541E0602185C6228016900327
:10313300A7E064017008E5C654F84405F5C653BE1C
:10314300FC122E607401652160E4EEA2E092AF7F71
:10315300010226A5008E238F248582288583278557
:103163001882851983E0CEA3E0CF85288285278343
:10317300EBC9EAC8EDCBECCA75F010C3E833C8E974
:1031830033C9EA33CAEB33CBC3EA9EF526EB9FF58B
:1031930025B35004AB25AA26EC33CCED33CDD5F0C3
:1031A300DAAE23AF242274ED1225F98A088B098C39
:1031B3000A8D0B7413122569780C1223D5780879BC
:1031C3000C1219ED7510017511C8751200751300F5
:1031D30050127808790C122349781079081219EDE6
:1031E30050168010780C79081223497810790C1244
:1031F30019ED40047901800279007F0C0226A57441
:10320300ED1225F98A088B098C0A8D0B741312258C
:1032130069780C1223D5780C79081219ED401178CE
:1032230008790C122349AA08AB09AC0AAD0B80221A
:103233007510007511007512007513017810790C63
:1032430012234978107908122310AA10AB11AC127B
:10325300AD1380A68A828B837508FF7509FF750AF3
:10326300FF750B0078081223AF7F040226A574F5BF
:103273001225F98C828D8378081223D58A828B8359
:103283007808122375EA2404F8EB3400F98C828D54
:1032930083A3A3A3A3E0FCA3E0FD88828983C3E007
:1032A3009CF0A3E09DF088828983C3E09420A3E08F
:1032B300944E40268A828B837508FF7509FF750A31
:1032C300FF750BFF78081223368A828B83A3A3A38F
:1032D300A3E02420F0A3E0344EF002325774F51239
:1032E30025F9E9FE9004F7E0FAA3E0FBEEC333F817
:1032F300E433F974CD28F582748039F583E02AF537
:1033030008A3E03BF50978081227A07A407B427CAA
:103313000F7D0012315874021225338A088B098CF1
:103323000A8D0B741078081222D8AA08AB097F04FF
:103333000226A574F11225F98A0C8B0D8C0E8D0FC4
:10334300740F122569E0FAA3E0FB7411122569E0FA
:10335300F508A3E0F50978081227A0EA2401F50887
:10336300EB3400F509E4F50AF50B780C7908122122
:10337300D5750871750902780C79081221D5AA0C44
:10338300AB0DAC0EAD0F12315874021225338B09FD
:10339300EA450960047A0180027A00EC2AFCED34E4
:1033A30000FD7413122569E0F8A3E0F9E8FEE9FFD4
:1033B300ECF8EDF97A717B02122492880889098E60
:1033C300828F8378081223E4ECF8EDF97A717B029B
:1033D3001224928A088B097405780812250A8E82B2
:1033E3008F83A3A3A3A3E508F0A3E509F07F080255
:1033F30026A5C082C083E9906000F0D083D08222EA
:10340300C2AF02000022C0E074F21226E5A2AFE4CC
:1034130033FED2AFC2C0E5D1A2E4500653D1EF12BE
:103423001786EEF8EEA2E092AF7F01022744C0E0D8
:1034330074F21226E5A2AFE433FED2AFE589A2E12E
:103443005003121714758900C2C5EEF8EEA2E0927C
:10345300AF7F01022744C0E074F21226E5A2AFE475
:1034630033FED2AFE58BA2E05003121714758B0025
:10347300C2E8EEF8EEA2E092AF7F01022744C0E07B
:10348300C0D0E8C0E0E9C0E0A2AFE433F8D2AFC2F5
:10349300C7E8F9E8A2E092AFD0E0F9D0E0F8D0D0E5
:1034A300D0E032C0E0C0D0E8C0E0E9C0E0C008C06E
:1034B30009C082C083A2AFE433F9D2AF901158E0C0
:1034C300F8901159E068700B539AF790115A7401F0
:1034D300F08031C2EA901158E0F508740125089094
:1034E3001158F075090074D82508F5827410350950
:1034F300F583E0F5F9901158E0C3948040069011EC
:10350300587400F0E9F8E9A2E092AFD083D082D0FA
:1035130009D008D0E0F9D0E0F8D0D0D0E0320201F1
:103523001FFFFFFFFFFFFFFFFF74F012258D74F8ED
:1035330012251D8A0E8B0FE9FF8C0C8D0D7E0085E5
:103543000E08850F0978081227E400041011387457
:10355300359735B635D935FC351F36503673368A2F
:1035630036BA3672379537B837E63711381138E33C
:103573003674016F7019850C82850D83E0C3940343
:10358300500D850C82850D83E09016FFF080027E3E
:103593001802383974026F7015850C82850D83E02B
:1035A300F8A3E0F9901700E8F0A3E9F080027E1891
:1035B30002383974016F7019850C82850D83E0C35D
:1035C3009402500D850C82850D83E0900EC6F08029
:1035D300027E1802383974016F7019850C82850DCB
:1035E30083E0C39405500D850C82850D83E0900E16
:1035F300C7F080027E1802383974016F7019850C88
:1036030082850D83E0C39402500D850C82850D8362
:10361300E0900EC8F080027E1802383974106F7083
:103623002775081075090078081227A0AC0CAD0D9A
:103633007AC97B0E12143874021225338A088B0957
:1036430085088285098380027E1802383974016FE8
:103653007019850C82850D83E0C39402500D850C8F
:1036630082850D83E0900ED9F080027E18023839EE
:1036730074016F700D850C82850D83E0901703F044
:1036830080027E1802383974046F70269081D478D2
:10369300081223D5850C82850D8378081219FD50F5
:1036A30011850C82850D8312240B900EDB122417D7
:1036B30080027E18023839EF7021120964E9701311
:1036C300121648E9F5087950121852E9F50912164D
:1036D30036800A900F6E7401F080027E180238392A
:1036E30074076F600302376D750806750900780863
:1036F3001227A0850C82850D83A3AC82AD8374044D
:1037030012257B12143E7402122533851882851903
:1037130083EAF0A3EBF07C007D00740212257B8525
:103723000C82850D83E0F91215DCE9F50AE50AC37D
:10373300940A5032120964E97015A90A12164EE967
:10374300F5087950121852E9F509121636801D85CD
:103753000A08750900746F2508F582740F3509F599
:10376300837401F080067E0280027E180238397469
:10377300016F7019850C82850D83E0C39402500D8F
:10378300850C82850D83E0900EDAF080027E1802AC
:10379300383974016F7019850C82850D83E0C394E9
:1037A3000A500D850C82850D83E0901702F080028C
:1037B3007E1802383974016F7025850C82850D835C
:1037C300E0C394074019850C82850D83E0C39411EF
:1037D300500D850C82850D83E0901704F080577E91
:1037E30018805374016F7022900F6DE0F508850CFB
:1037F30082850D83E0900F6DF0E5087039900F6DB1
:10380300E064017031121636802C7E188028C3E5DF
:103813000E9427E50F9400501B74026F7016850CED
:1038230082850D83E0FCA3E0FDAA0EAB0F12080214
:10383300E9FE80027E02EEF974081225337F080246
:10384300265F74F012258D74D712251DE9C0E0851B
:103853001882851983D0E0F07401122569EAF0A378
:10386300EBF08C0E8D0F90815E740312258374062A
:1038730012243074031225837401122569E0FAA31C
:10388300E0FB851882851983E0F91215DCE9FEEE69
:10389300C3940A40030239D2EEF9121618E9FF90D5
:1038A30016FFE064027004740180027400F5087866
:1038B300081227A4743A122569E0FDEFFCEEF9AA79
:1038C3000EAB0F12168A74011225337C147D007916
:1038D30000741512257B1214508A088B0985080A77
:1038E30085090B74151225837A1075F006EEA4244E
:1038F30024F912184CE9703B7C1079FF74151225DA
:103903007B1214B0E9702C7425122569AC82AD8347
:103913007A0475F006EEA42425F912184CE9F5088B
:103923007415122583EFA2E0E433F9AA0EAB0F124C
:10393300088CE974091225837A0C74702EF9121815
:103943004CE97079740912257B12160C750800E591
:1039530008C394045067E508F87900E875F003A4F8
:10396300C8AAF075F000A42AFA75F003E9A42AF9AD
:103973007409122569E58228F50CE58339F50D856F
:103983000C82850D83E0F8A3E0F9E849602B850CF0
:1039930082850D83A3A3E0F50A750B00780A12272D
:1039A300A0850C82850D83E0FCA3E0FDAA0EAB0F7E
:1039B300120AF07402122533E905088092EFA2E19E
:1039C300500D900EC5E0F9AA0EAB0F120AF6E9747A
:1039D30039122569E06404700F9016FFE0640270E9
:1039E30007AA0EAB0F121684790074291225337FB0
:1039F3000802265F74F212258D890B8A088B09EC65
:103A0300FEEDFF750A0AE50B600B146008146041B4
:103A130014605F807CAA08AB0912162AE9F50AE54F
:103A23000AC3940A506BEE4F6067750C06750D0060
:103A3300780C1227A0AC08AD09EEFAEFFB1214388C
:103A430074021225338A0C8B0D850C82850D8380BD
:103A530040AA08AB09121624E9F50AE50AC3940A39
:103A6300502FEE4F602BEEFAEFFBA90A12161EE958
:103A7300801FAA08AB09121630E9F50AE50AC394B8
:103A83000A500EEE4F600AEEFAEFFBA90A12161E59
:103A9300E9A90A7F0602265F74F212258D8A0C8B30
:103AA3000DE9FF7E1574FF650C700474FF650D70DE
:103AB3002A750800E508C3940A5014EFFC7A027BC8
:103AC30000A9081215FAE960027E00050880E5EFF7
:103AD30060627A727B16120D008059AA0CAB0D122C
:103AE3000CE28A088B0985080A85090BE50A450B50
:103AF30060407C007D00E50A2405FAE4350BFB8574
:103B03000A82850B83A3A3A3A3E0F91215DCE9F5CD
:103B130008E508C3940A500EEFFC7A027B00A9085B
:103B23001215FAE97E00EF600BAA0AAB0B121672AC
:103B330080027E14EEF97F0602265F74F012258D53
:103B430074FE12251D851882851983EAF0A3EBF014
:103B53008C0A8D0B7412122569E0F50EA3E0F50FA4
:103B63007E15851882851983E064FF7004A3E064E1
:103B7300FF701D7F00EFC3940A506BAC0EAD0FAA0C
:103B83000AAB0BEFF9121600E960027E000F80E525
:103B9300851882851983E0FAA3E0FB120CE28A0CF4
:103BA3008B0D850C08850D09E508450960367C00F9
:103BB3007D00E5082405FAE43509FB8508828509BB
:103BC30083A3A3A3A3E0F91215DCE9FFEFC3940ACF
:103BD3005014AC0EAD0FAA0AAB0BEFF9121600E9A5
:103BE3007E0080027E14EEF974021225337F0802F0
:103BF300265F74F712258DEAFEEBFF900EDFEEF0E1
:103C0300A3EFF0900EC5E0FC7D007A267B0012083E
:103C130002E9F508900EC5E0F9120A6C7F0102264D
:103C23005F74F212258D74EC12251D8A0A8B0B85A5
:103C33000A82850B83A3A3E024FA7003024068245D
:103C4300FD7003023EE0147003023D14146010245F
:103C5300FD7003023E88147003023F230240D6AE78
:103C63000AAF0B900EDFE0F8A3E0F9E84960669035
:103C73000EDFE0F8A3E0F5838882E0F8A3E0F9E83B
:103C8300496052EE240CF582E43FF583E0F50878B1
:103C9300081227A4EE240BF582E43FF583E0F98EA6
:103CA300828F83A3A3A3A3A3A3A3A3A3E0FCA3E063
:103CB300FDEE2403FAE43FFB900EDFE0F8A3E0F50A
:103CC300838882E0F8A3E0F583888212258B740150
:103CD30012253380398E828F83A3A3A3A3A3A3A327
:103CE300A3A31227B7900EDB1223F312089E7402CC
:103CF300122533E9601879018E828F83A3A3A3A3CE
:103D0300A3A3A3A3A3E0FAA3E0FB120898E902404C
:103D1300D6AE0AAF0B8E828F83A3E06003023E36DA
:103D23008E828F83A3A3A3A3A3E0A2E04003023E5A
:103D330036900F79E0F8A3E0F9E8496003023E36D4
:103D43007C0E7D007900AA18AB191214508A088BD7
:103D530009AA08AB09EE240CF582E43FF583E0F8E9
:103D6300A3E0F9E84960367508067509007808127A
:103D730027A0EE240CF582E43FF583E02410FCA396
:103D8300E03400FD740212257B12143874021225EC
:103D9300338A088B09850882850983804F8E828F39
:103DA30083A3A3A3E0FAA3E0FB120CE28A0C8B0D1E
:103DB300850C08850D09E5084509602D750C067508
:103DC3000D00780C1227A0E5082405FCE43509FD55
:103DD300740212257B12143874021225338A0C8B59
:103DE3000D850C82850D8380030240D68E828F83DE
:103DF300A3A3A3A3A3E0A2E25004D2F08002C2F0E3
:103E0300A2F0E433F87900740C122569E048F0A3BA
:103E1300E049F0EEFCEFFDAA18AB19121612E97097
:103E2300127A027B00900EC5E0F9121492E9790030
:103E33000240D8900EDFE0F8A3E0F9E84960439030
:103E43000EDFE0F8A3E0F5838882A3A3E0F8A3E004
:103E5300F9E849602D8E828F83A3E0FC79018E827D
:103E63008F83A3A3A3E0FAA3E0FB900EDFE0F8A304
:103E7300E0F5838882A3A3E0F8A3E0F583888212A8
:103E8300258B0240D6AE0AAF0B900EDFE0F8A3E01D
:103E9300F9E8496045900EDFE0F8A3E0F5838882F6
:103EA300A3A3E0F8A3E0F9E849602F850A82850B14
:103EB30083A3E0FC79028E828F83A3A3A3E0FAA3FA
:103EC300E0FB900EDFE0F8A3E0F5838882A3A3E094
:103ED300F8A3E0F583888212258B0240D6850A0871
:103EE300850B097C007D00E5082404FAE43509FB11
:103EF300850882850983A3A3A3E0F91215DCE9FEF3
:103F0300EEC3940A5017E508240AFCE43509FD7A48
:103F13000475F006EEA42425F9121846E90240D6EA
:103F2300AE0AAF0B900EDAE06018901702E0F98E3C
:103F3300828F83A3A3A3E0FAA3E0FB120898E9020C
:103F430040D69016FFE0701579058E828F83A3A368
:103F5300A3E0FAA3E0FB120898E90240D68E828F11
:103F630083A3A3A3E0FAA3E0FB120CE28A0C8B0D5C
:103F7300850C08850D098E828F83A3A3A3A3A3A316
:103F8300A3E0A2E05071E5084509606885088285D1
:103F93000983A3A3A3A3E0605E8E828F83A3A3A35D
:103FA300A3A3A3A3A3A3E0F8A3E0F9E8C4540FF8E1
:103FB3007900E85401F8E95400F9E8A2E0403874C4
:103FC3000E122583E5082405FAE43509FB850882EA
:103FD300850983A3A3A3A3E0F91215DCE97018797B
:103FE300038E828F83A3A3A3E0FAA3E0FB120898B6
:103FF300E90240D60240D6EE2405FCE43FFD8508E5
:1040030082850983A3A3A3A3E0F98E828F83A3A34D
:10401300A3E0FAA3E0FB12167E900EDFE0F8A3E024
:10402300F9E849603E900EDFE0F8A3E0F58388826B
:10403300A3A3E0F8A3E0F9E84960287C0079008EA7
:10404300828F83A3A3A3E0FAA3E0FB900EDFE0F843
:10405300A3E0F5838882A3A3E0F8A3E0F583888235
:1040630012258B806E120964E97068900F6EE0640C
:1040730001701A121648E9FE900F6E7400F07C0A64
:104083007D0079007A6F7B0F121450803C7E00EE26
:10409300C3940A50348E08750900746F2508F5829D
:1040A300740F3509F583E06401701BEEF912164EA7
:1040B300E9F88E08750900746F2508F582740F35C9
:1040C30009F5837400F00E80C67950121852E9FE88
:1040D300121636790174141225337F0602265F7493
:1040E300F312258D74F212251D8908EAFEEBFF8C6D
:1040F30009AC18AD197A0E75F006E508A42420F969
:1041030012184CE970647C0679FFAA18AB191214D3
:10411300B0E97056740C122569E0F8A3E0F9E8F5EC
:104123000CE5096005EE420C8004EEF4520C850C9C
:104133000A750B00740C122569E0650A7004A3E08C
:10414300650B6022E50CF87900740C122569E8F020
:10415300A3E9F0AC18AD197A0E75F006E508A424AE
:1041630020F9121846E9790180027900740E1225AC
:10417300337F0502265F74F012258D74E612251D28
:1041830089098A0E8B0FECFEEDFF740C1225837ADE
:104193000E75F006E509A42420F912184CE9600312
:1041A3000242A97C0679FF740C12257B1214B0E934
:1041B30060030242A9AC18AD197A0C74702509F991
:1041C30012184CE960030242A5750800AA18AB193E
:1041D30012160CE50E450F702E7C0C7900AA18AB55
:1041E300191214B0E9600302428B7C0C7D00790044
:1041F300AA18AB191214508A0A8B0B850A82850BF5
:104203008375080102428BAC18AD19AA0EAB0F12CD
:1042130016068A0C8B0D850C0A850D0BE50A450BDA
:104223007030EE4F601BAC18AD197A007B0012168C
:10423300068A0C8B0DA80CA90D880A890BE8497016
:104243000479008063850A82850B83E50EF0A3E57C
:104253000FF0850A82850B83A3A3E0F87900EE684B
:104263007002EF696022EEC0E0850A82850B83A3AA
:10427300A3D0E0F0EE4F700D850A82850B837400A6
:10428300F0A37400F0750801E5086016AA18AB19CD
:1042930012160CAC18AD197A0C74702509F91218A2
:1042A30046E9790180027900741A1225337F0802E6
:1042B300265F74F712258DEAFEEBFF7B00EBC394B8
:1042C30004504EEBF87900E875F003A4C8AAF07522
:1042D300F000A42AFA75F003E9A42AF9EC28F58280
:1042E300ED39F583E06E7003A3E06F7021EBF8798D
:1042F30000E875F003A4C8AAF075F000A42AFA75C3
:10430300F003E9A42AF9EC28FAED39FB80070B80C6
:10431300AC7A007B007F0102265F74F712258D7F44
:1043230000EFC3940440030243CCEFF87900E8752F
:10433300F003A4C8ACF075F000A42CFC75F003E9FD
:10434300A42CF9EA28F582EB39F583E0F4FCA3E029
:10435300F4FDEFF87900E875F003A4C8AEF075F04A
:1043630000A42EFE75F003E9A42EF9EA28F582EBEA
:1043730039F583ECF0A3EDF0EFF87900E875F0037D
:10438300A4C8ACF075F000A42CFC75F003E9A42CD0
:10439300F9EA28F582EB39F583A3A3E0F4C0E0EF53
:1043A300F87900E875F003A4C8ACF075F000A42C0C
:1043B300FC75F003E9A42CF9EA28F582EB39F583BF
:1043C300A3A3D0E0F00F0243247F0102265F74F021
:1043D30012258D74F412251DEAFEEBFF8C088D095E
:1043E300900F79E0F8A3E0F9E849702CEE4F6006EE
:1043F300E50845097005790102467DEEFAEFFB12E7
:10440300162AE9901705F0901705E0C3940A4008AF
:1044130012163CE9901705F0901705E0C3940A4083
:104423000302467B900F79E0F8A3E0F9E8496003C3
:104433000244C7EEFCEFFD7A0E75F006901705E017
:10444300A42420F9121846E9F50B7C0C7D0079FFB2
:10445300AA18AB191214508A0C8B0D850C0E850DFE
:104463000FAC18AD197A0C901705E02470F91218E7
:1044730046E9F50A750C0E750D00780C1227A0EEAF
:10448300FCEFFD901705E0F87900E875F00EA4C87D
:10449300AAF075F000A42AFA75F00EE9A42AF974BB
:1044A300E128FA740E39FB12143874021225338A88
:1044B3000C8B0DA80CA90D900F79E508F0A3E50965
:1044C300F0024677900F79E0F8A3E0C82406F5825E
:1044D300C83400F583E0F8A3E0F9E8496043900F9E
:1044E30079E0F8A3E0C82406F582C83400F583E038
:1044F300FCA3E0FD7A1B75F006901705E0A42421C8
:10450300F9121846E9F8900F79E0F9A3E0C92406F7
:10451300F582C93400F5837400F0A37400F00246F9
:1045230077900F79E0F8A3E0C8240AF582C8340035
:10453300F583E0F8A3E0F9E8496043900F79E0F8E8
:10454300A3E0C8240AF582C83400F583E0FCA3E0A5
:10455300FD7A1B75F006901705E0A42422F91218C2
:1045630046E9F8900F79E0F9A3E0C9240AF582C976
:104573003400F5837400F0A37400F0024677900FC3
:1045830079E0F8A3E0C8240CF582C83400F583E091
:10459300F8A3E0F9E8496043900F79E0F8A3E0C895
:1045A300240CF582C83400F583E0FCA3E0FD7A1007
:1045B30075F006901705E0A42423F9121846E9F8CC
:1045C300900F79E0F9A3E0C9240CF582C93400F512
:1045D300837400F0A37400F0024677900F79E0F83B
:1045E300A3E0C82408F582C83400F583E0F8A3E00B
:1045F300F9E849606F900F79E0F8A3E0C82408F563
:1046030082C83400F583E0FCA3E0FD7A1075F00660
:10461300901705E0A42424F9121846E9F50A900F2F
:1046230079E0F8A3E0C82408F582C83400F583E0F4
:104633002410FCA3E03400FD7A0475F006901705FE
:10464300E0A42425F9121846E9F8900F79E0F9A3BC
:10465300E0C92408F582C93400F5837400F0A3741B
:1046630000F08010900F6DE0600312169012167820
:1046730079018006790080027901740C1225337F59
:104683000802265F74F712258D74F212251DE9FEC8
:10469300AC18AD197A0E75F006EEA42420F91218A1
:1046A3004CE9700E740C122569E0F8A3E0F9E8F9FF
:1046B30080027900740E1225337F0102265F74F4A1
:1046C30012258D74F212251D8909EAFEEBFFE50917
:1046D300C3940A5004EE4F700479028041AC18ADC4
:1046E300197A0E75F006E509A42420F912184CE98D
:1046F300F508E5087026750A06750B00780A122777
:10470300A07402122583EEFAEFFB1214387402121E
:1047130025338A0A8B0B850A82850B83A908740EBD
:104723001225337F0402265F74F412258DEAFEEB13
:10473300FF750800E508C3940A5044750A06750B13
:1047430000780A1227A0EEFCEFFDE508F87900E8EF
:1047530075F00EA4C8AAF075F000A42AFA75F00E3D
:10476300E9A42AF974E728FA740E39FB12144A747F
:1047730002122533E96004A9088006050880B5798B
:104783000A7F0402265F74F412258DEAFEEBFF759F
:104793000800E508C3940A5044750A06750B0078AF
:1047A3000A1227A0EEFCEFFDE508F87900E875F0A2
:1047B3000EA4C8AAF075F000A42AFA75F00EE9A4B5
:1047C3002AF974E128FA740E39FB12144A7402129E
:1047D3002533E96004A9088006050880B5790A7FB6
:1047E3000402265F74F712258D74F012251DEAFE6C
:1047F300EBFF750800E508C3940A5039AC18AD19EE
:104803007A1075F006E508A42423F912184CE97010
:10481300207C1079FFAA18AB191214B0E97012EEBC
:10482300FCEFFDAA18AB1912086EE97004A9088001
:1048330006050880C0790A74101225337F01022609
:104843005F74F412258D750800E508C3940A4003CC
:10485300024922E508F87900E875F00EA4C8AAF029
:1048630075F000A42AFA75F00EE9A42AF974E12878
:10487300FC740E39FD7A0E75F006E508A42420F9C0
:1048830012184CE9700302491D7C067D0079FFE58F
:1048930008FA7B00EA75F00EA4CAA8F075F000A42C
:1048A30028F875F00EEBA428FB74E12AFA740E3B8A
:1048B300FB1214508A0A8B0BAE0AAF0B7C067D00E9
:1048C30079FFE508FA7B00EA75F00EA4CAA8F07533
:1048D300F000A428F875F00EEBA428FB74E72AFA7D
:1048E300740E3BFB1214508A0A8B0BAC0AAD0BE51A
:1048F30008F87900E875F00EA4C8AAF075F000A4D2
:104903002AFA75F00EE9A42AF974ED28F582740EDB
:1049130039F5837400F0A37400F0050802484C9045
:104923000F6DE060031216901216787F0402265F63
:1049330074F712258D7E00EEC3940A50327C0679FB
:10494300FFEEFA7B00EA75F00EA4CAA8F075F0003A
:10495300A428F875F00EEBA428FB74E12AFA740E70
:104963003BFB1214B0E96004EEF980050E80C879B0
:104973000A7F0102265F74F712258D7E007F00EF08
:10498300C3940A502F7C0679FFEFFA7B00EA75F097
:104993000EA4CAA8F075F000A428F875F00EEBA4D5
:1049A30028FB74E12AFA740E3BFB1214B0E9700180
:1049B3000E0F80CBEEF97F0102265F74F712258D6F
:1049C3007E007F00EFC3940A500DEE700AEFF912D8
:1049D300164EE9FE0F80EDEEF97F0102265F74F0BB
:1049E30012258D74C912251DE9FE901705E06E701E
:1049F3001D7A017B00900EC5E0F9121498E97A0242
:104A03007B00900EC5E0F9121498E912169C7429E4
:104A13001225837A0E75F006EEA42420F912184CA1
:104A2300E96003024B157C0679FF742912257B127A
:104A330014B0E96003024B157C0E7D0079FF7429E5
:104A430012257B121450851882851983EAF0A3EB93
:104A5300F07C1B7D0079FF740E12257B1214508AA3
:104A63000A8B0B850A0E850B0F7C0C7D0079FF7476
:104A73000212257B1214508A0C8B0D850C0A850DAE
:104A83000B74291225837A0E75F006EEA42420F9FF
:104A9300121846E9F508740E1225837A1B75F00681
:104AA300EEA42421F9121846E94208740E12258354
:104AB3007A1B75F006EEA42422F9121846E942087F
:104AC300740E1225837A1075F006EEA42423F912CE
:104AD3001846E94208740E1225837A1075F006EE23
:104AE300A42424F9121846E94208740E1225837A85
:104AF3000475F006EEA42425F9121846E942087459
:104B0300021225837A0C74702EF9121846E94208B2
:104B13008003750800A90874371225337F0802261D
:104B23005F74F712258DE9FEEE900EC5F01216366E
:104B33007F0102265F74F212258D890AEAFEEBFFDC
:104B4300EE5400F8EF5480F9E8496035900EC5E063
:104B5300F912147A8A0C8B0DA80CA90D88088909FF
:104B6300E8496012AA08AB09121660E96008AA08AE
:104B7300AB09121468E9EE6400FAEF6480FB024C9F
:104B83003CEE5402602D7C007D007A007B001216FF
:104B930012E960187A017B00900EC5E0F9121492B5
:104BA300E9EE6402FAEF6400FB024C3C7A027B00FC
:104BB300024C3CEEA2E0507D900F79E0F8A3E0F5C3
:104BC300838882A3A3A3E0FAA3E0FB121696E9600D
:104BD3005E900EDFE0F8A3E0F9E8496045900EDF50
:104BE300E0F8A3E0F5838882A3A3E0F8A3E0F9E863
:104BF30049602F7C007901900F79E0F8A3E0F583F9
:104C03008882A3A3A3E0FAA3E0FB900EDFE0F8A35E
:104C1300E0F5838882A3A3E0F8A3E0F583888212FA
:104C2300258B12169CEE6401FAEF6400FB800A7A6E
:104C3300017B0080047A007B007F0602265F74F705
:104C430012258DEAFEEBFF7508018E828F83E02427
:104C530050601314601924E1701CEEFAEFFB121577
:104C6300F4E9F5088010EEFAEFFB1216668007EE02
:104C7300FAEFFB12166CA9087F0102265F74F71284
:104C8300258DEAFEEBFF8E828F83A3A3A3A3E064AB
:104C93001E701179008E828F83A3A3E0FAA3E0FB39
:104CA3001215E2E97F0102265F74F612258D8A0848
:104CB3008B09850882850983A3A3A3A3E07034AE7F
:104CC30008AF098E828F83A3A3A3A3A3A3A3122751
:104CD300B78E828F83A3A3A3A3A3E0FCA3E0FD8EDF
:104CE300828F83A3A3E0FAA3E0FB1215E8740212F8
:104CF3002533E97F0202265F74F712258DEAFEEB66
:104D0300FF900EC5E0F98E828F83A3E0FAA3E0FB48
:104D1300120AF6E97F0102265FC082C08374FF1284
:104D2300251D121642E9C39402400B85188285198A
:104D3300837402F08009851882851983740AF0ACA4
:104D430018AD197A01790512097CE974011225332A
:104D5300D083D08202011F74F212258D74E81225CC
:104D63001D8A088B09E9FE8C0A8D0B7C187D00795E
:104D730000AA18AB191214508A0C8B0DAC0CAD0D94
:104D8300851882851983E508F0A3E509F0900EC71D
:104D9300E0C0E07402122569D0E0F0900EC8E0C0D4
:104DA300E07403122569D0E0F0901704E0C0E074CA
:104DB30017122569D0E0F07415122569E054FEF846
:104DC300A3E054FFF9901703E0A2E0E433FA7B0079
:104DD300E84AF8E94BF97415122569E8F0A3E9F0FC
:104DE300901703E0A2E15004D2F08002C2F07415E0
:104DF300122569E054FDFAA3E054FFFBA2F0E4336B
:104E0300F87900E828F8E933F9EA48F8EB49F97446
:104E130015122569E8F0A3E9F0901703E0A2E35027
:104E230004D2F08002C2F07415122569E054F7FA37
:104E3300A3E054FFFBA2F0E433F50C750D007403FB
:104E4300780C12250AEA450CF8EB450DF974151296
:104E53002569E8F0A3E9F0901703E0A2E45004D237
:104E6300F08002C2F07415122569E054EFFAA3E052
:104E730054FFFBA2F0E433F50C750D007404780CB9
:104E830012250AEA450CF8EB450DF974151225694C
:104E9300E8F0A3E9F0901703E0A2E55004D2F08014
:104EA30002C2F07415122569E054DFFAA3E054FF3F
:104EB300FBA2F0E433F50C750D007405780C122594
:104EC3000AEA450CF8EB450DF97415122569E8F06B
:104ED300A3E9F0901703E0A2E25004D2F08002C2EB
:104EE300F07415122569E054FBFAA3E054FFFBA20A
:104EF300F0E433F50C750D007402780C12250AEA00
:104F0300450CF8EB450DF97415122569E8F0A3E992
:104F1300F0900EC8E0602A750C10750D00780C1225
:104F230027A07CC97D0E7406122569AA82AB831261
:104F3300143874021225338A0C8B0D850C82850D6F
:104F430083900ED9E06011EE600E7415122569E0AE
:104F53004402F0A3E04400F0900ED9E0600678012B
:104F630079008004780079007414122569E048F010
:104F7300900EC6E06006780479008004780079001A
:104F83007414122569E048F0AC0AAD0BAA18AB19EA
:104F9300120892E974181225337F0602265F74F70C
:104FA30012258DEAFEEBFF750800900ED9E060062E
:104FB30078017900800478007900E84208900EC6F1
:104FC300E0600678047900800478007900E84208FC
:104FD300A908EEFAEFFB12094CE97F0102265F7480
:104FE300F212258D74E312251D8A0C8B0DE9FF8CBB
:104FF3000A8D09742B122569E0F508740865097098
:105003000A75F006EFA42422FE800875F006EFA4CB
:105013002421FE7C1B7D007900740212257B12146F
:1050230050851882851983EAF0A3EBF074021225E8
:10503300837A1BEEF912184CE97038741C12256937
:10504300E0C39407402D741C122569E0C3941150EA
:1050530022E508F50B780B1227A47403122583E5C8
:105063000AA2E0E433F9AA0CAB0D1208A4740112EE
:105073002533E9741D1225337F0602265F74F71268
:10508300258D120B6EE97E00EEC3940A50557C0603
:1050930079FFEEFA7B00EA75F00EA4CAA8F075F06A
:1050A30000A428F875F00EEBA428FB74E12AFA7427
:1050B3000E3BFB1214B0E97027EEF87900E875F0A7
:1050C3000EA4C8AAF075F000A42AFA75F00EE9A49C
:1050D3002AF974E128FA740E39FB7900120B74E98A
:1050E3000E80A57F0102265F74F612258D74FD12D2
:1050F300251DEAFEEBFF900F7BE0F8A3E0F9E849FA
:10510300703975087D75090F78081227A075080294
:1051130075090078081227A0750837750982780881
:105123001227A07CFF7DFF7A017B001209BE740663
:10513300122533900F7BEAF0A3EBF0900F7BE0F89E
:10514300A3E0F9E8497003025208E4F508F5097889
:10515300081227A074041225738808890978081295
:1051630027A074041225738808890978081227A0D8
:10517300900F7D1227B77902900F7BE0FCA3E0FD2F
:10518300EEFAEFFB120AE47408122533E9704A853C
:105193001882851983E0FA7B007401122569E0F80F
:1051A3007900E4C8F9EA28F508EB39F509E508457B
:1051B30009602678081227A0900F7BE0F8A3E0F59A
:1051C300838882A3A3A3A3E0FCA3E0FDEEFAEFFB95
:1051D3001215E87402122533E9E4F508F509780895
:1051E3001227A0900F7D1227B77CFF7DFF900F7BC6
:1051F300E0FAA3E0FB1209CA7404122533900F7B73
:10520300EAF0A3EBF0900F7BE0F8A3E0F9E8497034
:105213000479018002790074031225337F02022688
:105223005FC082C083900F79E0F8A3E0F9E849609A
:1052330017900F79E0FAA3E0FB121468E9F8900FD6
:10524300797400F0A37400F0901705740AF0D0830A
:10525300D08202011F74F012258D74E312251D897B
:105263000FE50F900D37F01213CC12129A12131E82
:10527300D287900D36E0C2E0F01213D274161225D5
:105283007B121402741612257B1214DA1214C275DF
:10529300080178081227A47900C9FEC91214C8CEE0
:1052A300F9CE12157074011225337C027D007A1F2A
:1052B3007B00120802E9C0E07411122569D0E0F006
:1052C30074061225697401F0740F1225697401F0D4
:1052D300A37400F074051225697400F0740D12258F
:1052E300697496F0A37400F0740B1225697490F03E
:1052F300A37401F074091225697403F0A37400F018
:10530300740712256974FAF0A37400F07406122569
:105313008379017A057B03121858E9740F122583E8
:1053230079027A067B03121858E97C687D1479198F
:105333007A087B03121858E97C817D1479097A076E
:105343007B03121858E9740512258379017A107BBF
:1053530003121858E9740D12258379027A117B031D
:10536300121858E9740B12258379027A127B0312FF
:105373001858E9740912258379027A137B031218EA
:1053830058E9740712258379027A147B031218589B
:10539300E974041225697401F074041225837901F8
:1053A3007A0A7B03121858E97C427D0D7A1479003E
:1053B30012097CE97E207F03EEFCEFFD7A067B0079
:1053C300120802E9EEFCEFFD7A077B00120802E9FE
:1053D300EEFCEFFD7A087B00120802E9EEFCEFFD1C
:1053E3007A097B00120802E97A007B007C007D00C9
:1053F3007412122569EAF0A3EBF0A3ECF0A3EDF02D
:1054030074031225697401F074021225697401F0A2
:1054130074011225697400F085188285198374015B
:10542300F0741212258379047A087B041215D0E9EB
:10543300740312258379017A007B041215D0E97471
:105443000212258379017A027B041215D0E97401D3
:1054530012258379017A037B041215D0E9AC18ADC8
:105463001979017A067B041215D0E99081E412239D
:10547300F3120982E99081E41223F3120A90E912EC
:10548300157CE99081E41223F3121906E99081E473
:105493001223F31218C4E99081E41223F312159432
:1054A300E97A947B1412186A7A927B1412190CE924
:1054B300F50E7A8E7B1412159AE9F50D7A907B140A
:1054C3001218CAE9F50C7901120B98E97902120B4B
:1054D30092E97901120B8CE97A017B00900D37E098
:1054E300F9121492E91214C88A088B098C0A8D0BDD
:1054F3009081EC7808122323AA08AB09AC0AAD0B00
:10550300900D5AEAF0A3EBF0A3ECF0A3EDF0741DB9
:105513001225337F0802265F74F212258D890AEA69
:10552300FEEBFFEE5400F8EF5480F9E84960329047
:105533000D37E0F912147A8A0C8B0DA80CA90D888B
:10554300088909E849600FAA08AB091212C4AA081E
:10555300AB09121468E9EE6400FAEF6480FB0256AB
:1055630022EEA2E050377A8A7B14121864E9F50818
:105573007A567B0D1215EE9081F81227B37A027BCF
:1055830000900D37E0F91215287404122533E9123F
:1055930012D6EE6401FAEF6400FB025622EE5402C7
:1055A30060259081F81227B37A047B00900D37E0D1
:1055B300F91215287404122533E91212E2EE64027B
:1055C300FAEF6400FB8058EE540460259081F812D2
:1055D30027B37A087B00900D37E0F912152874047D
:1055E300122533E9121798EE6404FAEF6400FB8086
:1055F3002EEE540860259081F81227B37A027B00BF
:10560300900D37E0F91215287404122533E91215A9
:1056130058EE6408FAEF6400FB80047A007B007F95
:105623000602265F02011F74F412258D74FA1225F7
:105633001D8A0A8B0B8C088D097412122569E0FEF2
:10564300A3E0FFE50AC0E0851882851983D0E0F066
:10565300A80AA90BE4C9F8E8C0E07401122569D0CF
:10566300E0F0E508C0E07402122569D0E0F0A80874
:10567300A909E4C9F8E8C0E07403122569D0E0F091
:10568300EEC0E07404122569D0E0F0EEF8EFF9E41F
:10569300C9F8E8C0E07405122569D0E0F0AC18AD94
:1056A300197A067900121576E974061225337F04F8
:1056B30002265F74F612258D74EE12251DE9FEEEA7
:1056C3001460101470030257B424FD70030257AA28
:1056D3000257BBAC18AD197A047B0312185EE98537
:1056E3001882851983E0C0E07406122569D0E0F0C2
:1056F3007401122569E0C0E07407122569D0E0F057
:105703007402122569E0C0E07408122569D0E0F044
:10571300740A1225697400F074091225697400F083
:105723007405122569E0C0E0740D122569D0E0F01C
:105733007404122569E0C0E0740C122569D0E0F00E
:105743007403122569E0C0E0740B122569D0E0F000
:1057530074061225837A087900121582E975080602
:1057630075090078081227A0740212258374101299
:10577300257B1214387402122533A818A919880836
:10578300890978081227A0790A741012256912234F
:10579300F31214567402122533AC18AD197A0A7930
:1057A30002121582E980161212D67902121792801C
:1057B3000C790312179280057900121792EE900D5F
:1057C30038F074121225337F0202265FC082C08331
:1057D3001214C89014641223FFD083D08202011FD5
:1057E30074F412258D1214C8900D3E1223FF900DF0
:1057F3003EC082C083901464C082C083901462E070
:10580300F508A3E0F509E4F50AF50BD083D0827817
:1058130008122323D083D0827808121A0D4004790A
:1058230001800279007F0402265F74F412258D1231
:1058330012A6E9900D5EF0900D3E78081223D590E4
:105843001496780812235D900D3A78081223E475B4
:10585300080475090078081227A07C3A7D0D7ACCDC
:105863007B0C12143874021225337CBF7D0C7A141E
:1058730079021215A0E91213F07C9A7D147A147937
:10588300001218D0E9900D0F7400F0900D10740001
:10589300F0900D117400F0900D127400F075080271
:1058A30075090078081227A07C8D7D0D7A0F7B0D7A
:1058B300121438740212253375080275090078082A
:1058C3001227A07C8F7D0D7A117B0D121438740280
:1058D300122533900D39E0C4333354C0F8900D10C2
:1058E300E048F075080175090078081227A07C5E6E
:1058F3007D0D7A227B0D12143874021225337C0F2E
:105903007D0D7A1479061215A0E9900D38E064052F
:1059130060031212D61212DCE96007121870E91242
:1059230012D67F0402265F74F012258D74DB1225D4
:105933001DE9C0E07403122569D0E0F07403122559
:1059430069E0601324FE6031147003025E0C14706E
:1059530003025E5D025E5DAA18AB19790012191885
:10596300E9851882851983E064FE700AC2AF75C9A0
:10597300AB75C95B80FE025E5D7A4E7B14790212C1
:105983001918E990144EE064FD6003025A1E901446
:105993004FE0FE901450E0FF750804750900780885
:1059A3001227A07C517D147423122569AA82AB832C
:1059B3001214387402122533750802750900780829
:1059C3001227A07C557D14741E12257B1214387483
:1059D3000212253375080275090078081227A07C86
:1059E300577D147420122569AA82AB83121438746C
:1059F30002122533901459E0C0E07420122569D0B7
:105A0300E0F0741C12256974091227BBEEFAEFF952
:105A130012126A7409122533025E5D90144EE0641B
:105A2300FE700912129412129A025E5D90144EE0F7
:105A330064B2703875080475090078081227A07CD1
:105A43004F7D14740E12257B121438740212253301
:105A5300740C1225691223F3121408740C122569AD
:105A63001223F31214C21212D6025E5D90144EE09A
:105A730064B1703E7C007D007E007F0074081225B7
:105A830069ECF0A3EDF0A3EEF0A3EFF07408122598
:105A93008379027AD47B031215C47408122583799F
:105AA300027AB47B031215C47A007B001213B4028A
:105AB3005E5D90144EE064B0703490144FE0F50ACC
:105AC300E50A7003750A017E007F00850A087509DF
:105AD30000C3EE9508EF9509A2D265D033400302C7
:105AE3005E5D79021217B00EEE70E00F80DD901448
:105AF3004EE064DD70517C007D007E007F00740405
:105B0300122569ECF0A3EDF0A3EEF0A3EFF074041B
:105B130012258379027AD47B031215C474041225E7
:105B23008379027AB47B031215C47A007B001213C3
