:020000040000FA
:06000000020107022F3788
:03002B0002339508
:0300330002336D28
:03005300022FAACF
:03006B0002334518
:10008300022DA3E5C754F84401F5C7790122000006
:100093000080FB120086B900030200F1E4792178A5
:1000A30008B800028004F709D8FCE479297802B87B
:1000B30000028004F709D8FCE4900281786C790F80
:1000C3008002F0A3D8FCD9FA7AEC7B109001377840
:1000D300E179068015E493A3AD82AE838A828B8394
:1000E300F0A3AA82AB838D828E83D8E9D9E7758288
:1000F300937583FF740312011975829175830074DC
:100103000012011975D00075813F751881751902A8
:10011300759F00020096C09FF59FE473D09F22D085
:1001230083D082C09FE493C0E0740193C0E0740263
:1001330093F59F22FF0000B4000028002800283018
:1001430075A000A000A000A00000080008E001F0D6
:10015300001000100010001000100010005000509C
:1001630000500010001000D0070000000000000F36
:100173000001000500307507001000010081FF0039
:10018300000000FF150933091B09FF0202020802E0
:100193005000A0000000E803022D82010000FE8150
:1001A3000231820100004311023782010000B302D1
:1001B3000231820100004411023982010000C902A8
:1001C3000231820100004511023B82010000CB0293
:1001D3000231820100004611023D82080000CC0278
:1001E3000231820100004711023F820100004811E1
:1001F300FF0100FF20022D82010000FB81023182FA
:10020300010000AC110241820000000000023582AF
:100213000300001903090F090F090F090F090F093B
:100223000F090F090F090F090F090F090F090F8B89
:1002330011A3118511280645BA073F2B0A38830DF0
:100243003164112B98172466201DF82A17823C105D
:100253007C5609DE7603A6AEFC18F6F6756E707250
:100263006F6772616D6D656400000000000000003F
:100273003C00FFFF00000F09445053204578706590
:1002830072656D656E74051296009001020A000294
:1002930001060502F0FFA0F0C9120000E712FF12E9
:1002A300E112C312FFFFFFFF5101DC010000000058
:1002B300000000000000000000000000FF12436F78
:1002C3006E6E2E20506172616D730008436F6E6E07
:1002D3002E20506172616D7320526571000844696C
:1002E30073636F6E6E6563742052657100022D82B5
:1002F30001000007820231820100007512024F8261
:10030300010000C90D023582030000CF0D023382C4
:1003130001000076120231820100008312024D8235
:10032300020000D50D0233820100008412023182E3
:100333000100009512024B82020000DD0D023382A0
:100343000100009612020202020202020202010DE1
:100353000000001001022D820100000A8202318296
:10036300010000FD12024782010000DE0D0231820E
:10037300010000FE12024582010000138102318256
:10038300010000FF12024382010000E60D023182E8
:100393000100000113022782010000308002318234
:1003A30001000002130225820100008781023182CD
:1003B30001000000130221820100008281023182C8
:1003C3000100000313021F820100005281023182E7
:1003D3000100000413021B82010000ED8002318240
:1003E3000100000513020D8201000006131A447078
:1003F30074203100001A447074203200001A4470D3
:1004030074203300001A447074203400001A4470BE
:1004130074203500001A447074203600001A4470AA
:100423007420370000022D82010000F8810231821E
:10043300010000A513021182030000080E02358299
:100443000300001C0E023382010000A61302318256
:10045300010000AD13021382030000220E02358255
:10046300030000360E023382010000AE1302318214
:10047300010000B5130215820300003C0E02358211
:10048300030000500E023382010000B613023182D2
:10049300010000BD13021782030000560E023582CD
:1004A3000300006A0E023382010000BE1302318290
:1004B300010000C513021982030000700E02358289
:1004C300030000840E023382010000C6130231824E
:1004D300010000CD13026D820300008A0E023582F3
:1004E3000300009E0E023382010000CE130231820C
:1004F300010000D513021D82030000A40E02358201
:10050300030000B80E023382010000D61301E80392
:10051300053F100A01FF00013075030201060000C8
:1005230000000000000000000000000000000000C8
:100533000000000000000000000001FFFF06008033
:100543000CE8031A53656E736F72732E2044617443
:1005530061000A53656E736F72732E20436F6E666C
:100563002E000A53656E736F72732E2043616C699C
:1005730062722E000A0A53656E736F72732E2050D7
:100583006572696F6400022D8201000001820231ED
:1005930082010000FB140253820100008510023522
:1005A300820300009910023382010000FC1402311F
:1005B300820100000A150255820300009F100233D6
:1005C300820100000B150231820100002C15025933
:1005D300820300002D150233820100002E15023123
:1005E300820100001A15025782030000A010023591
:1005F30082030000B0100233820100001B150A437E
:100603006861726163746572697374696320310030
:1006130002436861722E203200001A5472616E73B5
:10062300706F727400001A4E4557000000000000FE
:10063300000000000000000000000054696D6572B6
:100643007320436F6E666967000008436861722E0A
:10065300203500001A30303A30303A3030005469D7
:100663006D650000022D82010000048202318201C7
:100673000000B615026182030000B8100233820144
:100683000000B715023182010000C8150263820120
:100693000000B910023382010000C9150231820142
:1006A3000000D215026582030000BA1002338203F0
:1006B3000000D315023182010000DE1502678203B8
:1006C3000000DF15023582030000D41002338201DB
:1006D3000000F31502318201000002160269820252
:1006E3000000DA1002338201000003160231820196
:1006F30000000C16026B820300000D160235820304
:100703000000DF1002338201000016160000000013
:100713000000000012012260AE0412012277AE0431
:10072300120122A8AE04120122E3AE041201220D2B
:10073300AF0412012237AF041201224EAF0412019B
:100743002265AF041201227CAF04120122A5AF047B
:10075300120122B8AF04120122CEAF04120122E12A
:10076300AF0412012208B004120122EAA00312010D
:1007730022EEA10312012226A20312012249A2039F
:1007830012012254A20312012277A203120122862C
:10079300A3031201225BA403120122D6A4031201B4
:1007A300225EA50312012299A503120122D0A503FB
:1007B3001201225EA60312012237A7031201229718
:1007C300A703120122A2A70312012221A8031201E7
:1007D3002224A80312012227A803120122B6A80388
:1007E300120122B9A803120122E9A803120122135C
:1007F300A90312012201AA03120122B3AA031201BF
:1008030022D68404120122FE84041201222C8504C0
:10081300120122638504120122C185041201220CF4
:1008230086041201225786041201229786041201BC
:1008330022DD86041201220B8704120122C88704D9
:10084300120122D28704120122DF8704120122122D
:100853008804120122DE8804120122EA88041201AC
:10086300220289041201220C890412012254BC04BD
:1008730012012262BC041201227ABC0412012292E8
:10088300BC04120122EF8F021201229B900212017B
:10089300221691021201223792021201227392024E
:1008A3001201221C930212012203940212012267F5
:1008B3009502120122BE95021201223F96021201F5
:1008C300222F97021201227C970212012202980220
:1008D300120122349802120122489A021201228A3A
:1008E3009A02120122A89A021201222B9B021201E0
:1008F30022FF9B02120122C79C02120122FEE20385
:10090300120122D1E3031201227AE403120122CD60
:10091300E4031201227DE50312012209E603120119
:1009230022F5E60312012224E70312012237E8032A
:100933001201227FE80312012254E90312012290DB
:10094300E903120122ACE903120122667F001201BE
:10095300222D960412012243960412012269960461
:100963001201228597041201228F9704120122C4D7
:100973009804120122BC99041201226CFA03120199
:10098300229CFB03120122CFFB0312012219FC0359
:10099300120122E0FD031201220080021201226AE9
:1009A3008002120122C98102120122D9810212019D
:1009B300220682021201225D8202120122068302B2
:1009C3001201220D8402120122D78402120122375E
:1009D30086021201227A86021201221F8702120165
:1009E300226C8702120122928702120122A089023D
:1009F300120122A58902120122AA8B02120122F7F7
:100A03008B021201226A8C021201229D8C021201B6
:100A1300223F8D02120122E88D02120122208E0252
:100A2300120122238E021201226B8E02120122ABCB
:100A33008E02120122028F02120122ADA9041201B9
:100A430022C5A9041201220DAA0412012223AA0419
:100A53001201226AAA041201227EAB041201220BA4
:100A6300AC0412012256AC0412012270820112015D
:100A7300227C8201120122B78201120122FC82012F
:100A8300120122BC8301120122428401120122A716
:100A93008401120122D384011201220C8501120167
:100AA300224A87011201222E8901120122148B018D
:100AB300120122578C01120122A58E01120122B7C5
:100AC3008F011201220291011201221292011201DD
:100AD300222F92011201226A92011201228C9201A9
:100AE300120122EF9201120122B097011201224555
:100AF3009801120122969801120122BD9801120158
:100B0300220F99011201222D9901120122879901C5
:100B1300120122709A01120122E69B011201226A3C
:100B23009C0112012223F5031201222DF503120168
:100B33002270F5031201228BF5031201221BF60327
:100B430012012243F60312012280F603120122B797
:100B5300F603120122E0F60312012255F7031201F4
:100B6300226AF7031201227FF703120122B0F7036F
:100B7300120122C4F703120122E9F703120122230F
:100B8300F8031201224FF8031201227DF803120128
:100B930022C8F80312012227F903120122A6F9033E
:100BA300120122EFF90312012219FA03120122445E
:100BB300FA03120122D9FE0212012239E5021201BF
:100BC3002267E502120122B5E60212012295E7022D
:100BD300120122B4E70212012231E8021201227447
:100BE300E802120122CAE9021201228BEA0212016F
:100BF3002212ED02120122B3ED02120122A9EE022A
:100C0300120122A6EF0212012200F1021201228B2D
:100C1300F10212012286B604120122EFB604120178
:100C23002243B7041201226AB7041201229BB704BC
:100C3300120122938904120122008A04120122471D
:100C43008A041201225F8B041201225B8C041201BD
:100C5300223E8D0412012204B40312012246B4037E
:100C630012012218B503120122F1B503120122EB7E
:100C7300B603120122CDB70312012236B8031201C3
:100C830022ECB80312012260B903120122CCB9038A
:100C9300120122F5B9031201226FBA0312012208CD
:100CA300BB031201226DBB0312012282BB0312019B
:100CB30022C8BB03120122E1BB0312012246BC037B
:100CC30012012249BC03120122B4A604120122DC40
:100CD300A6041201221AA704120122D8A7041201A2
:100CE300223FA8041201225BA80412012283A80454
:100CF300120122B3A804120122C2A8041201223F46
:100D0300A90412012265A904120122A5EE01120110
:100D13002283F001120122B5F201120122F1F20144
:100D23001201221EF30112012208F40112012253BF
:100D3300F4011201229EF401120122B0F401120106
:100D430022F0F40112012225F50112012273F501AB
:100D5300120122A2F501120122C5F501120122128C
:100D6300F60112012297F601120122B1F8011201D4
:100D730022F0FA0112012231FB01120122D3FC01FC
:100D830012012214FD0112012287FD01120122D357
:100D9300FD0112012281FE011201225CFF011201F9
:100DA3002224D80212012222D902120122BBDF021D
:100DB300120122DCE102120122A7E3021201220F37
:100DC300E502120122D19C01120122809D01120130
:100DD30022C69D01120122FC9E01120122599F018C
:100DE300120122879F011201221DA10112012297E4
:100DF300A101120122B2A1011201222DA2011201AD
:100E03002287A301120122E7A401120122EDA50109
:100E13001201224EA70112012267A701120122C566
:100E2300A701120122B3A801120122E6A8011201AF
:100E33002256A901120122D0A9011201221AAA01E4
:100E4300120122E4AA01120122B9AB011201229874
:100E5300AC0112012223AD0112012291AD01120155
:100E63002205AE0112012230AE01120122EFAE01C2
:100E730012012254B00112012271B0011201229019
:100E8300B00112012281B101120122A6B1011201A6
:100E930022D0B1011201224BB201120122A5B201EB
:100EA3001201220EB401120122BCB401120122FD6F
:100EB300B40112012250CA021201229ECA02120177
:100EC30022AACA0212012288CB02120122B9CB0242
:100ED300120122EACB021201226ACC02120122A2DF
:100EE300CC02120122F4CC0212012231CD021201F2
:100EF300224ECF0212012274D1021201225FD302C9
:100F030012012249D502120122EA7F001201225363
:100F13006B00120122836B001201225C720012012A
:100F230022E17300120122DE7900120122C67A0047
:100F3300120122037B00120122267B001201225799
:100F43007B00120122607B001201226A7B001201E6
:100F530022587C001201224E7D001201222DB50180
:100F63001201222CB90112012232B9011201226DA0
:100F7300C00112012286C50112012266A0041201DA
:100F83002260A104120122D4A10412012212A2049C
:100F930012012286A204120122FFA20412012208D6
:100FA300A30412012214A30412012229A30412018F
:100FB3002267A3041201227DA304120122008E04DE
:100FC3001201220D8E04120122278E0412012266C1
:100FD3008E04120122A48E04120122098F0412012D
:100FE300221E8F04120122298F04120122368F043C
:100FF3001201224D8F041201225B8F04120122661B
:101003008F04120122728F04120122818F041201B4
:10101300228C8F04120122AF8F04120122569004F6
:101023001201226690041201228090041201229D73
:101033009004120122B99004120122DE90041201DD
:1010430022E99004120122FE90041201221291045B
:101053001201227391041201227991041201227F59
:1010630091041201228591041201229D910412011F
:1010730022D0910412012226BC02120122AABC0230
:1010830012012259BD02120122B8BE02120122D955
:10109300C002120122C5C102120122FAC1021201C9
:1010A300221CC202120122CBC202120122C3C402B9
:1010B300120122ECC4021201227EC502120122B0E7
:1010C300C502120122BDC50212012214C602120179
:1010D300223AC602120122A7C802120122AAC90299
:1010E30012012202CA02120122B5AD02120122BF6D
:1010F300AE02120122A6AF02120122B0AF02120108
:1011030022D2AF02120122DEAF0212012277B10214
:10111300120122A6B102120122C2B2021201221B43
:10112300B30212012281B40212012260B50212013C
:1011330022BCB50212012229B60212012264B602B0
:10114300120122A3B6021201225CB9021201227615
:10115300B90212012202BA0212012210BA021201CA
:101163002269BA0212012277BA02120122EABA02F2
:101173001201224EBB0212012298BB021201225A13
:101183008B031201227C8B03120122A28D03120115
:1011930022B79003120122CF9103120122829203FC
:1011A300120122649303120122D0B104120122F529
:1011B300B10412012267B20412012284DB0312017B
:1011C300228DDB0312012296DB031201226DDC0365
:1011D3001201221EDE0312012254DE031201228EAB
:1011E300DE03120122C4DE03120122FEDE0312011A
:1011F3002232DF031201225EDF03120122A7DF0383
:10120300120122E1DF031201222AE00312012282EA
:10121300E003120122B7E00312012212E1031201DB
:10122300224CE1031201229DE103120122D3E103C7
:101233001201220DE2031201223BE2031201225E9C
:10124300E203120122C7BE04120122F3BE041201FB
:10125300224EBF0412012258BF0412012268BF04A8
:10126300120122E09E021201225E9F021201227AE3
:10127300A002120122D9A00212012268A1021201C6
:1012830022DAA20212012271A6021201220CA90281
:101293001201222DAA02120122FAAB02120122A587
:1012A300AC02120122B5AC021201223DAD021201C1
:1012B30022F05000120122B35300120122BF540046
:1012C300120122C254001201224E5500120122675C
:1012D30056001201227B5600120122C5560012014C
:1012E30022C25700120122FF5C00120122BC5D00E2
:1012F300120122815E00120122C85E001201224CFB
:101303005F00120122505F001201228C5F00120164
:10131300223C6000120122156200120122AD62001C
:10132300120122EC62001201229E6300120122507C
:1013330064001201226664001201227C640012011F
:1013430022B964001201220B6500120122346500E8
:10135300120122EF650012012228660012012261A8
:1013630066001201229A66001201224A67001201E6
:10137300227B67001201228B67001201229B670008
:10138300120122AB6700120122FE6700120122370D
:101393006800120122706800120122A9680012017C
:1013A30022E26800120122FB680012012242690056
:1013B3001201226A6900120122B76900120122D8C0
:1013C3006900120122DF6A00120122FEB404120135
:1013D300227DB50412012224AB0312012232AB0396
:1013E30012012228AE031201224BAE03120122EA9C
:1013F300AF03120122C9B10312012220B203120169
:1014030022BBB203120122DAB203120122B1B303E7
:10141300120122E5B30312012200800312012215F7
:101423008003120122718003120122DC8003120166
:10143300222481031201228E8103120122BD810322
:101443001201229A8503120122A885031201220A9E
:1014530086031201224886031201226386031201C6
:1014630022FE8603120122A3870312012226880388
:101473001201225F8803120122EA8803120122412A
:101483008903120122A08903120122C689031201D2
:1014930022CF8903120122238B0312012204D403D6
:1014A300120122E2D4031201223ED5031201225873
:1014B300D50312012269D50312012246D903120171
:1014C3002266D90312012272BF041201221B9D045A
:1014D300120122749D04120122BA9D04120122FEFC
:1014E3009F04120122B5C004120122D0C0041201CC
:1014F30022E0C0041201226DBC031201228DBC0341
:1015030012012203BE0312012251BE0312012271F2
:10151300BE03120122D9BE031201225BBF031201D3
:1015230022A1BF031201222DC00312012276C4039C
:101533001201225FBB0412012289BB04120122AAF9
:10154300DD0112012214EB0112012235EC0112011B
:101553002254EC01120122FCEC011201222BBD04E6
:1015630012012281CC03120122A6CC031201220410
:10157300CD0312012253CE031201220CF2021201F7
:101583002251F2021201226EF2021201225DF502D1
:10159300120122AEF6021201225AF9021201229C12
:1015A300FE0212012225B9041201228CB904120190
:1015B3002215C004120122C43300120122DD3600B9
:1015C3001201228F3800120122333900120122D670
:1015D30039001201228D3A00120122BC3A00120195
:1015E300227A3F001201221140001201224D4100D4
:1015F300120122B541001201226942001201221F89
:101603004500120122594500120122C3450012016F
:10161300222146001201227F4600120122DC4600ED
:10162300120122CB47001201221148001201225657
:101633004800120122794800120122BC490012011C
:1016430022D04900120122D94A00120122184B006C
:10165300120122444B00120122934B00120122B4C7
:101663004B00120122F24B00120122394E001201EB
:10167300227A4E00120122184F00120122834F00DA
:10168300120122BC500012012266BA041201227711
:10169300BA041201224FBB04120122ED7F00120192
:1016A30022E3FF01120122FABD041201220ABE0441
:1016B30012012224BE04120122C4BE04120122AD6F
:1016C300A30412012257A40412012299A6041201B1
:1016D3002275B304120122CAB304120122F6B30421
:1016E30012012276B404120122E1B704120122117D
:1016F300B8041201226DB804120122E8B8041201E1
:1017030022008004120122228004120122B78004E5
:10171300120122B581041201227684041201221AD5
:10172300B0041201222DB0041201225CB004120194
:10173300224D9204120122AA920412012207940458
:1017430012012203950412012280AC04120122E744
:10175300AC0412012292AD0412012208AE0412015C
:1017630022C69904120122F99904120122FF9A0454
:10177300120122549C04120122889603120122644E
:101783009703120122AB9703120122E89703120178
:1017930022569803120122B09803120122209903C2
:1017A300120122F89903120122EB9A031201226F0C
:1017B3009B03120122129D031201229D9D0312011C
:1017C300222D9E03120122C69E03120122DD9E03D7
:1017D30012012218A0031201226EA0031201223C5F
:1017E300CA01120122E0CE01120122D1D10112015C
:1017F30022FAD10112012211D2011201223AD2019D
:10180300120122ECD201120122CAD4011201221CBC
:10181300D60112012263DB011201229CDB011201BA
:1018230022E0DB01120122ECDC01120122B7EF03FB
:1018330012012207F00312012230F0031201224A9F
:10184300F10312012293F203120122E6F4031201BF
:101853002287C403120122CCC403120122E9C40368
:10186300120122A3C60312012290C7031201226CA4
:10187300C90312012251CC0312012286FF01120176
:101883002221EA0312012265EA031201220EEB036D
:1018930012012247EB03120122B4EB03120122CA05
:1018A300EB0312012208EC03120122B0EC03120134
:1018B30022D7EC03120122FEEC0312012225ED03D1
:1018C3001201224CED031201228DED03120122A419
:1018D300ED03120122B4ED031201223DEF031201C5
:1018E3002266EF031201227AEF031201228CEF0327
:1018F3001201229DEF031201226DC104120122374E
:10190300C10412012299C104120122C1C104E0667B
:10191300701008A3E066700A08A3E066700408A3C9
:10192300E06622C3E7960809E7960809E7960809DF
:10193300E79622C3E09608A3E09608A3E09608A3DF
:10194300E09622C008C3E096F50808A3E096420893
:1019530008A3E096420808A3E09645087001D3D097
:101963000822080808E630E7111221FD12197D0844
:101973000808C64480C618181822181818E9799E52
:10198300C608CAC608CBC608CCC6C370207996CA97
:10199300CBCC7019798ECBCC70137986CC700EF9C1
:1019A300802ACA33CACB33CBCC33CC331930E7F2DA
:1019B300CCCBCA3350147004EA30E00DE4CA3ACAFF
:1019C300CB3BCBCC3CCC500209C3E913C6CC182388
:1019D30013C6CB18C6CA18C6F9228A088B098C0A03
:1019E3008D0B7808121A2720F01430E72B74FFFCB4
:1019F300FBFA747F8022E4FCFBFA7480801AB480C3
:101A030008BC00F2BB00EF800F50EBF9E4C39AFA75
:101A1300E49BFBE49CFCE499C6CC18C6CB18C6CA6D
:101A230018C6F922E4C9C608CAC608CBC6D333030D
:101A330008CCC63392F0C3947F402E94184019C942
:101A4300B90704CACBCC225025C309CA33CACB3346
:101A5300CBCC33CC33D9F422F4600DC9CCC313CB34
:101A630013CBCA13CAD9F6CC22E4FCFBFA2214FC2A
:101A7300FBFA22E62618461846184622E727194796
:101A83001947194722181818E60846087009E62668
:101A9300087005E633F4220822191919E7094709E2
:101AA3007009E727097005E733F4220922E608469F
:101AB30008C3134608336002E633F422E7094709F3
:101AC300C3134709336002E733F422121AB0601CD0
:101AD300121ABF6017121A767007121A7F7001D399
:101AE30022C0D0121A7F7006D0D0B322C32233D0C3
:101AF300D0501430E0F6C3E7960809E7960809E7E3
:101B0300960809E796B32220E0D5E6970809E697F9
:101B13000809E6970809E697B322121AB0601B1268
:101B23001ABF6016121A767007121A7F600CB3225E
:101B3300C0D0121A7F7005D0D022C32233D0D05028
:101B43001330E0EBC3E7960809E7960809E7960820
:101B530009E7962220E0E4E6970809E6970809E6F4
:101B6300970809E6972200121AB0604F121ABF6055
:101B730012E7548066F6121A887011121A7F703BAE
:101B8300090909F4F618F618F618F622121A9C70C9
:101B930015121A7608080860EAE6447FF61876807C
:101BA30018E4F618F622121A766016121A7F7012CB
:101BB300E4F608F608F608E65480F6090909181849
:101BC3001822EAC0E0EBC0E0ECC0E0EDC0E0E6873D
:101BD300F0A4FBACF008E687F0A42CFCE435F0FAA3
:101BE3001809E687F0A42C4B60027401CA35F0FC97
:101BF300E433FB09E687F0D2F7A42CCB35F0FC19CC
:101C030008E687F0A42BCC35F0FBE433FD0819E696
:101C130087F0D2E7A42C4ACB35F0CD3400FC09E69B
:101C230087F0D2E7A42DCC35F0FDE433FA0918E6AA
:101C330087F0D2F7A42CCD35F0CA3400FC08E68730
:101C4300F0D2E7D2F7A42ACC35F07A7E20E70B0A4C
:101C5300CB33CBCD33CDCC33CC33CB335014700417
:101C6300ED30E00ED2F1E4CD3DCDCC3CCC3B500584
:101C7300DA05C2F1EB547FC63308E63392F0FBE793
:101C83003309E733C39A502D2B70190C0D4C4D704B
:101C9300151806E608C333700D20F10AA2F013F6F7
:101CA300E418800B4024E4F630F002768018F6182E
:101CB300F618F68024D33B14501074FFA2F013F6E9
:101CC300187680E418F618F6800FA2F013F618E6DB
:101CD3003303F618ECF618EDF6D0E0FDD0E0FCD0B7
:101CE300E0FBD0E0FA22121ABF6046121AB0603D40
:101CF300E9687008F618F618F618F622748067F784
:101D0300121D1D090909748067F722121AB0601D9C
:101D1300121ABF7005191919801A121A88701F1226
:101D23001A9CC37003E6673319191940071818186A
:101D33002208080874FFF618F618F618F622121A85
:101D43009C6017121A7F702192F0121A7670195044
:101D53001720F014080808090909E7F61819E7F627
:101D63001819E7F61819E7F622121A7660E6E869F9
:101D7300701F0808E62480F608E436F618547FB48A
:101D83007F0CE654806007F6E418F618F62218185C
:101D930022E9C6CC08C6CD08C6CE08C6CFC0E0E847
:101DA300C0E0EAC0E0EBC0E009E9F809E7FA09E7B7
:101DB300FBE6F918E6F8C3EC98ED99EE9AEBC2E767
:101DC300F5F0EFC2E795F0500E600CEBCFFBEACED7
:101DD300FAE9CDF9E8CCF8EAA2E7D2E7FAEB33FB6C
:101DE30013F5F0EEA2E7D2E7FEEF33FFC5F013A23F
:101DF300E730E601B313C5F0C3C0E0C0F07F00C312
:101E03009BFB605E9418600F401D14601AD0E023A2
:101E1300F9D0E0F8021EEF8AF0E9486003D2F0E45B
:101E2300AFF0FAF9F8803BEB30E40D89F0EA600398
:101E3300D2F0E4AFF0F9CAF8EB30E30D88F0EF60CD
:101E430002D2F0AFF0E4CAC9F8EB54076014FBC345
:101E5300EA13FAE913F9E813F8EF135002D2E0FF9B
:101E6300DBEDD0E0C0E030E739C3E49FFFF5F0ECF1
:101E730098FC42F0ED99FD42F0EE9AFE42F0D0E07C
:101E8300F9D0E0F8E5F0607AE923F9EE20E742D8EB
:101E9300028067C3EF33FFEC33FCED33FDEE33FE1B
:101EA30080EAEC28FCED39FDEE3AFED0E023F9D0D0
:101EB300E0F84002801BC3EE13FEED13FDEC13FCB0
:101EC300EF135002D2E0FF08B800067F7F74FF8053
:101ED3002EEF3350178CF020F00260100CBC000C76
:101EE3000DBD00080EBE000408E860DFE933E81307
:101EF300FFEE2313FE4F4D4C8008E95480FFE4FEB0
:101F0300FDFCEE33EF33F47004FCFD7E80D0E0FB88
:101F1300D0E0FAD0E0F8D0E0CFC618CEC618CDC6D0
:101F230018CCC6F922121AB0700418181822121A03
:101F3300BF700D74FFF61819F61819F61819F62262
:101F4300E7548066F6121A76700F121A7F70F01437
:101F5300F608F608F608F680D1121A7F700CF60818
:101F6300F608768008E6447F80EC121A9F700C1204
:101F73001A8B60BFE65480F6E480BB121A8B70059F
:101F830019191980A5E869700C763F18768018F640
:101F930018F6E8F922E6CDC0E018ECC0E0E633CD50
:101FA30033CDD313F6E719FCE7191933CC33C394B4
:101FB3007F400ECD9D502408E65480F6E418F68049
:101FC3000FF4043D14501408E6447FF6187680E4B9
:101FD30018F618F6D0E0FCD0E0FD22CCD313CCFDEC
:101FE30018E4C6CBC0E018E4C6CAC0E00808ED0890
:101FF300C633E613F618E433C675F003C3CA97CAAB
:1020030009CB97CB199C40047D08802EBD000302A9
:1020130020D116B6FF050606081618C3CA33CACB65
:1020230033CB33CA27CA09CB37CB193CC37D0880CE
:102033003E187D0820E75CC633C6CA33CACB33CB10
:1020430033DDF1D5F0EB30E77BCA97CA09CB974A6A
:10205300CB199C406F4B7025E620E0218066187DEC
:1020630008C3CA97CA09CB97CB199CD3C633C6CA30
:1020730033CACB33CB3350C9DDE7D5F0E1D3E4C664
:1020830036C608C636C608C636C608C636C61818C3
:10209300188031C3CA97CA09CB97CB199CB3409711
:1020A300C633C6CA33CACB33CB33DD34D5F02EC6E1
:1020B300A2E0C640C8CA27CA09CB37194A70BECBAB
:1020C3003CB480B90808E63308E633601F181818D3
:1020D300D0E0FAD0E0FBD0E0FCD0E0FD22187D0890
:1020E300CA27CA09CB37CB193CD3808013F618E42F
:1020F300B67F11F618B6FF0EF618C60470D208089C
:10210300768080CAF618F618F680C5080808EAC073
:10211300E0EBC0E086F0E7A4FA180986F0E7A42A0A
:10212300FA180986F0E7A42AFA180986F0E7A42A20
:10213300FA1986F0E7A4FBE5F02AFA190886F0E716
:10214300A42BFBE5F03AFA190886F0E7A42BFBE58C
:10215300F03AFA18180986F0E7A4C5F02BFBE43A25
:10216300FA1908E7C5F0C6A426F6E5F03BFBE43A06
:10217300FA1886F0E7A4F6E5F00826F6E43B08F63D
:10218300E43A08F6D0E0FBD0E0FA22E4CFC0E0E482
:10219300CEC0E0E4CDC0E0E4CCC0E075F020E6269C
:1021A300F608E633F608E633F608E633F6181818A9
:1021B300EC33FCED33FDEE33FEEF33FFC3EC970955
:1021C300ED9709EE9709EF97191919400FFFEC974F
:1021D300FC09ED97FD09EE97FE191906D5F0BFEC42
:1021E300F709EDF709EEF709EFF7191919D0E0FC34
:1021F300D0E0FDD0E0FED0E0FF22181818E4C3962B
:10220300F608E496F608E496F608E496F6226016D5
:10221300080808C6C313C618C613C618C613C618BB
:10222300C613C6D5E0EA227009080808226016180A
:102233001818C6C333C608C633C608C633C608C68D
:1022430033C6D5E0EA22E627F60809E637F6080999
:10225300E637F60809E637F622E026F608A3E03665
:10226300F608A3E036F608A3E036F622E026F008E7
:10227300A3E036F008A3E036F008A3E036F022C36B
:10228300E697F60809E697F60809E697F60809E6D9
:1022930097F622C3E0C696F608A3E0C696F608A30F
:1022A300E0C696F608A3E0C696F622C3E096F008C9
:1022B300A3E096F008A3E096F008A3E096F022E6E8
:1022C30057F60809E657F60809E657F60809E657E8
:1022D300F622E056F608A3E056F608A3E056F60801
:1022E300A3E056F622E056F008A3E056F008A3E078
:1022F30056F008A3E056F022E066F608A3E066F67F
:1023030008A3E066F608A3E066F622E0F608A3E079
:10231300F608A3E0F608A3E0F622E6F008A3E6F049
:1023230008A3E6F008A3E6F022E0FAA3E0FBA3E0AB
:10233300FCA3E0FD22EAF0A3EBF0A3ECF0A3EDF0A5
:1023430022E0F8A3E0F9A3E0FAA3E0FB22E8F0A37C
:10235300E9F0A3EAF0A3EBF022CAC0E0E6F0A30899
:10236300DAFAD0E0FA22CAC0E0E0A3C582CCC58283
:10237300C583CDC583F0A3C582CCC582C583CDC536
:1023830083DAE6D0E0CA22C3E498F8E499F9122389
:10239300CB8026C3E49AFAE49BFBE920E7E9122306
:1023A300CBE498F8E499F922C3E498F8E499F91294
:1023B30023CBE498F8E499F9C3E49AFAE49BFB226B
:1023C300EB20E7CFE920E7E0B90010BB0008E88A7B
:1023D300F084F8AAF022E4FBC8FA22EB70227B1007
:1023E300C833C8C933C9335007C39AC3DBF2800665
:1023F3009A50012ADBEAC833F4C8C933F4C9FA2274
:1024030075F008E4C833C8C933C933C99AC99B50A6
:1024130004C92AC93BD5F0ECFBC833F4C8E4C9FAB4
:1024230022600D08C6A2E713C618C613C6D5E0F38B
:1024330022600C08C6C313C618C613C6D5E0F4221F
:10244300700422600D18C6C333C608C633C6D5E070
:10245300F41822251810AF08F518400C1519800838
:10246300F51840021519D2AF2200C0D0251810AFBD
:1024730008F518500C05198008F51850020519D2F3
:10248300AFD0D0222518F58210AF08F518400C15EF
:10249300198008F51840021519D2AF851983222532
:1024A30018F582E43519F583222518F8E43519F96E
:1024B300222518FAE43519FB222518FCE43519FD09
:1024C30022E4732518C582C0E0E51934FFC583C033
:1024D300E0E518C3958224F810AF08858319858237
:1024E300188008858319858218D2AFCEF0A3E52022
:1024F300F0A37808E608F0A3DEFAEFF0A3E5812461
:10250300FAF8E608F0A3E608F0A3E608F0A3080843
:10251300E608F0A3E608F0A315811581D0E0FED00C
:10252300E0F8158115811581E8C0E0EEC0E02225B1
:1025330018C582C0E0E51934FFC583C0E0E518C3C0
:10254300958224F910AF0885831985821880088540
:102553008319858218D2AFCEF0A3E520F0A37808C3
:10256300E608F0A3DEFAEFF0A3E58124FBF8E60822
:10257300F0A3E608F0A30808E608F0A3E608F0A332
:1025830015811581D0E0FED0E0F815811581E8C0F2
:10259300E0EEC0E022851983851882E0A3FEE0A364
:1025A300F5207808E0A3F608DFFAE0A3FFE0A3C074
:1025B300E0E0A3C0E0E0A3C0E0E0A3C0E0E0A3C08C
:1025C300E010AF08858218858319800885821885F5
:1025D3008319D2AFD083D08202011F851983851856
:1025E30082E0A3FEE0A3F5207808E0A3F608DFFA73
:1025F300E0A3FFE0A3C0E0E0A3C0E0E0A3C0E0E00D
:10260300A3C0E010AF0885821885831980088582EE
:1026130018858319D2AFD083D08222C0D02518C5A4
:1026230082C0E0E51934FFC583C0E0E518C3958295
:1026330024F310AF088583198582188008858319D0
:10264300858218D2AFC8F0A3E9F0A3EAF0A3EBF0B8
:10265300A37908E709F0A3D8FAECF0A3EDF0A3EE11
:10266300F0A3EFF0A3D0E0F0A3D0E0F0A3D0E0F02C
:10267300A3E520F0A3E5F0F0A32285198385188252
:10268300E0C0E0A3E0F9A3E0FAA3E0FBA37808E04D
:10269300F608A3DFFAE0FCA3E0FDA3E0FEA3E0FF5E
:1026A300A3E0C0E0A3E0C0E0A3E0F5D0A3E0F52001
:1026B300A3E0A3F5F010AF0885831985821880087D
:1026C300858319858218D2AFD082D083D0E0F8D029
:1026D300E03274048006740280027401C0E0F404E2
:1026E300122487D0E012235C2274048004740280D5
:1026F30000CCC0E0EDC0E0E518C39CCCAD1950019F
:102703001D10AF068C188D1980068C188D19D2AF49
:10271300122369D0E0FDD0E0FC22D083D082E9C04F
:10272300E0E493A3C386F0C5F095F0F908E493A31E
:1027330086F0C5F095F0700BE493A3C3994005E9C7
:10274300048002A3E475F002A42582F582E5F03546
:1027530083F583D0E0F9E493A3C0E0E493C0E022DF
:10276300D083D082ECC0E0EDC0E0E493A3FCE4931B
:10277300A3FDED4C600D1227AFEC24FFFCED34FFFD
:10278300FD80EFE493A3FCE493A3FDED4C600D12F5
:1027930027EEEC24FFFCED34FFFD80EFD0E0FDD00D
:1027A300E0FCE493A3C0E0E493C0E022C0E0C3E410
:1027B3009396087401939618400FE4936670080883
:1027C300740193661870007019A3A3C3E493960869
:1027D3007401939618A3A3400DD0E0D0E0D0E0029B
:1027E300279FA3A3A3A3A3A3D0E022C0E0C0F088A4
:1027F300F0E4936670080874019366187000A8F0FB
:10280300A3A3700BD0F0D0E0D0E0D0E002279FA3C9
:06281300A3D0F0D0E0228A
:10281C0074F5122532EAFEEBFFEE2434F8EF3400A7
:10282C00F988088909EE2435F582EF3400F583E048
:10283C00F8EE2437F582EF3400F583E0F50AEC85E9
:10284C000AF0A4FCAAF0850AF0EDA42AFDE82CF805
:10285C00E43DF97A257B001223CBEA8508828509B1
:10286C0083F0F8740758F97401B900028004C3337B
:10287C00D9FCFAE8131313541FF8EE28F8EF3400C0
:10288C00F9E8245DF582E93400F583E05A6008EE3E
:10289C002434F582EF802CEE2434F582EF3400F5ED
:1028AC0083E0C0E0EE2436F582EF3400F583E0F5EA
:1028BC00F0D0E084A8F0EE28F8EF3400F9E82438E2
:1028CC00F582E93400F583E0F97F040225DE74F526
:1028DC00122532EAFEEBFFEE2434F582EF3400F5DC
:1028EC0083E0C0E0EE2435F582EF3400F583D0E0D0
:1028FC00F08E828F83A3A3A3A3A3A3A3C082C083C0
:10290C008E828F83A3A3A3A3A3E0F8A3E0F9D083C3
:10291C00D082E0C398F508A3E099F509EE247FF581
:10292C0082EF3400F583E064017069EE2480F58257
:10293C00EF3400F583E0F8A3E0F98E828F83A3A334
:10294C00A3A3A3A3A3E0FCA3E0FD8E828F83A3A388
:10295C00A3A3A3E0FAA3E0FBC3EA9CEB9D5010C336
:10296C00EC98ED99402EC3EA98EB995027800EC352
:10297C00EA98EB994007C3EC98ED9940177CDC7D05
:10298C0004EEFAEFFB120E67EE247FF582EF3400B3
:10299C00F583E4F0EE2434F8EF3400F9E8FCE9FDBB
:1029AC00EE2435F582EF3400F583E0F8EE2437F5AC
:1029BC0082EF3400F583E0F50AE508850AF0A4F50A
:1029CC0008AAF0850AF0E509A42AF509E82508F813
:1029DC00E43509F97A257B001223CBEA8C828D83AE
:1029EC00F0F8740758F97401B900028004C333D9A4
:1029FC00FCFAE8131313541FF8EE28F8EF3400F91F
:102A0C00E8245DF582E93400F583E05A6008EE2491
:102A1C0034F582EF802CEE2434F582EF3400F5830C
:102A2C00E0C0E0EE2436F582EF3400F583E0F5F0FB
:102A3C00D0E084A8F0EE28F8EF3400F9E82438F55B
:102A4C0082E93400F583E0F91233310228D5C082D3
:102A5C00C083851882851983E0F8A3E0F9C3EA9C4A
:102A6C00EB9D5010C3EC98ED99401BC3EA98EB9981
:102A7C005014800EC3EA98EB994007C3EC98ED997B
:102A8C004004790180027900D083D08222EAC39C71
:102A9C00FAEB9DFB2274EF1225329003A2E064083E
:102AAC006005E06407702A9061C8E060249003D050
:102ABC00E0F4601DE0F875F003A4C8AAF02AF974DC
:102ACC00D228FE740339FF8E828F83A3A3A3E070F8
:102ADC0003022BD1906060E0C0E0EE2468F582EF39
:102AEC003400F583D0E0F0750C45750D05750800C4
:102AFC00750900E5D914F50AE5D95403F50E6017EC
:102B0C007403650E605CE50A6010EE2467F582EFD5
:102B1C003400F583E07003022BB6900540E06401AD
:102B2C00602AEE2482F582EF3400F583E0600478AD
:102B3C000480027800850A08E508C398FA95E0FB42
:102B4C00120D1D8A088B09EA45097005121059806F
:102B5C0074EE2482F582EF3400F583E070048A0C65
:102B6C008B0DE50A6012850C82850D83F50BE5D97A
:102B7C00F0A3150BE50B70F6EE2482F582EF340012
:102B8C00F583E0604474FC250AF50A780C1226D90A
:102B9C00AC0AA90EEEFAEFFB120F03740212246CAE
:102BAC00E97026AA08AB0912174F793D8E828F83E4
:102BBC00A3A3A3A3E0FA7B00120BF1EEFAEFFB1236
:102BCC000E7F120F15790080747403650E605685A4
:102BDC000A1075110078101226D9AC0CAD0DAA088C
:102BEC00AB09120EDF740212246CEE2468F582EF2E
:102BFC003400F583E064807004747F8001E0F50C90
:102C0C00780C1226DDE50EF50C780C1226DDA90ADF
:102C1C00AC08AD099003D0E0FA7B00120BB574023E
:102C2C0012246C80139003A2E06408600BAC0CAD12
:102C3C000DEEFAEFFB120F6F12106579017F0A028D
:102C4C0025DE74F512253274FC122456EAFEEBFFD5
:102C5C008908A2AFE433F509C2AF806AEE2463F8A9
:102C6C00EF3400F97A007B00A2AFE433F50AC2AF6F
:102C7C0088828983E0FCA3E0FDEC4D603A88828970
:102C8C0083E0FAA3E0FB8A828B83E0FCA3E0FD885F
:102C9C00828983ECF0A3EDF08A828B83E4F0A3F0BD
:102CAC0088828983E0FCA3E0FDEC4D700A88828960
:102CBC0083A3A3E4F0A3F0E50AA2E092AF12174FAE
:102CCC009004E3E004F0EE2463F582EF3400F58326
:102CDC00E0F8A3E0F9E849603DEE2463F582EF34B7
:102CEC0000F583E02402FAA3E03400FBEA2402F5A9
:102CFC000AEB3400F50B780A1226D98A828B83E012
:102D0C00FCA3E0F9EEFAEFFB120EA3740212246C92
:102D1C00E97003022C689004E3E060639004E4E043
:102D2C00F89004E3E0C398500C740265087050905E
:102D3C0004E5E0604A8E828F83A3A3A3A3E08518E9
:102D4C0082851983F0A3E4F09004E3E0F874021296
:102D5C0024A2E8F0A3E4F09004E3E0F89004E2E0AD
:102D6C0028F074021224A2AC82AD838518828519D6
:102D7C0083AA82AB837901120BC19004E3E4F0E5E2
:102D8C0009A2E092AF740412246C0228D500000052
:102D9C008521878522C622C0E0C0D0E8C0E0E9C00A
:102DAC00E0EAC0E0EBC0E0ECC0E0EDC0E0EEC0E07B
:102DBC00C008C009C00AC00BC082C083C0F0A2AF5B
:102DCC00E433FEC2AF759B00906182E0A2E050122A
:102DDC00E591A2E0500C7591FE740165217003120F
:102DEC002AA1E0A2E55051E591A2E5504B7591DF87
:102DFC009003A2E064076005E06408702374016529
:102E0C0021703579019003D0E0FA75F003A4CAA8BB
:102E1C00F028FB74D22AFA74033BFB122C4E801858
:102E2C00E0640D70139003C4E004F064287002E4B5
:102E3C00F07A00E0F912106B906182E0A2E6400398
:102E4C00022EEAE591A2E64003022EEA7591BF90AC
:102E5C0003A2E064057008120F99120FA5800312EB
:102E6C000F9F752100120FF9E99003A3F07900125E
:102E7C000FED120DD17A017B009003A1E0F9121431
:102E8C0079907803E064427055900544E014F0703A
:102E9C004DC2AF122EA200782AD0E0F618D0E0F680
:102EAC00E59F540770057509FF800375097FC4C041
:102EBC00E07829E6F50808E65509F509740B780859
:102ECC00122434D0E02508F8906270E0A2E740F8B4
:102EDC00E8C333906272F0906270E0D2E0F09061DF
:102EEC0081E0A2E35009E5E9A2E3500375E9F7A3F9
:102EFC00E0A2E75009E591A2E7500375917FEEA29D
:102F0C00E092AFD0F0D083D082D00BD00AD009D0D1
:102F1C0008D0E0FED0E0FDD0E0FCD0E0FBD0E0FA41
:102F2C00D0E0F9D0E0F8D0D0D0E032C0E0C0D0C0D2
:102F3C0082C083906183E0A2E05009E5BFA2E0501B
:102F4C000375BFFEE0A2E15009E5BFA2E150037595
:102F5C00BFFDE0A2E25009E5BFA2E2500375BFFB42
:102F6C00E0A2E35009E5BFA2E3500375BFF7E0A26E
:102F7C00E45009E5BFA2E4500375BFEFE0A2E550B1
:102F8C0009E5BFA2E5500375BFDFE0A2E65009E5F5
:102F9C00BFA2E6500375BFBFD083D0828088C0E04B
:102FAC00C0D0E8C0E0E9C0E0EAC0E0EBC0E0ECC0B3
:102FBC00E0EDC0E0C0F0E5A7A2E6500FE5A1A2E667
:102FCC00500953A7BF75A1BF12300FE5A7A2E5505A
:102FDC000CE5A1A2E5500653A7DF75A1DFE5A7A27A
:102FEC00E15009E5A1A2E1500375A1FDE5A7A2E21C
:102FFC00500CE5A1A2E2500653A7FB75A1FBD0F043
:10300C00022F2074F81225327521019003A2E0647E
:10301C00067015120F338A828B83A3A3A3A3A3A3D9
:10302C00E0FAA3E0FB120F87A2AFE433FED2AF901D
:10303C0003A8E0640170187A207B009003A1E0F9EA
:10304C0012151B7A207B009003A1E0F912147F90DB
:10305C006182E0D2E6F0900541E0602185C62280D5
:10306C00169003A7E064017008E5C654F84405F512
:10307C00C653BEFC122D9C7401652160E4EEA2E0E7
:10308C0092AF7F010225DE008E238F248582288556
:10309C008327851882851983E0CEA3E0CF8528820B
:1030AC00852783EBC9EAC8EDCBECCA75F010C3E8F1
:1030BC0033C8E933C9EA33CAEB33CBC3EA9EF526EE
:1030CC00EB9FF525B35004AB25AA26EC33CCED339E
:1030DC00CDD5F0DAAE23AF242274ED1225328A0856
:1030EC008B098C0A8D0B74131224A2780C12230EEC
:1030FC007808790C1219267510017511C875120013
:10310C0075130050127808790C1222827810790805
:10311C0012192650168010780C7908122282781019
:10312C00790C12192640047901800279007F0C0277
:10313C0025DE74ED1225328A088B098C0A8D0B74EE
:10314C00131224A2780C12230E780C79081219266B
:10315C0040117808790C122282AA08AB09AC0AAD8E
:10316C000B80227510007511007512007513017813
:10317C0010790C12228278107908122249AA10AB0D
:10318C0011AC12AD1380A68A828B837508FF75096A
:10319C00FF750AFF750B0078081222E87F040225E0
:1031AC00DE74F51225328C828D83780812230E8AF8
:1031BC00828B8378081222AEEA2404F8EB3400F9EF
:1031CC008C828D83A3A3A3A3E0FCA3E0FD8882895A
:1031DC0083C3E09CF0A3E09DF088828983C3E094D4
:1031EC0020A3E0944E40268A828B837508FF7509D4
:1031FC00FF750AFF750BFF780812226F8A828B838A
:10320C00A3A3A3A3E02420F0A3E0344EF002319357
:10321C0074F5122532E9FE9004F7E0FAA3E0FBEE18
:10322C00C333F8E433F974BD28F582748039F5831F
:10323C00E02AF508A3E03BF50978081226D97A4074
:10324C007B427C0F7D00123094740212246C8A082D
:10325C008B098C0A8D0B74107808122211AA08ABFA
:10326C00097F040225DE74F11225328A0C8B0D8C39
:10327C000E8D0F740F1224A2E0FAA3E0FB7411124E
:10328C0024A2E0F508A3E0F50978081226D9EA246F
:10329C0001F508EB3400F509E4F50AF50B780C7927
:1032AC000812210E750871750902780C7908122123
:1032BC000EAA0CAB0DAC0EAD0F123094740212248E
:1032CC006C8B09EA450960047A0180027A00EC2AC9
:1032DC00FCED3400FD74131224A2E0F8A3E0F9E82D
:1032EC00FEE9FFECF8EDF97A717B021223CB88082A
:1032FC0089098E828F83780812231DECF8EDF97AF8
:10330C00717B021223CB8A088B097405780812246E
:10331C00438E828F83A3A3A3A3E508F0A3E509F052
:10332C007F080225DEC082C083E9906000F0D08364
:10333C00D08222C2AF02000022C0E074F212261E1C
:10334C00A2AFE433FED2AFE589A2E150031216FB23
:10335C00758900C2C5EEF8EEA2E092AF7F0102269D
:10336C007DC0E074F212261EA2AFE433FED2AFE5AC
:10337C008BA2E050031216FB758B00C2E8EEF8EE40
:10338C00A2E092AF7F0102267DC0E0C0D0E8C0E091
:10339C00E9C0E0A2AFE433F8D2AFC2C7E8F9E8A2C3
:0E33AC00E092AFD0E0F9D0E0F8D0D0D0E0321F
:1033BC00FFFFFFFFFFFFFFFF74F01224C674F8122B
:1033CC0024568A0E8B0FE9FF8C0C8D0D7E00850E1A
:1033DC0008850F09780812271D000410A9360C3433
:1033EC002F344E3471349434B734E8340B352235E1
:1033FC0052350A362D3650367E36A936A9367B35EF
:10340C0074016F7019850C82850D83E0C394035091
:10341C000D850C82850D83E09014C5F080027E181A
:10342C000236D174026F7015850C82850D83E0F81D
:10343C00A3E0F99014C6E8F0A3E9F080027E18022C
:10344C0036D174016F7019850C82850D83E0C3949D
:10345C0002500D850C82850D83E0900EBFF080022A
:10346C007E180236D174016F7019850C82850D831C
:10347C00E0C39405500D850C82850D83E0900EC041
:10348C00F080027E180236D174016F7019850C829F
:10349C00850D83E0C39402500D850C82850D83E06D
:1034AC00900EC1F080027E180236D174106F702716
:1034BC0075081075090078081226D9AC0CAD0D7A78
:1034CC00C27B0E12141F740212246C8A088B09859D
:1034DC00088285098380027E180236D174016F70D0
:1034EC0019850C82850D83E0C39402500D850C82E6
:1034FC00850D83E0900ED2F080027E180236D174D6
:10350C00016F700D850C82850D83E09014C9F080DD
:10351C00027E180236D174046F70269081E0780810
:10352C0012230E850C82850D8378081219365011E2
:10353C00850C82850D83122344900ED41223508067
:10354C00027E180236D1EF7021120963E970131252
:10355C00162FE9F50879501217D9E9F50912161D3D
:10356C00800A900F677401F080027E180236D174C5
:10357C00076F600302360575080675090078081296
:10358C0026D9850C82850D83A3AC82AD837404127D
:10359C0024B4121425740212246C851882851983A4
:1035AC00EAF0A3EBF07C007D0074021224B4850CCD
:1035BC0082850D83E0F91215C3E9F50AE50AC39477
:1035CC000A5032120963E97015A90A121635E9F589
:1035DC000879501217D9E9F50912161D801D850AB4
:1035EC000875090074682508F582740F3509F58390
:1035FC007401F080067E0280027E180236D17401BE
:10360C006F7019850C82850D83E0C39402500D8573
:10361C000C82850D83E0900ED3F080027E1802366A
:10362C00D174016F7019850C82850D83E0C3940AE7
:10363C00500D850C82850D83E09014C8F080027EBD
:10364C00180236D174016F7025850C82850D83E0CC
:10365C00C394074019850C82850D83E0C3941150E7
:10366C000D850C82850D83E09014CAF080577E186E
:10367C00805374016F7022900F66E0F508850C8200
:10368C00850D83E0900F66F0E5087039900F66E0C9
:10369C006401703112161D802C7E188028C3E50E33
:1036AC009427E50F9400501B74026F7016850C82E2
:1036BC00850D83E0FCA3E0FDAA0EAB0F120801E917
:1036CC00FE80027E02EEF9740812246C7F0802253B
:1036DC009874F01224C674D7122456E9C0E08518E9
:1036EC0082851983D0E0F074011224A2EAF0A3EBD6
:1036FC00F08C0E8D0F90817C74031224BC74061216
:10370C00236974031224BC74011224A2E0FAA3E00E
:10371C00FB851882851983E0F91215C3E9FEEEC307
:10372C00940A400302386AEEF91215FFE9FF90146F
:10373C00C5E064027004740180027400F508780816
:10374C001226DD743A1224A2E0FDEFFCEEF9AA0E6B
:10375C00AB0F121671740112246C7C147D0079006D
:10376C0074151224B41214378A088B0985080A853B
:10377C00090B74151224BC7A1075F006EEA42424DF
:10378C00F91217D3E9703B7C1079FF74151224B42D
:10379C00121497E9702C74251224A2AC82AD837A92
:1037AC000475F006EEA42425F91217D3E9F5087474
:1037BC00151224BCEFA2E0E433F9AA0EAB0F1208E9
:1037CC008BE974091224BC7A0C74702EF91217D37D
:1037DC00E9707974091224B41215F3750800E50820
:1037EC00C394045067E508F87900E875F003A4C8A1
:1037FC00AAF075F000A42AFA75F003E9A42AF9746A
:10380C00091224A2E58228F50CE58339F50D850C07
:10381C0082850D83E0F8A3E0F9E849602B850C82E2
:10382C00850D83A3A3E0F50A750B00780A1226D93F
:10383C00850C82850D83E0FCA3E0FDAA0EAB0F1274
:10384C000AEF740212246CE905088092EFA2E15091
:10385C000D900EBEE0F9AA0EAB0F120AF5E9743901
:10386C001224A2E06404700F9014C5E06402700787
:10387C00AA0EAB0F12166B7900742912246C7F08F8
:10388C0002259874F21224C6890B8A088B09ECFE67
:10389C00EDFF750A0AE50B600B1460081460411407
:1038AC00605F807CAA08AB09121611E9F50AE50ADB
:1038BC00C3940A506BEE4F6067750C06750D00785B
:1038CC000C1226D9AC08AD09EEFAEFFB12141F74DA
:1038DC000212246C8A0C8B0D850C82850D83804022
:1038EC00AA08AB0912160BE9F50AE50AC3940A50AB
:1038FC002FEE4F602BEEFAEFFBA90A121605E980AA
:10390C001FAA08AB09121617E9F50AE50AC3940AAF
:10391C00500EEE4F600AEEFAEFFBA90A121605E9FB
:10392C00A90A7F0602259874F21224C68A0C8B0D04
:10393C00E9FF7E1574FF650C700474FF650D702A29
:10394C00750800E508C3940A5014EFFC7A027B005A
:10395C00A9081215E1E960027E00050880E5EF6018
:10396C00627A597B16120CFF8059AA0CAB0D120C03
:10397C00E18A088B0985080A85090BE50A450B6065
:10398C00407C007D00E50A2405FAE4350BFB850A32
:10399C0082850B83A3A3A3A3E0F91215C3E9F50851
:1039AC00E508C3940A500EEFFC7A027B00A90812BA
:1039BC0015E1E97E00EF600BAA0AAB0B12165980D9
:1039CC00027E14EEF97F0602259874F01224C67458
:1039DC00FE122456851882851983EAF0A3EBF08C2D
:1039EC000A8D0B74121224A2E0F50EA3E0F50F7EE3
:1039FC0015851882851983E064FF7004A3E064FFC9
:103A0C00701D7F00EFC3940A506BAC0EAD0FAA0A69
:103A1C00AB0BEFF91215E7E960027E000F80E5852C
:103A2C001882851983E0FAA3E0FB120CE18A0C8B57
:103A3C000D850C08850D09E508450960367C007D6F
:103A4C0000E5082405FAE43509FB8508828509831D
:103A5C00A3A3A3A3E0F91215C3E9FFEFC3940A5083
:103A6C0014AC0EAD0FAA0AAB0BEFF91215E7E97EF9
:103A7C000080027E14EEF9740212246C7F08022579
:103A8C009874F71224C6EAFEEBFF900ED8EEF0A362
:103A9C00EFF0900EBEE0FC7D007A267B0012080150
:103AAC00E9F508900EBEE0F9120A6B7F0102259829
:103ABC0074F21224C674EC1224568A0A8B0B850AF3
:103ACC0082850B83A3A3E024FA7003023F0024FD3C
:103ADC007003023D78147003023BAC14601024FD9B
:103AEC007003023D20147003023DBB023F6EAE0A10
:103AFC00AF0B900ED8E0F8A3E0F9E8496066900EA1
:103B0C00D8E0F8A3E0F5838882E0F8A3E0F9E8496F
:103B1C006052EE240CF582E43FF583E0F50878085A
:103B2C001226DDEE240BF582E43FF583E0F98E825C
:103B3C008F83A3A3A3A3A3A3A3A3A3E0FCA3E0FD50
:103B4C00EE2403FAE43FFB900ED8E0F8A3E0F583F3
:103B5C008882E0F8A3E0F58388821224C4740112F1
:103B6C00246C80398E828F83A3A3A3A3A3A3A3A3C6
:103B7C00A31226F0900ED412232C12089D7402125C
:103B8C00246CE9601879018E828F83A3A3A3A3A36D
:103B9C00A3A3A3A3E0FAA3E0FB120897E9023F6EEC
:103BAC00AE0AAF0B8E828F83A3E06003023CCE8EF5
:103BBC00828F83A3A3A3A3A3E0A2E04003023CCE85
:103BCC00900F72E0F8A3E0F9E8496003023CCE7C68
:103BDC000E7D007900AA18AB191214378A088B09CC
:103BEC00AA08AB09EE240CF582E43FF583E0F8A3B8
:103BFC00E0F9E84960367508067509007808122660
:103C0C00D9EE240CF582E43FF583E02410FCA3E00C
:103C1C003400FD74021224B412141F740212246CAA
:103C2C008A088B09850882850983804F8E828F8351
:103C3C00A3A3A3E0FAA3E0FB120CE18A0C8B0D8585
:103C4C000C08850D09E5084509602D750C06750DE8
:103C5C0000780C1226D9E5082405FCE43509FD741E
:103C6C00021224B412141F740212246C8A0C8B0DD1
:103C7C00850C82850D838003023F6E8E828F83A319
:103C8C00A3A3A3A3E0A2E25004D2F08002C2F0A24C
:103C9C00F0E433F87900740C1224A2E048F0A3E0AD
:103CAC0049F0EEFCEFFDAA18AB191215F9E97012E8
:103CBC007A027B00900EBEE0F9121479E9790002C9
:103CCC003F70900ED8E0F8A3E0F9E8496043900EFD
:103CDC00D8E0F8A3E0F5838882A3A3E0F8A3E0F989
:103CEC00E849602D8E828F83A3E0FC79018E828F50
:103CFC0083A3A3A3E0FAA3E0FB900ED8E0F8A3E023
:103D0C00F5838882A3A3E0F8A3E0F58388821224CC
:103D1C00C4023F6EAE0AAF0B900ED8E0F8A3E0F9E8
:103D2C00E8496045900ED8E0F8A3E0F5838882A3BB
:103D3C00A3E0F8A3E0F9E849602F850A82850B839C
:103D4C00A3E0FC79028E828F83A3A3A3E0FAA3E005
:103D5C00FB900ED8E0F8A3E0F5838882A3A3E0F8EB
:103D6C00A3E0F58388821224C4023F6E850A08857D
:103D7C000B097C007D00E5082404FAE43509FB8579
:103D8C000882850983A3A3A3E0F91215C3E9FEEE0B
:103D9C00C3940A5017E508240AFCE43509FD7A049B
:103DAC0075F006EEA42425F91217CDE9023F6EAE8C
:103DBC000AAF0B900ED3E060189014C8E0F98E8215
:103DCC008F83A3A3A3E0FAA3E0FB120897E9023FB9
:103DDC006E9014C5E0701579058E828F83A3A3A312
:103DEC00E0FAA3E0FB120897E9023F6E8E828F8304
:103DFC00A3A3A3E0FAA3E0FB120CE18A0C8B0D85C4
:103E0C000C08850D098E828F83A3A3A3A3A3A3A360
:103E1C00E0A2E05071E508450960688508828509D3
:103E2C0083A3A3A3A3E0605E8E828F83A3A3A3A32B
:103E3C00A3A3A3A3A3E0F8A3E0F9E8C4540FF87973
:103E4C0000E85401F8E95400F9E8A2E04038740E97
:103E5C001224BCE5082405FAE43509FB85088285A3
:103E6C000983A3A3A3A3E0F91215C3E9701879037E
:103E7C008E828F83A3A3A3E0FAA3E0FB120897E939
:103E8C00023F6E023F6EEE2405FCE43FFD85088286
:103E9C00850983A3A3A3A3E0F98E828F83A3A3A395
:103EAC00E0FAA3E0FB121665900ED8E0F8A3E0F957
:103EBC00E849603E900ED8E0F8A3E0F5838882A331
:103ECC00A3E0F8A3E0F9E84960287C0079008E8231
:103EDC008F83A3A3A3E0FAA3E0FB900ED8E0F8A392
:103EEC00E0F5838882A3A3E0F8A3E0F5838882122F
:103EFC0024C4806E120963E97068900F67E0640156
:103F0C00701A12162FE9FE900F677400F07C0A7D70
:103F1C000079007A687B0F121437803C7E00EEC368
:103F2C00940A50348E0875090074682508F582745B
:103F3C000F3509F583E06401701BEEF9121635E9B3
:103F4C00F88E0875090074682508F582740F350918
:103F5C00F5837400F00E80C679501217D9E9FE1261
:103F6C00161D7901741412246C7F0602259874F3C3
:103F7C001224C674F21224568908EAFEEBFF8C094F
:103F8C00AC18AD197A0E75F006E508A42420F912C8
:103F9C0017D3E970647C0679FFAA18AB1912149731
:103FAC00E97056740C1224A2E0F8A3E0F9E8F50CC1
:103FBC00E5096005EE420C8004EEF4520C850C0A07
:103FCC00750B00740C1224A2E0650A7004A3E06562
:103FDC000B6022E50CF87900740C1224A2E8F0A313
:103FEC00E9F0AC18AD197A0E75F006E508A424209A
:103FFC00F91217CDE9790180027900740E12246C44
:10400C007F0502259874F01224C674E61224568992
:10401C00098A0E8B0FECFEEDFF740C1224BC7A0E89
:10402C0075F006E509A42420F91217D3E960030200
:10403C0041417C0679FF740C1224B4121497E96088
:10404C0003024141AC18AD197A0C74702509F912B0
:10405C0017D3E9600302413D750800AA18AB191289
:10406C0015F3E50E450F702E7C0C7900AA18AB19D0
:10407C00121497E960030241237C0C7D007900AA9D
:10408C0018AB191214378A0A8B0B850A82850B839D
:10409C00750801024123AC18AD19AA0EAB0F12150D
:1040AC00ED8A0C8B0D850C0A850D0BE50A450B7002
:1040BC0030EE4F601BAC18AD197A007B001215ED79
:1040CC008A0C8B0DA80CA90D880A890BE849700481
:1040DC0079008063850A82850B83E50EF0A3E50FDA
:1040EC00F0850A82850B83A3A3E0F87900EE687053
:1040FC0002EF696022EEC0E0850A82850B83A3A3E0
:10410C00D0E0F0EE4F700D850A82850B837400F0C1
:10411C00A37400F0750801E5086016AA18AB191213
:10412C0015F3AC18AD197A0C74702509F91217CD6A
:10413C00E9790180027900741A12246C7F08022537
:10414C009874F71224C6EAFEEBFF7B00EBC39404D1
:10415C00504EEBF87900E875F003A4C8AAF075F09E
:10416C0000A42AFA75F003E9A42AF9EC28F582EDEB
:10417C0039F583E06E7003A3E06F7021EBF87900E2
:10418C00E875F003A4C8AAF075F000A42AFA75F03B
:10419C0003E9A42AF9EC28FAED39FB80070B80AC73
:1041AC007A007B007F0102259874F71224C67F00E9
:1041BC00EFC394044003024264EFF87900E875F011
:1041CC0003A4C8ACF075F000A42CFC75F003E9A4B2
:1041DC002CF9EA28F582EB39F583E0F4FCA3E0F442
:1041EC00FDEFF87900E875F003A4C8AEF075F000A7
:1041FC00A42EFE75F003E9A42EF9EA28F582EB391A
:10420C00F583ECF0A3EDF0EFF87900E875F003A47A
:10421C00C8ACF075F000A42CFC75F003E9A42CF9E3
:10422C00EA28F582EB39F583A3A3E0F4C0E0EFF8BC
:10423C007900E875F003A4C8ACF075F000A42CFC70
:10424C0075F003E9A42CF9EA28F582EB39F583A380
:10425C00A3D0E0F00F0241BC7F0102259874F0124C
:10426C0024C674F4122456EAFEEBFF8C088D0990D8
:10427C000F72E0F8A3E0F9E849702CEE4F6006E508
:10428C0008450970057901024515EEFAEFFB121687
:10429C0011E99014CBF09014CBE0C3940A400812AF
:1042AC001623E99014CBF09014CBE0C3940A40038E
:1042BC00024513900F72E0F8A3E0F9E8496003029D
:1042CC00435FEEFCEFFD7A0E75F0069014CBE0A484
:1042DC002420F91217CDE9F50B7C0C7D0079FFAA8F
:1042EC0018AB191214378A0C8B0D850C0E850D0F1B
:1042FC00AC18AD197A0C9014CBE02470F91217CDD0
:10430C00E9F50A750C0E750D00780C1226D9EEFC29
:10431C00EFFD9014CBE0F87900E875F00EA4C8AA74
:10432C00F075F000A42AFA75F00EE9A42AF974DAF3
:10433C0028FA740E39FB12141F740212246C8A0CA6
:10434C008B0DA80CA90D900F72E508F0A3E509F0F0
:10435C0002450F900F72E0F8A3E0C82406F582C85E
:10436C003400F583E0F8A3E0F9E8496043900F725C
:10437C00E0F8A3E0C82406F582C83400F583E0FC1D
:10438C00A3E0FD7A1B75F0069014CBE0A42421F970
:10439C001217CDE9F8900F72E0F9A3E0C92406F5E5
:1043AC0082C93400F5837400F0A37400F002450F49
:1043BC00900F72E0F8A3E0C8240AF582C83400F527
:1043CC0083E0F8A3E0F9E8496043900F72E0F8A3AA
:1043DC00E0C8240AF582C83400F583E0FCA3E0FDB4
:1043EC007A1B75F0069014CBE0A42422F91217CD99
:1043FC00E9F8900F72E0F9A3E0C9240AF582C934F8
:10440C0000F5837400F0A37400F002450F900F7256
:10441C00E0F8A3E0C8240CF582C83400F583E0F87A
:10442C00A3E0F9E8496043900F72E0F8A3E0C824D8
:10443C000CF582C83400F583E0FCA3E0FD7A10751E
:10444C00F0069014CBE0A42423F91217CDE9F890D0
:10445C000F72E0F9A3E0C9240CF582C93400F5838E
:10446C007400F0A37400F002450F900F72E0F8A3F3
:10447C00E0C82408F582C83400F583E0F8A3E0F91D
:10448C00E849606F900F72E0F8A3E0C82408F58249
:10449C00C83400F583E0FCA3E0FD7A1075F00690BB
:1044AC0014CBE0A42424F91217CDE9F50A900F726D
:1044BC00E0F8A3E0C82408F582C83400F583E024B2
:1044CC0010FCA3E03400FD7A0475F0069014CBE0E8
:1044DC00A42425F91217CDE9F8900F72E0F9A3E0A6
:1044EC00C92408F582C93400F5837400F0A3740064
:1044FC00F08010900F66E0600312167712165F7949
:10450C00018006790080027901740C12246C7F08FA
:10451C0002259874F71224C674F2122456E9FEACE4
:10452C0018AD197A0E75F006EEA42420F91217D3E3
:10453C00E9700E740C1224A2E0F8A3E0F9E8F980FB
:10454C00027900740E12246C7F0102259874F41207
:10455C0024C674F21224568909EAFEEBFFE509C35E
:10456C00940A5004EE4F700479028041AC18AD19D6
:10457C007A0E75F006E509A42420F91217D3E9F593
:10458C0008E5087026750A06750B00780A1226D9FC
:10459C0074021224BCEEFAEFFB12141F74021224E4
:1045AC006C8A0A8B0B850A82850B83A908740E1200
:1045BC00246C7F0402259874F41224C6EAFEEBFFE7
:1045CC00750800E508C3940A5044750A06750B007B
:1045DC00780A1226D9EEFCEFFDE508F87900E875AB
:1045EC00F00EA4C8AAF075F000A42AFA75F00EE932
:1045FC00A42AF974E028FA740E39FB1214317402EF
:10460C0012246CE96004A9088006050880B5790AB3
:10461C007F0402259874F41224C6EAFEEBFF750899
:10462C0000E508C3940A5044750A06750B00780A15
:10463C001226D9EEFCEFFDE508F87900E875F00ECE
:10464C00A4C8AAF075F000A42AFA75F00EE9A42A01
:10465C00F974DA28FA740E39FB121431740212242C
:10466C006CE96004A9088006050880B5790A7F0406
:10467C0002259874F71224C674F0122456EAFEEB45
:10468C00FF750800E508C3940A5039AC18AD197AC7
:10469C001075F006E508A42423F91217D3E970204D
:1046AC007C1079FFAA18AB19121497E97012EEFC62
:1046BC00EFFDAA18AB1912086DE97004A908800661
:1046CC00050880C0790A741012246C7F01022598A9
:1046DC0074F41224C6750800E508C3940A4003025A
:1046EC0047BAE508F87900E875F00EA4C8AAF07589
:1046FC00F000A42AFA75F00EE9A42AF974DA28FC61
:10470C00740E39FD7A0E75F006E508A42420F91212
:10471C0017D3E970030247B57C067D0079FFE508E5
:10472C00FA7B00EA75F00EA4CAA8F075F000A42874
:10473C00F875F00EEBA428FB74DA2AFA740E3BFB26
:10474C001214378A0A8B0BAE0AAF0B7C067D0079EC
:10475C00FFE508FA7B00EA75F00EA4CAA8F075F024
:10476C0000A428F875F00EEBA428FB74E02AFA7468
:10477C000E3BFB1214378A0A8B0BAC0AAD0BE50807
:10478C00F87900E875F00EA4C8AAF075F000A42A18
:10479C00FA75F00EE9A42AF974E628F582740E393C
:1047AC00F5837400F0A37400F005080246E4900F42
:1047BC0066E0600312167712165F7F040225987468
:1047CC00F71224C67E00EEC3940A50327C0679FFA1
:1047DC00EEFA7B00EA75F00EA4CAA8F075F000A4FE
:1047EC0028F875F00EEBA428FB74DA2AFA740E3B49
:1047FC00FB121497E96004EEF980050E80C8790A63
:10480C007F0102259874F71224C67E007F00EFC347
:10481C00940A502F7C0679FFEFFA7B00EA75F00EB4
:10482C00A4CAA8F075F000A428F875F00EEBA42823
:10483C00FB74DA2AFA740E3BFB121497E970010E22
:10484C000F80CBEEF97F0102259874F71224C67EF7
:10485C00007F00EFC3940A500DEE700AEFF91216A8
:10486C0035E9FE0F80EDEEF97F0102259874F01208
:10487C0024C674C9122456E9FE9014CBE06E701D48
:10488C007A017B00900EBEE0F912147FE97A027B6C
:10489C0000900EBEE0F912147FE9121683742912EF
:1048AC0024BC7A0E75F006EEA42420F91217D3E975
:1048BC0060030249AD7C0679FF74291224B41214EA
:1048CC0097E960030249AD7C0E7D0079FF742912D3
:1048DC0024B4121437851882851983EAF0A3EBF0FF
:1048EC007C1B7D0079FF740E1224B41214378A0AD3
:1048FC008B0B850A0E850B0F7C0C7D0079FF7402E7
:10490C001224B41214378A0C8B0D850C0A850D0BEE
:10491C0074291224BC7A0E75F006EEA42420F91228
:10492C0017CDE9F508740E1224BC7A1B75F006EE4F
:10493C00A42421F91217CDE94208740E1224BC7A72
:10494C001B75F006EEA42422F91217CDE942087467
:10495C000E1224BC7A1075F006EEA42423F912175B
:10496C00CDE94208740E1224BC7A1075F006EEA440
:10497C002424F91217CDE94208740E1224BC7A04CF
:10498C0075F006EEA42425F91217CDE9420874023D
:10499C001224BC7A0C74702EF91217CDE9420880DF
:1049AC0003750800A908743712246C7F0802259837
:1049BC0074F71224C6E9FEEE900EBEF012161D7F9F
:1049CC000102259874F21224C6890AEAFEEBFFEE66
:1049DC005400F8EF5480F9E8496035900EBEE0F9C8
:1049EC001214618A0C8B0DA80CA90D88088909E892
:1049FC00496012AA08AB09121647E96008AA08AB6D
:104A0C000912144FE9EE6400FAEF6480FB024AD4F9
:104A1C00EE5402602D7C007D007A007B001215F9AB
:104A2C00E960187A017B00900EBEE0F9121479E966
:104A3C00EE6402FAEF6400FB024AD47A027B0002B5
:104A4C004AD4EEA2E0507D900F72E0F8A3E0F5831B
:104A5C008882A3A3A3E0FAA3E0FB12167DE9605EB3
:104A6C00900ED8E0F8A3E0F9E8496045900ED8E044
:104A7C00F8A3E0F5838882A3A3E0F8A3E0F9E84962
:104A8C00602F7C007901900F72E0F8A3E0F5838829
:104A9C0082A3A3A3E0FAA3E0FB900ED8E0F8A3E076
:104AAC00F5838882A3A3E0F8A3E0F583888212241F
:104ABC00C4121683EE6401FAEF6400FB800A7A01DB
:104ACC007B0080047A007B007F0602259874F71225
:104ADC0024C6EAFEEBFF7508018E828F83E024501A
:104AEC00601314601924E1701CEEFAEFFB1215DB55
:104AFC00E9F5088010EEFAEFFB12164D8007EEFA7E
:104B0C00EFFB121653A9087F0102259874F71224A3
:104B1C00C6EAFEEBFF8E828F83A3A3A3A3E0641EE1
:104B2C00701179008E828F83A3A3E0FAA3E0FB12AD
:104B3C0015C9E97F0102259874F61224C68A088BE0
:104B4C0009850882850983A3A3A3A3E07034AE086A
:104B5C00AF098E828F83A3A3A3A3A3A3A31226F0D2
:104B6C008E828F83A3A3A3A3A3E0FCA3E0FD8E827C
:104B7C008F83A3A3E0FAA3E0FB1215CF74021224D7
:104B8C006CE97F0202259874F71224C6EAFEEBFF4B
:104B9C00900EBEE0F98E828F83A3E0FAA3E0FB12A5
:104BAC000AF5E97F01022598C082C08374FF1224A4
:104BBC0056121629E9C39402400B85188285198375
:104BCC007402F08009851882851983740AF0AC1878
:104BDC00AD197A01790512097BE9740112246CD0A4
:104BEC0083D08202011F74F21224C674E812245678
:104BFC008A088B09E9FE8C0A8D0B7C187D007900E4
:104C0C00AA18AB191214378A0C8B0DAC0CAD0D8590
:104C1C001882851983E508F0A3E509F0900EC0E031
:104C2C00C0E074021224A2D0E0F0900EC1E0C0E00B
:104C3C0074031224A2D0E0F09014CAE0C0E0741700
:104C4C001224A2D0E0F074151224A2E054FEF8A3B2
:104C5C00E054FFF99014C9E0A2E0E433FA7B00E8D9
:104C6C004AF8E94BF974151224A2E8F0A3E9F09084
:104C7C0014C9E0A2E15004D2F08002C2F074151203
:104C8C0024A2E054FDFAA3E054FFFBA2F0E433F8B5
:104C9C007900E828F8E933F9EA48F8EB49F9741592
:104CAC001224A2E8F0A3E9F09014C9E0A2E35004A6
:104CBC00D2F08002C2F074151224A2E054F7FAA3C9
:104CCC00E054FFFBA2F0E433F50C750D007403788F
:104CDC000C122443EA450CF8EB450DF9741512241B
:104CEC00A2E8F0A3E9F09014C9E0A2E45004D2F0D9
:104CFC008002C2F074151224A2E054EFFAA3E0541F
:104D0C00FFFBA2F0E433F50C750D007404780C1263
:104D1C002443EA450CF8EB450DF974151224A2E86E
:104D2C00F0A3E9F09014C9E0A2E55004D2F080029F
:104D3C00C2F074151224A2E054DFFAA3E054FFFB76
:104D4C00A2F0E433F50C750D007405780C122443B5
:104D5C00EA450CF8EB450DF974151224A2E8F0A302
:104D6C00E9F09014C9E0A2E25004D2F08002C2F043
:104D7C0074151224A2E054FBFAA3E054FFFBA2F03A
:104D8C00E433F50C750D007402780C122443EA45DB
:104D9C000CF8EB450DF974151224A2E8F0A3E9F018
:104DAC00900EC1E0602A750C10750D00780C12265F
:104DBC00D97CC27D0E74061224A2AA82AB83121473
:104DCC001F740212246C8A0C8B0D850C82850D834A
:104DDC00900ED2E06011EE600E74151224A2E04425
:104DEC0002F0A3E04400F0900ED2E0600678017966
:104DFC000080047800790074141224A2E048F0902A
:104E0C000EBFE060067804790080047800790074A5
:104E1C00141224A2E048F0AC0AAD0BAA18AB19127C
:104E2C000891E9741812246C7F0602259874F71205
:104E3C0024C6EAFEEBFF750800900ED2E0600678FF
:104E4C00017900800478007900E84208900EBFE0F8
:104E5C00600678047900800478007900E84208A99B
:104E6C0008EEFAEFFB12094BE97F0102259874F268
:104E7C001224C674E31224568A0C8B0DE9FF8C0A9B
:104E8C008D09742B1224A2E0F50874086509700AC8
:104E9C0075F006EFA42422FE800875F006EFA4241A
:104EAC0021FE7C1B7D00790074021224B41214378D
:104EBC00851882851983EAF0A3EBF074021224BCE6
:104ECC007A1BEEF91217D3E97038741C1224A2E085
:104EDC00C39407402D741C1224A2E0C394115022D9
:104EEC00E508F50B780B1226DD74031224BCE50AD9
:104EFC00A2E0E433F9AA0CAB0D1208A3740112243E
:104F0C006CE9741D12246C7F0602259874F7122428
:104F1C00C6120B6DE97E00EEC3940A50557C0679DF
:104F2C00FFEEFA7B00EA75F00EA4CAA8F075F0004B
:104F3C00A428F875F00EEBA428FB74DA2AFA740E88
:104F4C003BFB121497E97027EEF87900E875F00E28
:104F5C00A4C8AAF075F000A42AFA75F00EE9A42AE8
:104F6C00F974DA28FA740E39FB7900120B73E90E16
:104F7C0080A57F0102259874F61224C674FD1224B4
:104F8C0056EAFEEBFF900F74E0F8A3E0F9E84970E5
:104F9C003975087675090F78081226D975080275C7
:104FAC00090078081226D975083575098278081217
:104FBC0026D97CFF7DFF7A017B001209BD74061295
:104FCC00246C900F74EAF0A3EBF0900F74E0F8A34C
:104FDC00E0F9E84970030250A0E4F508F5097808F7
:104FEC001226D974041224AC880889097808122670
:104FFC00D974041224AC8808890978081226D9902F
:10500C000F761226F07902900F74E0FCA3E0FDEE0F
:10501C00FAEFFB120AE3740812246CE9704A851843
:10502C0082851983E0FA7B0074011224A2E0F879DE
:10503C0000E4C8F9EA28F508EB39F509E508450953
:10504C00602678081226D9900F74E0F8A3E0F58357
:10505C008882A3A3A3A3E0FCA3E0FDEEFAEFFB126E
:10506C0015CF740212246CE9E4F508F509780812DE
:10507C0026D9900F761226F07CFF7DFF900F74E0FE
:10508C00FAA3E0FB1209C9740412246C900F74EAA1
:10509C00F0A3EBF0900F74E0F8A3E0F9E84970048A
:1050AC00790180027900740312246C7F0202259826
:1050BC00C082C083900F72E0F8A3E0F9E849601752
:1050CC00900F72E0FAA3E0FB12144FE9F8900F7204
:1050DC007400F0A37400F09014CB740AF0D083D059
:1050EC008202011F74F01224C674E3122456890F35
:1050FC00E50F900D37F01213BF121293121311D249
:10510C0087900D36E0C2E0F01213C574161224B469
:10511C001213E974161224B41214C11214A97508CE
:10512C000178081226DD7900C9FEC91214AFCEF938
:10513C00CE121557740112246C7C027D007A1F7BF1
:10514C0000120801E9C0E074111224A2D0E0F0743E
:10515C00061224A27401F0740F1224A27401F0A39D
:10516C007400F074051224A27400F0740D1224A2C1
:10517C007496F0A37400F0740B1224A27490F0A334
:10518C007401F074091224A27403F0A37400F07477
:10519C00071224A274FAF0A37400F074061224BC53
:1051AC0079017A057B031217DFE9740F1224BC799D
:1051BC00027A067B031217DFE97C2E7D1279197AAD
:1051CC00087B031217DFE97C477D1279097A077B8C
:1051DC00031217DFE974051224BC79017A107B03E2
:1051EC001217DFE9740D1224BC79027A117B0312B9
:1051FC0017DFE9740B1224BC79027A127B031217A5
:10520C00DFE974091224BC79027A137B031217DFCD
:10521C00E974071224BC79027A147B031217DFE9B4
:10522C0074041224A27401F074041224BC79017A5F
:10523C000A7B031217DFE97C427D0D7A1479001288
:10524C00097BE97E207F03EEFCEFFD7A067B0012E2
:10525C000801E9EEFCEFFD7A077B00120801E9EE8C
:10526C00FCEFFD7A087B00120801E9EEFCEFFD7AF9
:10527C00097B00120801E97A007B007C007D007438
:10528C00121224A2EAF0A3EBF0A3ECF0A3EDF0745D
:10529C00031224A27401F074021224A27401F0749B
:1052AC00011224A27400F08518828519837401F010
:1052BC0074121224BC79047A087B041215B7E974B1
:1052CC00031224BC79017A007B041215B7E974022D
:1052DC001224BC79017A027B041215B7E97401120D
:1052EC0024BC79017A037B041215B7E9AC18AD190B
:1052FC0079017A067B041215B7E99081EC12232C04
:10530C00120981E99081EC12232C120A8FE91215F3
:10531C0063E99081EC12232C121851E99081EC1264
:10532C00232C12182DE99081EC12232C12157BE9F9
:10533C007A5A7B121217F17A587B12121857E9F528
:10534C000E7A547B12121581E9F50D7A567B1212E6
:10535C001833E9F50C7901120B97E97902120B91CC
:10536C00E97901120B8BE97A017B00900D37E0F99A
:10537C00121479E91214AF8A088B098C0A8D0B90E0
:10538C0081F0780812225CAA08AB09AC0AAD0B902C
:10539C000D5AEAF0A3EBF0A3ECF0A3EDF0741D12A0
:1053AC00246C7F0802259874F21224C6890AEAFE3E
:1053BC00EBFFEE5400F8EF5480F9E8496032900DA1
:1053CC0037E0F91214618A0C8B0DA80CA90D880812
:1053DC008909E849600FAA08AB091212BDAA08ABEB
:1053EC000912144FE9EE6400FAEF6480FB0254BA20
:1053FC00EEA2E050377A507B121217EBE9F5087ADF
:10540C00567B0D1215D59081AC1226EC7A027B00DE
:10541C00900D37E0F912150F740412246CE9121276
:10542C00CFEE6401FAEF6400FB0254BAEE54026052
:10543C00259081AC1226EC7A047B00900D37E0F9B4
:10544C0012150F740412246CE91212DBEE6402FACA
:10545C00EF6400FB8058EE540460259081AC12265A
:10546C00EC7A087B00900D37E0F912150F740412DA
:10547C00246CE912172BEE6404FAEF6400FB802E07
:10548C00EE540860259081AC1226EC7A027B0090D9
:10549C000D37E0F912150F740412246CE912153F44
:1054AC00EE6408FAEF6400FB80047A007B007F0650
:1054BC0002259802011F74F41224C674FA122456A1
:1054CC008A0A8B0B8C088D0974121224A2E0FEA39D
:1054DC00E0FFE50AC0E0851882851983D0E0F0A8CA
:1054EC000AA90BE4C9F8E8C0E074011224A2D0E0C8
:1054FC00F0E508C0E074021224A2D0E0F0A808A9DC
:10550C0009E4C9F8E8C0E074031224A2D0E0F0EE7C
:10551C00C0E074041224A2D0E0F0EEF8EFF9E4C974
:10552C00F8E8C0E074051224A2D0E0F0AC18AD1974
:10553C007A06790012155DE9740612246C7F040258
:10554C00259874F61224C674EE122456E9FEEE1455
:10555C00601014700302564C24FD70030256420274
:10556C005653AC18AD197A047B031217E5E985186C
:10557C0082851983E0C0E074061224A2D0E0F07496
:10558C00011224A2E0C0E074071224A2D0E0F0744F
:10559C00021224A2E0C0E074081224A2D0E0F0743D
:1055AC000A1224A27400F074091224A27400F0747C
:1055BC00051224A2E0C0E0740D1224A2D0E0F07415
:1055CC00041224A2E0C0E0740C1224A2D0E0F07407
:1055DC00031224A2E0C0E0740B1224A2D0E0F074F9
:1055EC00061224BC7A087900121569E9750806754B
:1055FC00090078081226D974021224BC74101224E3
:10560C00B412141F740212246CA818A919880889E2
:10561C000978081226D9790A74101224A212232CA4
:10562C0012143D740212246CAC18AD197A0A79026A
:10563C00121569E980161212CF7902121725800C07
:10564C00790312172580057900121725EE900D3875
:10565C00F0741212246C7F02022598C082C083124F
:10566C0014AF90122A122338D083D08202011F74F7
:10567C00F41224C61214AF900D3E122338900D3E36
:10568C00C082C08390122AC082C083901228E0F599
:10569C0008A3E0F509E4F50AF50BD083D08278086D
:1056AC0012225CD083D0827808121946400479010A
:1056BC00800279007F0402259874F41224C6121219
:1056CC009FE9900D5EF0900D3E780812230E90121B
:1056DC005C7808122296900D3A780812231D7508F2
:1056EC000475090078081226D97C3A7D0D7ACC7B9A
:1056FC000C12141F740212246C7CBF7D0C7A14796A
:10570C0002121587E91213D77C607D127A14790086
:10571C00121839E9900D0F7400F0900D107400F010
:10572C00900D117400F0900D127400F07508027554
:10573C00090078081226D97C8D7D0D7A0F7B0D120D
:10574C00141F740212246C75080275090078081273
:10575C0026D97C8F7D0D7A117B0D12141F740212C9
:10576C00246C900D39E0C4333354C0F8900D10E024
:10577C0048F075080175090078081226D97C5E7D01
:10578C000D7A227B0D12141F740212246C7C0F7D77
:10579C000D7A147906121587E9900D38E0640560CE
:1057AC00031212CF1212D5E960071217F7E9121281
:1057BC00CF7F0402259874F01224C674DB12245691
:1057CC00E9C0E074031224A2D0E0F074031224A206
:1057DC00E0601324FE6031147003025CA4147003A7
:1057EC00025CF5025CF5AA18AB197900121863E992
:1057FC00851882851983E064FE700AC2AF75C9AB47
:10580C0075C95B80FE025CF57A147B127902121862
:10581C0063E9901214E064FD60030258B69012150F
:10582C00E0FE901216E0FF75080475090078081266
:10583C0026D97C177D1274231224A2AA82AB831260
:10584C00141F740212246C75080275090078081272
:10585C0026D97C1B7D12741E1224B412141F7402E0
:10586C0012246C75080275090078081226D97C1D63
:10587C007D1274201224A2AA82AB8312141F74020C
:10588C0012246C90121FE0C0E074201224A2D0E00D
:10589C00F0741C1224A274091226F4EEFAEFF91219
:1058AC001263740912246C025CF5901214E064FE0D
:1058BC00700912128D121293025CF5901214E064AE
:1058CC00B2703875080475090078081226D97C1551
:1058DC007D12740E1224B412141F740212246C74F0
:1058EC000C1224A212232C1213EF740C1224A212E9
:1058FC00232C1214A91212CF025CF5901214E0643E
:10590C00B1703E7C007D007E007F0074081224A2E2
:10591C00ECF0A3EDF0A3EEF0A3EFF074081224BCAE
:10592C0079027AD47B031215AB74081224BC790269
:10593C007AB47B031215AB7A007B001213A7025CBE
:10594C00F5901214E064B07034901215E0F50AE58D
:10595C000A7003750A017E007F00850A087509002C
:10596C00C3EE9508EF9509A2D265D0334003025CD3
:10597C00F579021217430EEE70E00F80DD901214D1
:10598C00E064DD70517C007D007E007F00740412A9
:10599C0024A2ECF0A3EDF0A3EEF0A3EFF07404124C
:1059AC0024BC79027AD47B031215AB74041224BC88
:1059BC0079027AB47B031215AB7A007B001213A721
:1059CC0074041224BC7A04798B1217CDE9121731A6
:1059DC00121311025CF5901214E064DB705D750813
:1059EC000475090078081226D97C157D12741A12D8
:1059FC0024B412141F740212246C1212ED8A088B38
:105A0C00098C0A8D0B74181224A2780812191170C3
:105A1C0015900D147401F07C0F7D0D7A147906121B
:105A2C001587E9025CF5900D147400F07C0F7D0D68
:105A3C007A147906121587E9025CF5901214E06469
:105A4C00DE70379081E474141224BC740412236940
:105A5C007E007F0075080175090078081226D9743C
:105A6C00161224BCEEFAEFFB1216C5740212246C4B
:105A7C00C2AF75C9AB75C95B80FE901214E064DCD3
:105A8C0070237C157D127A13798D1217CDE979016B
:105A9C001217431213BF7C427D0D7A137900120941
:105AAC007BE9025CF5901214E064DF6003025B4555
:105ABC001213178A088B0985080A85090B850A8237
:105ACC00850B83E0F509850A82850B83A3A3A3E0EC
:105ADC00FEE5097006EE7003025CF5901215E0A26B
:105AEC00E0E433FF901215E0A2E15004D2F0800202
:105AFC00C2F0A2F0E433F508EF600D7900908190CC
:105B0C0012232C1218AB800B790090819012232C4D
:105B1C001218B1EE7003025CF5E508600E79009086
:105B2C00819012232C1218B7025CF57900908190A9
