:020000040000FA
:06000000020107022113BA
:03002B0002255259
:0300330002253B68
:0300530002218601
:03006B000225214A
:10008300021F7FE5C754F84401F5C7790122000038
:100093000080FB120086B900030200F1E4792178A5
:1000A30008B800028004F709D8FCE479297802B87B
:1000B30000028004F709D8FCE490028178B979073B
:1000C3008002F0A3D8FCD9FA7A397B0990013778FA
:1000D3000279048015E493A3AD82AE838A828B8375
:1000E300F0A3AA82AB838D828E83D8E9D9E7758288
:1000F300C275839F7403120119758291758300740D
:100103000012011975D00075813F751881751902A8
:10011300759F00020096C09FF59FE473D09F22D085
:1001230083D082C09FE493C0E0740193C0E0740263
:1001330093F59F22FF0000B4000028002800283018
:1001430075A000A000A000A00000080008E001F0D6
:10015300001000100010001000100010005000509C
:1001630000500010001000D0070000000000000F36
:100173000001000500307507001000010081FF0039
:10018300000000FF360654063C06FF020202080286
:100193005000A0000000E8030258820100003E82E4
:1001A3000254820100009009024E82010000B30252
:1001B3000254820100009109024482010000C90235
:1001C3000254820100009209024682010000CB0220
:1001D3000254820100009309024882080000CC0205
:1001E3000254820100009409024A82010000950929
:1001F300FF0100FF20025882010000418202548265
:10020300010000F909024C82000000000002508244
:100213000300001903060C060C060C060C060C065C
:100223000C060C060C060C060C060C060C060C88B9
:100233000EA00E820EFFFF0202020202020202025F
:10024300010D0000001001025882010000D181025B
:1002530054820100003C0A027E820100005D070215
:1002630054820100003D0A0264820100006A810297
:1002730054820100003E0A026682010000418102AD
:1002830054820100003F0A026882010000BB800221
:100293005482010000400A026C82010000A980021E
:1002A3005482010000410A026E82010000DF8002D5
:1002B3005482010000420A027082010000CD8002D4
:1002C3005482010000430A0272820100004F81023E
:1002D3005482010000440A025C82010000450A01C5
:1002E300E803053F100AFF00013075030201060011
:1002F30000000000000000000000000000000000FB
:100303000000000000000000000000FFFF06008066
:100313000CE803140953696D706C65424C455065D4
:10032300726970686572616C051250002003020ADD
:10033300000201060302F0FF53696D706C652042F1
:100343004C45205065726970686572616C8A120051
:100353000090121A43686172616374657269737401
:100363006963203100024368617261637465726975
:100373007374696320320008436861726163746552
:100383007269737469632033001043686172616337
:10039300746572697374696320340002436861721F
:1003A30061637465726973746963203500025882EE
:1003B3000100003B82025482010000580B02768246
:1003C3000300001709025282010000590B025482F4
:1003D3000100006A0B0278820100002B090252829D
:1003E3000100006B0B0254820100007C0B027A8235
:1003F3000200002C090252820100007D0B0254828C
:100403000100008E0B027C820000002D0902508245
:100413000300002E090252820100008F0B02548256
:10042300010000A00B026A82040000340902528218
:10043300010000A10B1201228A9003120122A19054
:1004430003120122D290031201220D910312012201
:100453003791031201226191031201227891031251
:1004630001228F9103120122A69103120122CF913F
:1004730003120122E29103120122F89103120122D5
:100483000B9203120122329203120122BCA7021221
:100493000122C0A802120122F8A8021201221BA9FC
:1004A3000212012226A90212012249A902120122E3
:1004B30058AA021201222DAB02120122A8AB02128A
:1004C300012230AC021201226BAC02120122A2AC57
:1004D3000212012230AD0212012209AE02120122E0
:1004E30069AE0212012274AE02120122F3AE0212AD
:1004F3000122F6AE02120122F9AE0212012288AFE6
:10050300021201228BAF02120122BBAF021201229F
:10051300E5AF02120122D3B00212012285B1021209
:10052300012274DE021201229CDE02120122CADEC3
:100533000212012201DF021201225FDF02120122F5
:10054300AADF02120122F5DF0212012235E00212B4
:1005530001227BE002120122A9E00212012266E1DC
:100563000212012270E1021201227DE10212012234
:10057300B0E1021201227CE20212012288E202129D
:100583000122A0E202120122AAE202120122B29B7C
:1005930003120122C09B03120122D89B03120122E2
:1005A300F09B031201221ABA01120122C6BA0112E8
:1005B300012241BB0112012262BC011201229EBC35
:1005C3000112012247BD011201222EBE0112012296
:1005D30092BF01120122E9BF011201226AC0011276
:1005E30001225AC101120122A7C1011201222DC207
:1005F300011201225FC20112012273C401120122FE
:10060300B5C401120122D3C40112012256C501123D
:1006130001222AC601120122F2C6011201222AD2A4
:1006230002120122FDD202120122A6D302120122DA
:10063300F9D302120122A9D40212012235D50212E2
:10064300012221D60212012250D60212012263D7BF
:1006530002120122ABD70212012280D80212012218
:10066300BCD802120122D8D802120122759E0312AD
:1006730001220080031201221680031201223C8012
:100683000312012258810312012262810312012203
:100693009782031201228F83031201224DD9021282
:1006A30001227DDA02120122B0DA02120122FADA01
:1006B30002120122C1DC02120122AB6C00120122E0
:1006C300156D00120122746E00120122846E001255
:1006D3000122B16E00120122086F00120122B16FD4
:1006E30000120122B870001201228271001201224D
:1006F300E27200120122257300120122CA73001252
:1007030001221774001201223D74001201224B765C
:1007130000120122507600120122557800120122A4
:10072300A2780012012215790012012248790012E1
:100733000122EA7900120122937A00120122CB7A74
:1007430000120122CE7A00120122167B001201222E
:10075300567B00120122AD7B0012012220FD021202
:10076300012238FD0212012280FD0212012296FDB0
:1007730002120122DDFD02120122F1FE0212012208
:100783007EFF02120122C9FF02120122602500121C
:1007930001226C2500120122A72500120122EC255B
:1007A30000120122AC26001201223227001201227C
:1007B300972700120122C32700120122FC270012EF
:1007C30001223A2A001201221E2C00120122042EB9
:1007D30000120122472F001201229531001201223B
:1007E300A73200120122F233001201220235001255
:1007F30001221F35001201225A35001201227C35D5
:1008030000120122DF3500120122A03A0012012258
:10081300353B00120122863B00120122AD3B001240
:100823000122FF3B001201221D3C00120122773CF2
:1008330000120122603D00120122D63E0012012265
:100843005A3F00120122E1E702120122EBE70212F2
:1008530001222EE80212012249E802120122D9E8FC
:100863000212012201E9021201223EE902120122CF
:1008730075E9021201229EE90212012213EA021211
:10088300012228EA021201223DEA021201226EEA43
:100893000212012282EA02120122A7EA02120122B3
:1008A300E1EA021201220DEB0212012245EB0212D0
:1008B3000122C4EB021201220DEC0212012237ECD9
:1008C3000212012262EC02120122B9FE011201227C
:1008D300E99A02120122179B02120122659C02125D
:1008E3000122459D02120122649D02120122E19D13
:1008F30002120122249E021201227A9F0212012275
:100903003BA002120122C2A20212012263A302121D
:10091300012259A40212012256A502120122B0A6F5
:10092300021201223BA7021201225998031201224B
:10093300C298031201221699031201223D99031250
:1009430001226E99031201228AEC02120122F7ECB2
:10095300021201223EED0212012256EE0212012280
:1009630052EF0212012235F002120122F6B10212F5
:10097300012238B2021201220AB302120122E3B3A6
:1009830002120122DDB402120122BFB502120122BA
:1009930028B602120122DEB60212012252B7021257
:1009A3000122BEB702120122E7B70212012261B887
:1009B30002120122FAB8021201225FB902120122C5
:1009C30074B902120122BAB902120122D3B9021276
:1009D300012238BA021201223BBA02120122AA866C
:1009E30003120122D286031201221087031201226D
:1009F300CE87031201223588031201225188031284
:100A03000122798803120122A98803120122B888DE
:100A1300031201223589031201225B890312012289
:100A2300B8AA0112012296AC01120122C8AE01122A
:100A3300012204AF0112012231AF011201221BB0C6
:100A43000112012266B001120122B1B0011201228A
:100A5300C3B00112012203B10112012238B1011204
:100A6300012286B101120122B5B101120122D8B1CE
:100A73000112012225B201120122AAB2011201229E
:100A8300C4B40112012203B70112012244B70112B7
:100A93000122E6B80112012227B9011201229AB9F3
:100AA30001120122F0B901120122D48D0212012296
:100AB300D28E021201226B95021201228C9702122E
:100AC3000122579902120122BF9A02120122C13F49
:100AD30000120122704000120122B64000120122CE
:100AE300F641001201228C43001201220644001237
:100AF30001222144001201229C4400120122F645E6
:100B0300001201225647001201225C480012012202
:100B1300BD4900120122D64900120122344A0012B3
:100B23000122224B00120122554B00120122C54B18
:100B3300001201223F4C00120122894C00120122B3
:100B4300534D00120122284E00120122074F0012BA
:100B53000122924F00120122005000120122745010
:100B6300001201229F50001201225E510012012245
:100B7300C35200120122E05200120122FF5200125E
:100B83000122F053001201221554001201223F5496
:100B930000120122BA54001201221455001201223C
:100BA3007D56001201222B57001201226C570012AE
:100BB30001220080021201224E80021201225A8079
:100BC30002120122388102120122698102120122DA
:100BD3009A81021201221A82021201225282021205
:100BE3000122A48202120122E18202120122FE8466
:100BF300021201222487021201220F89021201220A
:100C0300F98A02120122552500120122A59601122A
:100C13000122D59601120122AE9D01120122339FBA
:100C23000112012230A50112012218A6011201228C
:100C330055A60112012278A601120122A9A60112CA
:100C43000122B2A601120122BCA601120122AAA707
:100C530001120122A0A8011201229C5700120122B5
:100C63009B5B00120122A15B00120122DC620012D5
:100C73000122F567001201229A7C00120122947D61
:100C830000120122087E00120122467E0012012278
:100C9300BA7E00120122337F001201223C7F001230
:100CA3000122487F001201225D7F001201229B7FF7
:100CB30000120122B17F00120122F7F00212012279
:100CC30004F1021201221EF1021201225DF102124D
:100CD30001229BF10212012200F20212012215F2FB
:100CE3000212012220F2021201222DF2021201222B
:100CF30044F20212012252F2021201225DF20212A6
:100D0300012269F20212012278F20212012283F215
:100D130002120122A6F2021201224DF30212012253
:100D23005DF30212012277F30212012294F30212FD
:100D33000122B0F302120122D5F302120122E0F3E1
:100D430002120122F5F30212012209F40212012216
:100D53006AF40212012270F40212012276F40212E2
:100D630001227CF40212012294F402120122C7F43C
:100D7300021201227CD70112012200D801120122A2
:100D8300AFD8011201220EDA011201222FDC011267
:100D930001221BDD0112012250DD0112012272DD4D
:100DA3000112012221DE0112012219E001120122A6
:100DB30042E001120122D4E00112012206E10112F4
:100DC300012213E1011201226AE10112012290E1E1
:100DD30001120122FDE30112012200E501120122A9
:100DE30058E5011201220BC90112012215CA011291
:100DF3000122FCCA0112012206CB0112012228CBD7
:100E03000112012234CB01120122CDCC01120122A5
:100E1300FCCC0112012218CE0112012271CE011263
:100E23000122D7CF01120122B6D00112012212D121
:100E3300011201227FD101120122BAD10112012232
:100E4300F9D101120122B2D401120122CCD4011230
:100E5300012258D50112012266D501120122BFD504
:100E630001120122CDD50112012240D60112012225
:100E7300A4D601120122EED6011201228BF3011234
:100E83000122ADF301120122D3F501120122E8F888
:100E93000112012200FA01120122B3FA0112012206
:100EA30095FB01120122449203120122699203125B
:100EB3000122DB9203120122B0CA02120122B9CA33
:100EC30002120122C2CA0212012299CB021201228A
:100ED3004ACD0212012280CD02120122BACD0212A2
:100EE3000122F0CD021201222ACE021201225ECE8D
:100EF300021201228ACE02120122D3CE0212012251
:100F03000DCF0212012256CF02120122AECF0212DE
:100F13000122E3CF021201223ED00212012278D035
:100F230002120122C9D002120122FFD002120122B1
:100F330039D10212012267D1021201228AD102128F
:100F430001223F9D031201226B9D03120122C69DC4
:100F530003120122D09D03120122E09D03120122FC
:100F63008FC20212012299C202120122D7C20212B7
:100F7300012220C3021201225AC302120122B4C366
:100F830002120122D5C30212012277C602120122E4
:100F930080C602120122D1C602120122FAC602122F
:100FA300012204C70212012270C70212012204C8DF
:100FB3000212012258C8021201228EC80212012213
:100FC30015C90212012255C9021201228DC902124A
:100FD30001229FC902120122BEC902120122C7C9FE
:100FE3000212012286CA02120122B89A03120122B6
:100FF3008B8E03120122C18E03120122F78E03127C
:101003000122509003120122F99E031201220F9F25
:1010130003120122199F03120122639F031201226B
:1010230044F5021201225DF50212012201F60212B9
:10103300012241F6021201225AF6021201228EF611
:1010430002120122DBF6021201220FF70212012221
:1010530051F702120122E596031201220E970312A1
:101063000122379703120122D29703120122149807
:1010730003120122998303120122BE830312012268
:10108300EA83031201225EA003120122828201126B
:101093000122E684011201229886011201228A8725
:1010A300011201220F88011201228D8801120122EF
:1010B300BA8801120122DE8B01120122588C01121F
:1010C3000122478D01120122818D01120122C18D5E
:1010D300011201227B8F01120122CE8F0112012204
:1010E300179001120122859001120122B79001127B
:1010F3000122CF9001120122E49101120122F49105
:1011030001120122249301120122469301120122AA
:101113007C93011201222195011201226095011293
:101123000122809601120122899C031201229A9CBA
:101133000312012215A00312012254A0031201225B
:1011430003A103120122EA9D03120122FA9D031255
:1011530001220C9E03120122729E03120122B499F2
:1011630003120122399A031201229F9A03120122C8
:101173007095031201229695031201220196031220
:101183000122529603120122AB9603120122A38974
:10119300031201220C8B03120122788B031201220A
:1011A300928B03120122AE8B03120122CF8B031207
:1011B300012214A103120122E993031201223E9496
:1011C30003120122AC94031201221C950312012283
:1011D300208C031201224A8C031201221F8D031259
:1011E3000122138E031201225FBA021201221CBBD9
:1011F3000212012257BB021201227FBB02120122FB
:10120300E1BB021201222DBC0212012286BC021292
:10121300012217BD0212012219BE02120122D6BFFA
:101223000212012258C002120122BDC00212012281
:10123300D4C002120122E4C10212012222C202120C
:101243000122A6E50112012230E901120122B8EAC6
:10125300011201220FEB011201222EEB01120122D6
:10126300ACEB011201224AED011201222EEE011212
:10127300012218F201120122E8F20112012231E3E4
:101283000212012264E50212012203E60212012284
:101293007FE70212012255F9021201229AF9021282
:1012A3000122B7F9021201226EFA02120122CCFACC
:1012B30002120122B1FB02120122E7FC02120122F7
:1012C300D2FF01120122A5A003120122DBA0031207
:1012D3000122E17F00E066701008A3E066700A084F
:1012E300A3E066700408A3E06622C3E7960809E753
:1012F300960809E7960809E79622C3E09608A3E053
:101303009608A3E09608A3E09622C008C3E096F5EA
:101313000808A3E096420808A3E096420808A3E061
:101323009645087001D3D00822080808EAC0E0EB0C
:10133300C0E086F0E7A4FA180986F0E7A42AFA18B1
:101343000986F0E7A42AFA180986F0E7A42AFA190D
:1013530086F0E7A4FBE5F02AFA190886F0E7A42B48
:10136300FBE5F03AFA190886F0E7A42BFBE5F03A1F
:10137300FA18180986F0E7A4C5F02BFBE43AFA192A
:1013830008E7C5F0C6A426F6E5F03BFBE43AFA18F5
:1013930086F0E7A4F6E5F00826F6E43B08F6E43A1F
:1013A30008F6D0E0FBD0E0FA22E4CFC0E0E4CEC000
:1013B300E0E4CDC0E0E4CCC0E075F020E626F6081A
:1013C300E633F608E633F608E633F6181818EC3376
:1013D300FCED33FDEE33FEEF33FFC3EC9709ED97DE
:1013E30009EE9709EF97191919400FFFEC97FC09BC
:1013F300ED97FD09EE97FE191906D5F0BFECF70935
:10140300EDF709EEF709EFF7191919D0E0FCD0E071
:10141300FDD0E0FED0E0FF226016080808C6C31323
:10142300C618C613C618C613C618C613C6D5E0EA2F
:10143300227009080808226016181818C6C333C694
:1014430008C633C608C633C608C633C6D5E0EA2283
:10145300E627F60809E637F60809E637F60809E647
:1014630037F622E026F608A3E036F608A3E036F6C0
:1014730008A3E036F622E026F008A3E036F008A33E
:10148300E036F008A3E036F022C3E697F60809E653
:1014930097F60809E697F60809E697F622C3E09659
:1014A300F008A3E096F008A3E096F008A3E096F016
:1014B30022E657F60809E657F60809E657F608093B
:1014C300E657F622E056F608A3E056F608A3E056E0
:1014D300F608A3E056F622E056F008A3E056F0081B
:1014E300A3E056F008A3E056F022E0F608A3E0F6E6
:1014F30008A3E0F608A3E0F622E6F008A3E6F00866
:10150300A3E6F008A3E6F022E0FAA3E0FBA3E0FCE5
:10151300A3E0FD22EAF0A3EBF0A3ECF0A3EDF022AD
:10152300E0F8A3E0F9A3E0FAA3E0FB22E8F0A3E9E3
:10153300F0A3EAF0A3EBF022CAC0E0E6F0A308DAD6
:10154300FAD0E0FA22CAC0E0E0A3C582CCC582C5C6
:1015530083CDC583F0A3C582CCC582C583CDC583A6
:10156300DAE6D0E0CA22C3E498F8E499F91215AA9E
:101573008026C3E49AFAE49BFBE920E7E91215AA63
:10158300E498F8E499F922C3E498F8E499F9121578
:10159300AAE498F8E499F9C3E49AFAE49BFB22EBF2
:1015A30020E7CFE920E7E0B90010BB0008E88AF0A4
:1015B30084F8AAF022E4FBC8FA22EB70227B10C85D
:1015C30033C8C933C9335007C39AC3DBF280069AC1
:1015D30050012ADBEAC833F4C8C933F4C9FA2275C7
:1015E300F008E4C833C8C933C933C99AC99B500446
:1015F300C92AC93BD5F0ECFBC833F4C8E4C9FA22C5
:10160300600D08C6A2E713C618C613C6D5E0F322B9
:10161300600C08C6C313C618C613C6D5E0F42270FF
:101623000422600D18C6C333C608C633C6D5E0F41A
:101633001822251810AF08F518400C15198008F565
:101643001840021519D2AF2200C0D0251810AF08D8
:10165300F518500C05198008F51850020519D2AF7A
:10166300D0D0222518F58210AF08F518400C1519B3
:101673008008F51840021519D2AF85198322251861
:10168300F582E43519F583222518F8E43519F92292
:101693002518FAE43519FB222518FCE43519FD2237
:1016A300E4732518C582C0E0E51934FFC583C0E0A3
:1016B300E518C3958224F810AF088583198582182D
:1016C3008008858319858218D2AFCEF0A3E520F078
:1016D300A37808E608F0A3DEFAEFF0A3E58124FA85
:1016E300F8E608F0A3E608F0A3E608F0A30808E686
:1016F30008F0A3E608F0A315811581D0E0FED0E041
:10170300F8158115811581E8C0E0EEC0E0222518A7
:10171300C582C0E0E51934FFC583C0E0E518C39571
:101723008224F910AF088583198582188008858380
:1017330019858218D2AFCEF0A3E520F0A37808E68E
:1017430008F0A3DEFAEFF0A3E58124FBF8E608F046
:10175300A3E608F0A30808E608F0A3E608F0A3153B
:10176300811581D0E0FED0E0F815811581E8C0E055
:10177300EEC0E022851983851882E0A3FEE0A3F57D
:10178300207808E0A3F608DFFAE0A3FFE0A3C0E0B7
:10179300E0A3C0E0E0A3C0E0E0A3C0E0E0A3C0E0BA
:1017A30010AF088582188583198008858218858380
:1017B30019D2AFD083D08202011F85198385188285
:1017C300E0A3FEE0A3F5207808E0A3F608DFFAE043
:1017D300A3FFE0A3C0E0E0A3C0E0E0A3C0E0E0A378
:1017E300C0E010AF088582188583198008858218A8
:1017F300858319D2AFD083D08222C0D02518C58269
:10180300C0E0E51934FFC583C0E0E518C395822421
:10181300F310AF088583198582188008858319859D
:101823008218D2AFC8F0A3E9F0A3EAF0A3EBF0A3C8
:101833007908E709F0A3D8FAECF0A3EDF0A3EEF0F2
:10184300A3EFF0A3D0E0F0A3D0E0F0A3D0E0F0A3A7
:10185300E520F0A3E5F0F0A322851983851882E043
:10186300C0E0A3E0F9A3E0FAA3E0FBA37808E0F665
:1018730008A3DFFAE0FCA3E0FDA3E0FEA3E0FFA3DF
:10188300E0C0E0A3E0C0E0A3E0F5D0A3E0F520A32F
:10189300E0A3F5F010AF08858319858218800885C9
:1018A3008319858218D2AFD082D083D0E0F8D0E0FC
:1018B3003274048006740280027401C0E0F40412DE
:1018C3001666D0E012153B22740480047402800073
:1018D300CCC0E0EDC0E0E518C39CCCAD1950011DB0
:1018E30010AF068C188D1980068C188D19D2AF1283
:1018F3001548D0E0FDD0E0FC22D083D082E9C0E0DF
:10190300E493A3C386F0C5F095F0F908E493A386A6
:10191300F0C5F095F0700BE493A3C3994005E90477
:101923008002A3E475F002A42582F582E5F03583F5
:10193300F583D0E0F9E493A3C0E0E493C0E022D0C0
:1019430083D082ECC0E0EDC0E0E493A3FCE493A376
:10195300FDED4C600D12198EEC24FFFCED34FFFD00
:1019630080EFE493A3FCE493A3FDED4C600D121907
:10197300CDEC24FFFCED34FFFD80EFD0E0FDD0E0A3
:10198300FCE493A3C0E0E493C0E022C0E0C3E4938B
:1019930096087401939618400FE4936670080874D0
:1019A3000193661870007019A3A3C3E49396087497
:1019B30001939618A3A3400DD0E0D0E0D0E0021924
:1019C3007EA3A3A3A3A3A3D0E022C0E0C0F088F02A
:1019D300E4936670080874019366187000A8F0A376
:1019E300A3700BD0F0D0E0D0E0D0E002197EA3A327
:1019F300D0F0D0E02274F5121711EAFEEBFFEE24CB
:101A030034F8EF3400F988088909EE2435F582EFBC
:101A13003400F583E0F8EE2437F582EF3400F583E4
:101A2300E0F50AEC850AF0A4FCAAF0850AF0EDA41F
:101A33002AFDE82CF8E43DF97A257B001215AAEA81
:101A4300850882850983F0F8740758F97401B90091
:101A5300028004C333D9FCFAE8131313541FF8EEBE
:101A630028F8EF3400F9E8245DF582E93400F583C2
:101A7300E05A6008EE2434F582EF802CEE2434F52E
:101A830082EF3400F583E0C0E0EE2436F582EF34D4
:101A930000F583E0F5F0D0E084A8F0EE28F8EF3409
:101AA30000F9E82438F582E93400F583E0F97F048E
:101AB3000217BD74F5121711EAFEEBFFEE2434F59D
:101AC30082EF3400F583E0C0E0EE2435F582EF3495
:101AD30000F583D0E0F08E828F83A3A3A3A3A3A3F7
:101AE300A3C082C0838E828F83A3A3A3A3A3E0F8A2
:101AF300A3E0F9D083D082E0C398F508A3E099F579
:101B030009EE247FF582EF3400F583E06401706908
:101B1300EE2480F582EF3400F583E0F8A3E0F98E3C
:101B2300828F83A3A3A3A3A3A3A3E0FCA3E0FD8EBF
:101B3300828F83A3A3A3A3A3E0FAA3E0FBC3EA9C3E
:101B4300EB9D5010C3EC98ED99402EC3EA98EB99A6
:101B53005027800EC3EA98EB994007C3EC98ED99A0
:101B630040177CDC7D04EEFAEFFB120B64EE247F5E
:101B7300F582EF3400F583E4F0EE2434F8EF34001B
:101B8300F9E8FCE9FDEE2435F582EF3400F583E056
:101B9300F8EE2437F582EF3400F583E0F50AE50823
:101BA300850AF0A4F508AAF0850AF0E509A42AF548
:101BB30009E82508F8E43509F97A257B001215AA06
:101BC300EA8C828D83F0F8740758F97401B9000226
:101BD3008004C333D9FCFAE8131313541FF8EE2817
:101BE300F8EF3400F9E8245DF582E93400F583E089
:101BF3005A6008EE2434F582EF802CEE2434F5820B
:101C0300EF3400F583E0C0E0EE2436F582EF3400D4
:101C1300F583E0F5F0D0E084A8F0EE28F8EF340087
:101C2300F9E82438F582E93400F583E0F912250D4B
:101C3300021AB1C082C083851882851983E0F8A394
:101C4300E0F9C3EA9CEB9D5010C3EC98ED99401B5F
:101C5300C3EA98EB995014800EC3EA98EB994007B6
:101C6300C3EC98ED994004790180027900D083D0C8
:101C73008222EAC39CFAEB9DFB2274EF12171190A8
:101C830003A2E064086005E06407702A9061C8E07D
:101C930060249003D0E0F4601DE0F875F003A4C85D
:101CA300AAF02AF974D228FE740339FF8E828F8337
:101CB300A3A3A3E07003021DAD906060E0C0E0EE5B
:101CC3002468F582EF3400F583D0E0F0750C457598
:101CD3000D05750800750900E5D914F50AE5D95411
:101CE30003F50E60177403650E605CE50A6010EE81
:101CF3002467F582EF3400F583E07003021D9290B0
:101D03000540E06401602AEE2482F582EF3400F599
:101D130083E06004780480027800850A08E508C33C
:101D230098FA95E0FB120A328A088B09EA45097092
:101D330005120D568074EE2482F582EF3400F5838C
:101D4300E070048A0C8B0DE50A6012850C82850D08
:101D530083F50BE5D9F0A3150BE50B70F6EE2482A2
:101D6300F582EF3400F583E0604474FC250AF50A3C
:101D7300780C1218B8AC0AA90EEEFAEFFB120C009D
:101D8300740212164BE97026AA08AB091211BE7928
:101D93003D8E828F83A3A3A3A3E0FA7B00120906DF
:101DA300EEFAEFFB120B7C120C12790080747403B1
:101DB300650E6056850A1075110078101218B8ACBC
:101DC3000CAD0DAA08AB09120BDC740212164BEE14
:101DD3002468F582EF3400F583E064807004747F37
:101DE3008001E0F50C780C1218BCE50EF50C780CAC
:101DF3001218BCA90AAC08AD099003D0E0FA7B0025
:101E03001208CA740212164B80139003A2E06408EE
:101E1300600BAC0CAD0DEEFAEFFB120C6C120D6205
:101E230079017F0A0217BD74F512171174FC12169B
:101E330035EAFEEBFF8908A2AFE433F509C2AF80B0
:101E43006AEE2463F8EF3400F97A007B00A2AFE472
:101E530033F50AC2AF88828983E0FCA3E0FDEC4D31
:101E6300603A88828983E0FAA3E0FB8A828B83E06D
:101E7300FCA3E0FD88828983ECF0A3EDF08A828BDA
:101E830083E4F0A3F088828983E0FCA3E0FDEC4DBA
:101E9300700A88828983A3A3E4F0A3F0E50AA2E091
:101EA30092AF1211BE9004E3E004F0EE2463F582D6
:101EB300EF3400F583E0F8A3E0F9E849603DEE2450
:101EC30063F582EF3400F583E02402FAA3E03400E3
:101ED300FBEA2402F50AEB3400F50B780A1218B872
:101EE3008A828B83E0FCA3E0F9EEFAEFFB120BA0EE
:101EF300740212164BE97003021E449004E3E0607F
:101F0300639004E4E0F89004E3E0C398500C740297
:101F1300650870509004E5E0604A8E828F83A3A326
:101F2300A3A3E0851882851983F0A3E4F09004E36A
:101F3300E0F87402121681E8F0A3E4F09004E3E001
:101F4300F89004E2E028F07402121681AC82AD83AB
:101F5300851882851983AA82AB8379011208D690EA
:101F630004E3E4F0E509A2E092AF740412164B0215
:101F73001AB10000008521878522C622C0E0C0D0A7
:101F8300E8C0E0E9C0E0EAC0E0EBC0E0ECC0E0EDAF
:101F9300C0E0EEC0E0C008C009C00AC00BC082C0E8
:101FA30083C0F0A2AFE433FEC2AF759B00906182A1
:101FB300E0A2E05012E591A2E0500C7591FE74018D
:101FC30065217003121C7DE0A2E55051E591A2E565
:101FD300504B7591DF9003A2E064076005E064084D
:101FE300702374016521703579019003D0E0FA758F
:101FF300F003A4CAA8F028FB74D22AFA74033BFBAB
:10200300121E2A8018E0640D70139003C4E004F0DC
:1020130064287002E4F07A00E0F9120D689061829E
:10202300E0A2E640030220C6E591A2E640030220B7
:10203300C67591BF9003A2E064057008120C961256
:102043000CA28003120C9C752100120CF6E990037C
:10205300A3F07900120CEA120ADA7A017B009003EA
:10206300A1E0F9120FC0907803E064427055900527
:1020730044E014F0704DC2AF12207E00782AD0E005
:10208300F618D0E0F6E59F540770057509FF800345
:1020930075097FC4C0E07829E6F50808E65509F517
:1020A30009740B7808121613D0E02508F8906270B3
:1020B300E0A2E740F8E8C333906272F0906270E008
:1020C300D2E0F0906181E0A2E35009E5E9A2E35098
:1020D3000375E9F7A3E0A2E75009E591A2E75003EE
:1020E30075917FEEA2E092AFD0F0D083D082D00B77
:1020F300D00AD009D008D0E0FED0E0FDD0E0FCD07B
:10210300E0FBD0E0FAD0E0F9D0E0F8D0D0D0E03274
:10211300C0E0C0D0C082C083906183E0A2E05009D8
:10212300E5BFA2E0500375BFFEE0A2E15009E5BFA1
:10213300A2E1500375BFFDE0A2E25009E5BFA2E2B0
:10214300500375BFFBE0A2E35009E5BFA2E35003D0
:1021530075BFF7E0A2E45009E5BFA2E4500375BFE1
:10216300EFE0A2E55009E5BFA2E5500375BFDFE04C
:10217300A2E65009E5BFA2E6500375BFBFD083D0E6
:10218300828088C0E0C0D0E8C0E0E9C0E0EAC0E0F7
:10219300EBC0E0ECC0E0EDC0E0C0F0E5A7A2E65084
:1021A3000FE5A1A2E6500953A7BF75A1BF1221EB0A
:1021B300E5A7A2E5500CE5A1A2E5500653A7DF75FC
:1021C300A1DFE5A7A2E15009E5A1A2E1500375A1B2
:1021D300FDE5A7A2E2500CE5A1A2E2500653A7FB3E
:1021E30075A1FBD0F00220FC74F8121711752101C0
:1021F3009003A2E064067015120C308A828B83A3CD
:10220300A3A3A3A3A3E0FAA3E0FB120C84A2AFE46D
:1022130033FED2AF9003A8E0640170187A207B00EC
:102223009003A1E0F91210447A207B009003A1E00F
:10223300F9120FC6906182E0D2E6F0900541E060AA
:102243002185C62280169003A7E064017008E5C6C5
:1022530054F84405F5C653BEFC121F78740165217A
:1022630060E4EEA2E092AF7F010217BD008E238FE0
:1022730024858228858327851882851983E0CEA348
:10228300E0CF852882852783EBC9EAC8EDCBECCA6A
:1022930075F010C3E833C8E933C9EA33CAEB33CB6B
:1022A300C3EA9EF526EB9FF525B35004AB25AA267A
:1022B300EC33CCED33CDD5F0DAAE23AF242274ED7D
:1022C3001217118A088B098C0A8D0B74131216814D
:1022D300780C1214ED7808790C1212ED7510017553
:1022E30011C875120075130050127808790C121476
:1022F3008C781079081212ED50168010780C79083A
:1023030012148C7810790C1212ED400479018002BA
:1023130079007F0C0217BD74ED1217118A088B091F
:102323008C0A8D0B7413121681780C1214ED780C31
:1023330079081212ED40117808790C12148CAA084E
:10234300AB09AC0AAD0B8022751000751100751234
:10235300007513017810790C12148C781079081217
:102363001453AA10AB11AC12AD1380A68A828B83CF
:102373007508FF7509FF750AFF750B0078081214BD
:10238300DA7F040217BD74F51217118C828D8378DE
:10239300081214ED8A828B8378081214A0EA2404AD
:1023A300F8EB3400F98C828D83A3A3A3A3E0FCA3F1
:1023B300E0FD88828983C3E09CF0A3E09DF08882DE
:1023C3008983C3E09420A3E0944E40268A828B83C2
:1023D3007508FF7509FF750AFF750BFF780812145E
:1023E300798A828B83A3A3A3A3E02420F0A3E03400
:1023F3004EF002236F74F5121711E9FE9004F7E013
:10240300FAA3E0FBEEC333F8E433F9741228F58240
:10241300748139F583E02AF508A3E03BF5097808D0
:102423001218B87A407B427C0F7D0012227074022E
:1024330012164B8A088B098C0A8D0B7410780812BC
:10244300141BAA08AB097F040217BD74F1121711FC
:102453008A0C8B0D8C0E8D0F740F121681E0FAA36C
:10246300E0FB7411121681E0F508A3E0F509780882
:102473001218B8EA2401F508EB3400F509E4F50A6B
:10248300F50B780C790812132C750871750902780D
:102493000C790812132CAA0CAB0DAC0EAD0F122243
:1024A30070740212164B8B09EA450960047A0180A5
:1024B300027A00EC2AFCED3400FD7413121681E05D
:1024C300F8A3E0F9E8FEE9FFECF8EDF97A717B0295
:1024D3001215AA880889098E828F8378081214FC42
:1024E300ECF8EDF97A717B021215AA8A088B09744C
:1024F3000578081216228E828F83A3A3A3A3E5086F
:10250300F0A3E509F07F080217BDC082C083E990FC
:102513006000F0D083D08222C2AF02000022C0E06C
:1025230074F21217FDE589A2E1500312118875892F
:1025330000C2C57F0102185CC0E074F21217FDE50A
:102543008BA2E05003121188758B00C2E880E4C2AD
:10255300C73202011FFFFFFFFFFFFFFFFFC082C063
:1025630083E99009F8F00227EF74F71216A5E990B2
:1025730002E1F07C197D037AFF7BFF12081C9002B5
:10258300E274FFF0A3F0A3E4F0A3F079051207A42B
:102593009002E1E0F91206C67A3A7B081209E47F59
:1025A3000102177774F41216A58A088B09EB54807D
:1025B30060309002E1E0F9120FA88A0A8B0BAE0A91
:1025C300AF0BEE4F60138E828F83E064B070031203
:1025D30007BCEEFAEFFB120F96AA08E5096480FB2D
:1025E30080047A007B000227BE74F21216A574FCE5
:1025F300121635EAFEEBFFEE4F60387402121681B5
:10260300EEF0A3EF122A23ECF0A3ED122A23AA8201
:10261300AB831206C0E9F5087073741212168112A7
:1026230035D7E50A450B60658E828F8312269AEEB5
:102633004F700575080280557A067B00120FFC8ADD
:102643000C8B0DA80CA90DE8497005750813803D86
:1026530088828983E41226A4A3A3EEF0A3EF123A9F
:1026630070E50AF0A3E50BF09002E712272C900225
:10267300E76017E0FCA3E08003EAFCEBFD8C828DAE
:102683008312272C70F38C828D831234FCA9087477
:102693000412164B023C72A3A3A3A3E0FEA3E0FF24
:1026A30022F0A3F0888289832274F21216A5890A84
:1026B300E975F017A4FEAFF09002E6E4F09002E4AF
:1026C30012272C600A1210029002E4E4F0A3F0EE49
:1026D300FAEFFB120FFC8A088B09EA4509602FEE1B
:1026E300FCEFFD7900120F7E9002E4E508F0A3E50C
:1026F30009F07B008008122716E4F0A3F00BEBC36C
:10270300950A40F2E50A9002E6F079008002791317
:10271300023C72EB75F017A4F8A9F09002E4E028EC
:10272300FAA3E0398A82F58322123292EA4B2274A9
:10273300F41216A5750800750900740C121681129F
:102743003A44FEE9FF800CE5082401F508E5093465
:1027530000F509C3E5089CE5099D503285080A8503
:10276300090B7403780A121622EA250AF8EB350BD3
:10277300F988828983A3A3A3A3A3A31235D7EE6504
:102783000A7003EF650B70BFE8FAE9FB80047A0077
:102793007B00802774F41216A57900EAA2E0501B8F
:1027A3007508EE75098178081218B87C047D007AE3
:1027B300FA7B0912079E740212164B7F04021777E5
:1027C300C082C0839002E71227F6601C8882898347
:1027D300A3A3E06A7003A3E06B8882898370E8A3F4
:1027E300A3A3A312328E80047A007B00D083D0820D
:1027F30002011F123D45E8492274EE1216A574FC2E
:10280300121635EAFEEBFF851882851983E4F0A3DF
:10281300F0EE24021234E0EE2405122A11EE240411
:10282300F50EEF122DF6E024FE603924FC604624F9
:10283300FE605224FE605E24FE700302291624FE0D
:10284300700302298E24FE700302299D24FE700367
:102853000229AC24FC70030229BB24FE7003022965
:10286300CA022A079003007417F0A3E4122A2B125A
:10287300043E022A07851882851983AC82AD831230
:1028830007C20229D7851882851983AC82AD8312CA
:1028930007C80229D7850C08850D09740212168111
:1028A300AC82AD8385088285098312328E1206E4D9
:1028B3008A0C8B0DAC0CAD0DEC4D6042E4F50CF5C0
:1028C3000D780C1218B8750C00750D03780C1218DE
:1028D300B8750C01750D03780C1218B8740812162C
:1028E300811218CF7916123288120804740812164E
:1028F3004BE9F50C700B123284120456800F750CE1
:1029030001850882850983122A191234FC850C0873
:102913000229DA7402121681AC82AD83850C82859A
:102923000D8312328E1206E48A108B11AC10AD1196
:10293300EC4D6043850C82850D83A3A31218CF75DC
:10294300100075110378101218B875100175110372
:1029530078101218B874081216811218CF7916124B
:102963003288120804740812164BE9F509700B1229
:10297300328412045C800F750901850C82850D83F6
:10298300122A191234FC850908804C85188285198E
:1029930083AC82AD831207CE803A85188285198372
:1029A300AC82AD831207D4802B851882851983AC42
:1029B30082AD831207DA801C851882851983AC8265
:1029C300AD831207E0800D851882851983AC82AD33
:1029D300831207E6E9F508E50860298E828F83A351
:1029E300E06414601F850E82850F83E0900300125C
:1029F3002A23123D419003011234FCE508A3122A55
:102A03002B120438EEFAEFFB1207620233E8F50CDF
:102A1300EF3400F50D22123D458518828519832276
:102A2300F085188285198322F07C007D03850A8254
:102A3300850B831232922274EE1216A574FC1216C1
:102A4300358A0A8B0B8C0E8D0FEA2405F508EB34BF
:102A530000F5097C157D0079007A007B03120F7E57
:102A6300E5082402F50CE509122A14851882851954
:102A73008385821085831178101218B885088285A2
:102A83000983A3A3A3A3122F3E1218B8E5082405B4
:102A9300F510E5093400F51178101218B8850C8289
:102AA300850D831232981206DE740612164B8A10B5
:102AB3008B11AE10AF11E50A2402F50AE50B1234AF
:102AC300E3EE4F7003022C0080177402121681127A
:102AD300328E88828983EAF0A3EBF0900300E0044E
:102AE300F0900300E0C394054003022C00E4F510CA
:102AF300F51178101218B87510E9751102781012D3
:102B030018B87510EA75110278101218B874061205
:102B130016811218CF7910EEFCEFFD1232881208DD
:102B230004740812164BE9705E850882850983A335
:102B3300A3A3A3A3A3A3E0F89002E9E0687048125B
:102B43002F3E1218B87CEA7D02E5082408FAE5094D
:102B53003400FB120F78740212164BE960298E823F
:102B63008F83A3A3A3A312328E900300E0F5107406
:102B730002781012162274012510F58274033511A0
:102B8300F583EAF0A3EBF0740212168185821085B7
:102B9300831178101218B874021216811218CF8597
:102BA3000C82850D83123D561206EA740412164BED
:102BB3008A108B11AE10AF11900300E0F510751160
:102BC300007402781012162274002510F87403356D
:102BD30011F988828983A312272C7003022AC4E87F
:102BE3002403F8E93400F9EE4F6003022ACD88820A
:102BF300898374FFF0A3F0900300E004F0900300D6
:102C0300E0600A12328412044A7900800B8508823C
:102C13008509831234F3790A0233E874EA1216A59C
:102C230074FE1216358C128D13EA2405F50CEB1283
:102C33003EC012269E750800750900EA2402F510AD
:102C4300EB3400F51185188285198385820A858303
:102C53000B780A1218B8850C82850D83A3A3A3A34E
:102C6300122E001218B8E50C2405F50AE50D1234EE
:102C7300E3780A1218B8850C82850D83123D54122D
:102C830006DE740612164B8A0A8B0BEA450B700399
:102C9300022DB1EA2404F50EEB122DF612269E8ABC
:102CA300828B83A3A3A3E0F985108285118312325B
:102CB3008E1206CCE9F5096003022DB1E4F514F593
:102CC3001578141218B87514E975150278141218CA
:102CD300B87514EA75150278141218B8740612162A
:102CE300811218CF7913AC0AAD0B8510828511833D
:102CF30012328E120804740812164BE9F5096003A8
:102D0300022DB19002E9E0F8E5087009E024029091
:102D13000301F08017900301E0FCE82402FAE43495
:102D230000FBEA6C7001EB6003022DB5850882AAF3
:102D330082122F359414122F2D5073850E82850F16
:102D430083E0C0E074022A122DEDD0E0F00508857F
:102D53000E82850F83A3E0C0E085080A7402250A6A
:102D6300122DEDD0E0F005089002E9122E001218A2
:102D7300B87CEA7D0285080A7402250AFA740334D2
:102D830000FB120F66740212164B9002E9E025084D
:102D9300F50874FF6E700374FF6F6012EE24010E6A
:102DA300EF3400FFE508C394145003022C48E508F0
:102DB300601312317985108285118312328E1204C9
:102DC3005079008014E509700375090A851282851C
:102DD3001383EEF0A3EFF0A909740212164B7F0ED2
:102DE30002177785080C7402250CF58274033400EE
:102DF300F583223400F50F850E82F58322123A8380
:102E03002274EE1216A574FE1216358C0E8D0FEA7F
:102E13002405F50CEB122A14750B00900300E4F063
:102E2300F50AEA2402F508EB3400F509804990031A
:102E330000E0FA9002E9E0F8122F359417122F2DD3
:102E4300400D900300E0F87416C3989002E9F01265
:102E53002F3E1218B87CEA7D0274012AFA740334F7
:102E630000FB120F66740212164B9002E9E0F89011
:102E73000300E028F0050AE50C2416F582E50D129F
:102E83002DF1E0F8E50AC3984003022F16900300E2
:102E9300E0C39416507DE50AC333F8E433F9E50C37
:102EA30028FEE50D39FF851882851983AC82AD8331
:102EB3008E828F8312328E1206E48A108B11AC102D
:102EC300AD11EC4D7005750B018043E4F510F51160
:102ED30078101218B87510E975110278101218B825
:102EE3007510EA75110278101218B874061216815B
:102EF3001218CF791685088285098312328E12083B
:102F030004740812164BE9F50B7003022E311234C8
:102F1300EF80107C007D0385088285098312328E41
:102F2300120462A90B74020233EAE99400C365D068
:102F33003322EA28F8E43400F9E822E0F5107511A9
:102F43000078102274EA1216A574FC1216358A0C46
:102F53008B0D8C128D13EA2405F50AEB1234E375FD
:102F63000800750900E50A2402F510E50B3400F5A5
:102F730011740212168185820E85830F780E121842
:102F8300B8850A82850B83A3A3A3A3123A2F121831
:102F9300B8E50A2405F50EE50B3400F50F780E129B
:102FA30018B88510828511831234E912328812060B
:102FB300DE740612164B8A0E8B0FAE0EAF0FE50CA6
:102FC3002402F50EE50D3400F50F804088828983D5
:102FD30074FFF00508122DE674FFF005089002E96E
:102FE300E0F50C750D00780C1218B87CEA7D0285AB
:102FF300080C7402250CFA74033400FB120F667478
:103003000212164B9002E9E02508F508EE4F6071B5
:103013008E828F83A3A3A3E0F9850E82850F83128B
:10302300328E1206CCE9F509EE2404122A11E97056
:1030330044E4F514F51578141218B87514E97515E8
:103043000278141218B87514EA7515027814121858
:10305300B874081216811218CF7911EEFCEFFD85B2
:103063000E82850F8312328E120804740812164BD7
:10307300E9F5096027850C82850D8312316F1234BF
:10308300FCE5087003023155123179850E82850FF4
:103093008312328E120468790002316A850882AA8B
:1030A30082EA9002E97009E02404900301F080228F
:1030B300E0F8900301E0F514E82404FCE43400FD97
:1030C300EC65147001ED70C0122F359412122F2D80
:1030D30050B6850C82850D83E0C0E074022A122D60
:1030E300EDD0E0F00508850C82850D83A3E0C0E0F8
:1030F300122DE6D0E012318B85820C85830D780C7E
:103103001218B874041216811218CF851082851113
:1031130083123D561206EA740412164B8A0C8B0D69
:10312300AE0CAF0D85080C7402250CF87403340043
:10313300F9EE4F7003022FCF851882851983E0883B
:1031430082898312318BA3E0C0E0122DE6D0E00226
:103153002FDDE509700375090A850A82850B831241
:10316300316F1234FCA9097404022DDE123D45852A
:10317300128285138322900301E0F5F0E508849021
:103183000300F07C007D0322F00508851882851971
:10319300832274EC1216A574FE1216358A088B0965
:1031A3008C0E8D0FEA2405FEEB3400FF8518828513
:1031B3001983AC82AD838E828F8312328E1206E422
:1031C3008A0A8B0BEE2418122A11EA450B700302AC
:1031D300325F1233D1503285188285198312328EB1
:1031E3001207F88A108B11EA4511606B7912AC0A49
:1031F300AD0B85088285098312328E851082851175
:10320300831216A3E9F50A7058E4F50AF50B780A58
:103213001218B88E828F83A3A3E0F50A780A1218D6
:10322300B8EE24031234E0780A1218B88E828F8322
:1032330012329812080A740612164BE9F50A702125
:10324300850C82850D83E0701F85088285098312B2
:10325300328E12046E8011750A0E8009750A018080
:1032630004E50A60031234EF850C82850D83E06068
:103273000479008002A90A740212164B7F0C02170C
:10328300777C007D03850A82850B8312329222E0CC
:10329300FAA3E0FB22E0FCA3E0FD85088285098315
:1032A3001232922274EE1216A574FE1216358A0893
:1032B3008B098C0C8D0DEA2405FEEB3400FF750E93
:1032C30000851882851983AC82AD838E828F831229
:1032D300328E1206E48A0A8B0BEA450B7003023323
:1032E300BD1233D1503585188285198312328E125F
:1032F30007F88A0E8B0FEA450F605E7912AC0AADB0
:103303000B85088285098312328E850E82850F8391
:103313001216A3E9F50E60030233C08508828509FE
:10332300831235D7AA0AFB1207EC8A108B11A81057
:10333300A911E849701E7AFF7BFF1207EC8A108BF4
:1033430011A810A911E849606C88828983E50AF005
:10335300A3E50BF0750A008007750E0E805F050A62
:103363009002E6E0FAE50AC39A504AE50A75F017B7
:10337300A4FAABF088828983A3A3E02AFAA3E03BF3
:10338300FB8A828B831234E9EC4D70D2750A177570
:103393000B00780A1218B8EEFCEFFD120F667402E8
:1033A30012164BEEFCEFFD85088285098312328EDF
:1033B3001204748014750E098003750E01123D3DCD
:1033C300850C82850D831234FCA90E022F28E50893
:1033D3002402F508E5093400F5098A828B83A3A347
:1033E300A3E0A2E522740412164B7F0A0217777436
:1033F300EC1216A58C108D11EA2405F50CEB122A9C
:1034030014750F00EA2402F50AEB1234E3850A82ED
:10341300F58312328E1207EC8A088B09EA4509708C
:10342300030234D5750E008071850C82850D83E00F
:103433006401704F8E828F83A3A31218CF8E828F65
:1034430083A3A3A3A3E0F51275130078121218B88F
:10345300EE2405F512EF3400F51378121218B812A2
:10346300328812080A740612164BE9F50F601485A8
:103473000C82850D83E4F0123D3D85108285118316
:103483001234FC7C177D007900EEFAEFFB120F7EFD
:103493008E828F83E4F0A3F0050E9002E6E0F8E558
:1034A3000EC398501EE50E75F017A4F8A9F0850811
:1034B30082850983A3A3123ECA1234E9EC4D60034B
:1034C30002342C85088285098374FFF0A3F0E50F8D
:1034D300700612328812047AA90F02327FF50AEFBE
:1034E3003400F50B22A3E0FCA3E0FD228E828F8340
:1034F300123D45850E82850F83E8F0A3E9F022C0D3
:1035030082C0839002E2E06A7003A3E06B70067AE4
:10351300E27B0280047A007B000227EFC082C08333
:1035230078008C828D83E06A7003A3E06B7010E8EF
:1035330075F003A4F8A9F0EC28FAED39FB8015081F
:103543008C828D83A3A3A3E06A7003A3E06B60DF87
:103553007A007B000227EF74F61216A51207B68ACB
:10356300828B83E582458370067A007B008007A304
:10357300A3A3A312328E023BEE74F21216A5E9FE48
:10358300740E1216811235D77410121681123A4F27
:103593008C828D83E064027036A3123D4BF50CA33D
:1035A300E0F9A80C74026870037429697021750C22
:1035B30002750D00780C1218B878081218B8780A3A
:1035C3001218B8EEF912082E740612164B800279FF
:1035D30001023C72E0F50AA3E0F50B2274E812162F
:1035E300A574FB121635E9851882851983F08A16AE
:1035F3008B17ECFEEDFF751000741D121681123D42
:1036030041741D1216811234FC8E828F83A3A3A3EF
:10361300E0A2E4502D741D12168112328E1207F8A7
:103623008A828B83E58245837003023A20790AEE0E
:10363300FCEFFDAA16AB171216A3E9F510600302FF
:103643003A23741F121681123A4F742112168112F3
:1036530035D77423121681E0F50EA3E0F50F8E82A1
:103663008F83E0640260030239CEA3123D418508D3
:1036730082850983A3858212858313EE2406122A89
:103683001188828983E0FAA3E0F9EA2400F514E4BF
:1036930039F5157814121942010000280128C336A0
:1036A3000700022888370328F5360029BF38012987
:1036B300EA3802298B380329BF3804296939CE39FE
:1036C300E50E450F60030239C9850C82850D83120F
:1036D3003A44FAE9FB8A828B83E0850A82850B836D
:1036E300123A7A1218B88A828B83A3E0FCA3E00211
:1036F3003953E50E450F60030239C9850A82850BEC
:10370300837401F0123A57850882850983F07C009F
:103713007D008E828F83A3A3A3A3E02401FAA3E0F9
:103723003400FB1206E4EA4B60418A828B83E02477
:1037330002F8850A82850B83E028F0EA2404F8EB7B
:103743003400F988828983E0851282851383123AD3
:103753008C123A7A1218B88A828B831234E8E508FD
:103763002403FAE5093400FB023958850A82850BE4
:1037730083E02404F07C047D007900AA12AB1312C9
:103783000F7E023A23E50E450F60030239C9123A50
:1037930057FEA3E0FF850A82850B837404F0EE8550
:1037A3000882850983F0EF851282851383F0740301
:1037B300121681AC82AD83EEFAEFFB1206E48A0C9B
:1037C3008B0DEA450D700302386C8A828B83A3A3A9
:1037D30012269A740112168185820E85830F780E44
:1037E3001218B874051216811218CF7CFF7DFF12D0
:1037F30006EA740412164B8B0FEA450F7033850CDF
:1038030082850D83123A2F1218B8850C82850D8399
:10381300A31218CF7C027D007A567B8212051674A0
:103823000412164BE9700A740112168174FFF0A397
:10383300F08E828F83E064027039750C02750D007F
:10384300780C1218B88E828F831234E8E5082404AA
:10385300FAE5093400FB120F66740212164B850A4F
:1038630082850B83E0240280097401121681EEF035
:10387300A3EFF07401121681123A40F0740112168C
:1038830081A3123A380239C3E50E450F60030239AA
:10389300C9850C82850D831234E9AA16AB17120869
:1038A30022850A82850B837402F0EA8508828509E2
:1038B30083F0851282851383EB0239C6E50E450F2B
:1038C30060030239C9123A57F8A3E0F9850A8285E1
:1038D3000B837402F0E8850882850983F0E9851279
:1038E300828513830239C6850C82850D8312328E3D
:1038F300120F60EAFC8C82A882C3950EE4950F40F8
:103903005FE8650E7002E50F70047C008022851865
:1039130082851983E0FAE50E2AFAE50F3400FBC32A
:10392300EA98EB94005003E08005E50ECCC39CFCC1
:10393300EC850A82850B83F08C0A750B00780A12DA
:1039430018B8850C82850D83E0250EFCA3E0350FA6
:10395300FDAA08AB09120F66740212164B023A2332
:10396300751007023A23E50E450F705A850C8285C0
:103973000D83123D41850A82850B8374071226A6A7
:10398300123A381226A6A3E0851282851383F0E843
:103993002402FAE93400FB8A828B83123A38123A02
:1039A30067123A40A3123A70123A49F0E82405F834
:1039B300E93400F988828983123A49A3123A8CA325
:1039C300A3A3A3F0805A75100B8055741D121681A2
:1039D30012328E1207B68A828B83E5824583603D5D
:1039E300123D41880C890DE8450D6031780E12189F
:1039F300B8780A1218B878081218B8740612168123
:103A0300E0F9EEFCEFFDAA16AB17850C82850D835A
:103A13001216A3740612164BE9F510800375100EE7
:103A2300A910740512164B7F10021777E0F50E7577
:103A33000F00780E22E085088285098322123A96C8
:103A430022123D45E822123A96A3A322E0F508A3E9
:103A5300E0F50922850C82850D83E0F8A3E0F58368
:103A63008882E022A3A3F08A828B83A322F0888238
:103A73008983A3A3A3A322F08A828B83123A83228E
:103A8300E0F50A750B00780A22F088828983A31275
:103A93003A9622E0850882850983A3A32274EE1255
:103AA30016A574FE1216358A0A8B0BECFAEDFB741D
:103AB30014121681E0F510A3E0F5117416121681A5
:103AC300E0FE7418121681E0F50EA3E0F50F8518D9
:103AD30082851983AC82AD831206E48A0C8B0DEACE
:103AE300450D604985188285198312328E1207B6F7
:103AF3008A828B83E5824583602FA3A3123A4FE525
:103B03000845096024780E1218B878101218B8EE18
:103B1300F9AC0CAD0DAA0AAB0B850882850983129B
:103B230016A3740412164B8006790E8002790102E3
:103B33002F2874F61216A574FE121635740C12167D
:103B430081123A44851882851983F0740112168113
:103B5300E9F0E4F508F50978081218B87508027851
:103B6300081218B8740412168185820885830978AF
:103B7300081218B812080A740612164B74021216A9
:103B83004B806874F71216A5EAFEEBFF89087C19CF
:103B93007D03120822EA5402600BA908EEFAEFFB38
:103BA3001206D8800279010225A274F61216A574B2
:103BB300FF6A700374FF6B70168C828D83123BF364
:103BC300E4F08C828D83A3A3A3123BF3A38018128A
:103BD30007F28A088B09A808A909E849600D8882B9
:103BE300898374FF1226A4A3A3E4F07F020217774C
:103BF30074FFF0A3F08C828D83A3A32274F61216B4
:103C0300A51207F28A828B83E58245836006A3A30C
:103C1300E0FA80027A007B0080D174F21216A58A42
:103C2300088B09ECFEEDFF740E121681E0F50A1203
:103C330007F28A0C8B0DA80CA90DE8497026EEFC3F
:103C4300EFFD7AFF7BFF1207F28A0C8B0DA80CA9FC
:103C53000DE84970047911801688828983E508F09C
:103C6300A3E509F088828983A3A3E50AF079007F9D
:103C73000602177774EE1216A5EAFEEBFF8C088D89
:103C830009890C7414121681123D4174161216819F
:103C930012328E750D00E8496003023D35740265EA
:103CA3000C6003023D307412121681123D4BFCA3CB
:103CB300E0F9EC2400F50EE439F50FEAF4F8EBF43F
:103CC300F9EC58F8E50F59F9E849705CE508240662
:103CD300F8ED3400F9880A890B8882F583123D5682
:103CE3001208228A108B11E50E65107004E50F652A
:103CF300116042780E1218B8850A82850B83123D33
:103D030056120828740212164BE9F50D7027780E27
:103D13001218B8850882850983A3A3123D5412089B
:103D230040740212164B800D750D808008750D0DC1
:103D33008003750D0BA90D0233ED8E828F83123D27
:103D43004522E0F8A3E0F922123D4588828983E009
:103D530022A3A3E0FCA3E0FDEEFAEFFB2274E8123A
:103D630016A574E7121635851882851983EAF0A320
:103D7300EBF08C168D17890E7508007509007431E8
:103D8300121681E0F512A3E0F5137433121681E0E5
:103D9300F514A3E0F5157435121681E0F50FE50966
:103DA30075F003A4F8A9F0851882851983123ECA19
:103DB300E0F47003A3E0F47003023EADEE2402F5D9
:103DC3000CEF123EC0E07003023EAD85160A851764
:103DD3000B780A1218B8AC14AD15AA12AB1312075C
:103DE300AA740212164B8A0A8B0BEA450B70030264
:103DF3003EADE4F510F51178101218B874061216DA
:103E03008185821085831178101218B874091216EF
:103E13008185821085831178101218B885128285E6
:103E23001383A3A3A3A31218CF7914AC0AAD0B8EEB
:103E3300828F8312328E120804740812164BE970B3
:103E430069850A82850B83A3A3A3A3123D41740250
:103E53001216811234FC850C82850D83E0A2E0509A
:103E630018A90E7402121681AC82AD838E828F83E1
:103E730012328E1206FCE94208850C82850D83E01E
:103E8300A2E15026E50FF50A780A1218BCA90E74B0
:103E930003121681AC82AD838E828F8312328E120F
:103EA30006F6740112164BE942080509E509C394A5
:103EB300025003023DA1A9087419023A273400F500
:103EC3000D850C82F58322E028FEA3E039FF8E8264
:103ED3008F832274F21216A5EAFEEBFF890B74019D
:103EE300650B600E7402650B706A7901120A02E9B0
:103EF3007062EEFAEFFB1207EC8A088B09EA4509B8
:103F03006047750A00800B7C177D007900120F7ED5
:103F1300050A9002E6E0F8E50AC3985021E50A7520
:103F2300F017A4F8A9F0850882850983A3A3E028E4
:103F3300FAA3E039FB8A828B831227F670C98508BE
:103F43008285098374FFF0A3F07C197D03EEFAEFF9
:103F5300FB12081C023C7274F21216A58A088B0924
:103F6300ECFEEDFF740E1216811235D79009F8E0BE
:103F7300F4603D7A097B00120F90EA4B60328A822B
:103F83008B8374B1F0A3E4123A69A3123A67A3E5F1
:103F930008F0A3E509123FB6EEF0A3EF123FB6A374
:103FA300A3E50AF0A3E50BF09009F8E0F9120F9CE2
:103FB300023C72F08A828B83A3A3A3A3A322C082B1
:103FC300C0839061907404F0A37448F0A37402F06A
:103FD3009061807440F09061BC7403F090618774C9
:103FE30019F0906265741BF0906249E0C3941390DA
:103FF300619C400A7409F090606674018007740D37
:10400300F0906066E4F090619A7433F0A37455F015
:104013009061A0743AF090053FE064017009C29189
:104023009003A6746780059003A67461F090255EE3
:10403300E493906186F0902558E493F46027E49329
:10404300540FF8906185E0686012E5C654804449D6
:10405300F5C6E59E547F644970F8E8F053C680E5E1
:104063009E547F70FA7905120D4A0241EFC082C057
:1040730083E5A8F853A87E906181E4F0A3F0A3F050
:10408300C2BA539AFEC289759B00C2C275E9007514
:10409300910075BF0075A91175B905906181F0A3F1
:1040A30074C0F0A3E4F0D2BA439A0174805842A8D2
:1040B3000241EFC082C08374F81216359003A4E066
:1040C300F8A3E0F9E84970030241E49003A4E05443
:1040D3004060237908851882851983AA82AB8312ED
:1040E3000BBE851882851983AA82AB831208B2900E
:1040F30003A4E054BFF0E054806010790C7A657B30
:1041030005120BBE9003A4E0547FF0E0A2E050310F
:1041130090619A7433F0A37455F09061A0743AF0EF
:1041230090053FE064017009C2919003A674678013
:10413300059003A67461F01208B89003A4E054FE3E
:10414300F0E05402603190619A743FF0A3745AF026
:104153009061A0747FF090053FE064017009D291F3
:104163009003A6747180059003A6746AF01208B8D0
:104173009003A4E054FDF0E05404601390255CE444
:1041830093906186F01208BE9003A4E054FBF0E024
:104193005408601390255DE493906186F01208BE85
:1041A3009003A4E054F7F0E05410601390255EE40C
:1041B30093906186F01208BE9003A4E054EFF0E000
:1041C3005420600A1208BE9003A4E054DFF0A3E079
:1041D3005401600D120AE61208C49003A5E054FED0
:1041E300F0740812164B0241EFF0A3F0D083D08293
:1041F30002011F74EC1216A574F412163585188289
:10420300851983AC82AD837583827582237404120E
:10421300154890255C93F46003024382907808E08C
:10422300C3940250030243627404121681AC82AD3C
:10423300837583817582C174081215488518828538
:1042430019838582128583137404121681AC82AD9F
:1042530083750EFF750FFF7FFF7E00750C48750D8C
:1042630078801574086E70030242F674096E700349
:104273000242F6740A6E607B850C82850D83780892
:104283001214ED8C828D83A909E50AC9F88810748C
:1042930018780812141BE5104508F8C3E098A3E04A
:1042A30099850C82850D8378081214ED40188C8251
:1042B3008D837418780812141BE5104508F8E0C3C1
:1042C30098F8A3E0801C7418780812141BE51045B5
:1042D30008FAE9FB8C828D83E0F8A3E0F9EAC3983E
:1042E300F8EB99F9C3E8950EE9950F5006880E8906
:1042F3000FEEFF0EE50C2404F50CE50D3400F50D6F
:10430300EEC39413500302426674FF650E70047487
:10431300FF650F60238F0874027808121622744811
:104323002508F58274783509F58378081214ED852C
:104333001282851383E508F0EC2402FCED3400FDC2
:10434300851282851383A3858212858313740C12CD
:104353001681E5826C7003E5836D60030242547538
:10436300080175090078081218B87402121681AC96
:1043730082AD837A577B09121164740212164B744F
:104383000C12164B7F0C021777C082C0839061AE6C
:104393007468F0A3746AF090624574FBF0A304F0B0
:1043A30053F4FD43FE0290053F7401F09061A0E0D9
:1043B300643A90619A70237433F0A37455F090615A
:1043C300A0743AF0740164017009C2919003A67459
:1043D3006780289003A674618021743FF0A3745A08
:1043E300F09061A0747FF0740164017009D2919020
:1043F30003A6747180059003A6746A0241EE7F08D8
:10440300021777C082C0839004F1E06401700A90C0
:1044130004F6E06004790C800279000241EFC08267
:10442300C08375E1F19004F4E0605B1460091460EB
:104433005F14605714705E120AF89004EAE0F97A88
:10444300EB7B04120CCC7AD67BBE7C897D8E120D5D
:10445300027A557B557C557D00120CD89004F5E00B
:10446300F9120CE47901120D3E9004E8E0F8A3E0A0
:10447300C82416F582E83400F5837410F0A3740B96
:10448300F079000241EF120AFE80AF120B0480AAFA
:10449300120B0A80A5791280EA74F01216A575D959
:1044A3000D9004D5E0A2E0E4331313F89004EAE09E
:1044B300C4333354C0484401F5D978E87904888279
:1044C3008983A3A3A3E0F5D988828983A3A882A9BA
:1044D30083E864EE7003E9640470E378D5790488B3
:1044E300828983A3E0F5D988828983A3A882A983DB
:1044F300E864DB7003E9640470E575E1959004D525
:10450300E0F97AD67B04120CD2900A1A74AAF0A3AB
:10451300740AF0A37406F0A3740CF0A37406F0A35A
:10452300740CF0A37406F0A3740CF0A374B0F0A39E
:10453300740AF0A37406F0A3740CF0A374C8F0A378
:10454300740AF0900A287406F0A3740CF0A374069E
:10455300F0A3740CF0A37406F0A3740CF0A3740618
:10456300F0A3740CF0A37406F0A3740CF0A3740608
:10457300F0A3740CF09004F4E064019004E870126A
:10458300E0F8A3E0F5838882A3A375080075090802
:104593008010E0F8A3E0F5838882A3A3750804756F
:1045A3000900750A00750B007808121466750CFF74
:1045B300750DFF750EFF750F007808790C1214B492
:1045C3009004E8E0F8A3E0C8240EF582E83400F58F
:1045D3008378081214FC9004E8E0F8A3E0C82414DC
:1045E300F582E83400F5837413F09003A27402F0AB
:1045F30002440174F71216A59004FAE02407F5D9D2
:104603009004EAE0C4333354C0F5D978E8790488D8
:10461300828983A3A3A3E0F5D988828983A3A8828F
:10462300A983E864EE7003E9640470E39004FAE09C
:10463300601F78E87904FAE82413F582E93400F579
:1046430083E0F5D988828983A3A882A9831AEA70B3
:10465300E690051AE02407F5D99004EAE0C4333361
:1046630054C04404F5D978E8790488828983A3A3E4
:10467300A3E0F5D988828983A3A882A983E864EE9D
:104683007003E9640470E390051AE0601F78E87929
:1046930004FAE82433F582E93400F583E0F5D98898
:1046A300828983A3A882A9831AEA70E675E19590AB
:1046B3000A1A74B6F0A3740AF0A37406F0A3740C78
:1046C300F0A37406F0A3740CF0A37406F0A3740CA7
:1046D300F0A374B0F0A3740AF0A37406F0A3740CEF
:1046E300F0A374C8F0A3740AF0900A287406F0A328
:1046F300740CF0A37406F0A3740CF0A37406F0A377
:10470300740CF0A37406F0A3740CF0A37406F0A366
:10471300740CF0A37406F0A3740CF09004E8E0F8B2
:10472300A3E0C8240EF582E83400F58374FFF0A3F8
:10473300F0A3F0A3F09004E8E0F8A3E0C82414F594
:1047430082E83400F5837412F09003A27401F0FF41
:1047530002177774F71216A59004FAE02407F5D927
:104763009004EAE0C4333354C04402F5D978E879BD
:104773000488828983A3A3A3E0F5D988828983A3CC
:10478300A882A983E864EE7003E9640470E39004EB
:10479300FAE0601F78E87904FAE82413F582E93433
:1047A30000F583E0F5D988828983A3A882A9831AB7
:1047B300EA70E675E195900A1A74C2F0A3740AF0E0
:1047C300A374C2F0A3740AF0A374C2F0A3740AF032
:1047D300A374C2F0A3740AF0A374C2F0A3740AF022
:1047E300A374C2F0A3740AF0A374C8F0A3740AF00C
:1047F300900A287406F0A3740CF0A37406F0A37453
:104803000CF0A37406F0A3740CF0A37406F0A37465
:104813000CF0A37406F0A3740CF0A37406F0A37455
:104823000CF09004E8E0F8A3E0C8240EF582E83425
:1048330000F58374FFF0A3F0A3F0A3F09004E8E085
:10484300F8A3E0C82414F582E83400F5837414F067
:104853009003A27404F0024B1D74F71216A5900482
:10486300FAE02407F5D99004EAE0C4333354C04492
:1048730006F5D978E8790488828983A3A3A3E0F5B0
:10488300D988828983A3A882A983E864EE7003E9A7
:10489300640470E39004FAE0601F78E87904FAE8AE
:1048A3002413F582E93400F583E0F5D988828983FE
:1048B300A3A882A9831AEA70E690051AE02407F5F3
:1048C300D99004EAE0C4333354C04404F5D978E8FA
:1048D300790488828983A3A3A3E0F5D98882898395
:1048E300A3A882A983E864EE7003E9640470E390EB
:1048F300051AE0601F78E87904FAE82433F582E9C1
:104903003400F583E0F5D988828983A3A882A9833B
:104913001AEA70E675E195900A1A74BCF0A3740A5A
:10492300F0A37406F0A3740CF0A37406F0A3740C44
:10493300F0A37406F0A3740CF0A37406F0A3740C34
:10494300F0A37406F0A3740CF0A374C8F0A3740A64
:10495300F0900A287406F0A3740CF0A37406F0A375
:10496300740CF0A37406F0A3740CF0A37406F0A304
:10497300740CF0A37406F0A3740CF0A37406F0A3F4
:10498300740CF09004E8E0F8A3E0C8240EF582E884
:104993003400F58374FFF0A3F0A3F0A3F09004E8D0
:1049A300E0F8A3E0C82414F582E83400F583741515
:1049B300F09003A27403F0024B1DC082C0839004E5
:1049C300E8E0F8A3E0C82406F582E83400F583E4C0
:1049D3000241EC74F71216A59003D0E0F875F003CA
:1049E300A4C8AAF02AF974D228F8740339F9E82480
:1049F30005FAE93400FB8A828B83E0FCA3E0FD889F
:104A0300828983A3A3A3A3A3A3A3A3A3ECF0A3EDEE
:104A1300F088828983A3A3A3A3A3A3A3E024FFF81D
:104A2300A3E034FFF98A828B83E8F0A3E9F0024B19
:104A33001D74F71216A5EAFEEBFF9061D0E0600348
:104A4300024B1175D90E75D90375D904EE248BF574
:104A530082EF3400F583E5822408F8E5833400F916
:104A6300E0F5D9A3E865827003E9658370F2EE246B
:104A730083F582EF3400F583E5822404F8E583347B
:104A830000F9E0F5D9A3E865827003E9658370F264
:104A930075E1957908EE248BFAEF3400FB120BB223
:104AA3007904EE2483FAEF3400FB120BB27C00EEA0
:104AB300F8EFF9ECFAC3E49AFA95E0FBEE2AFAEF81
:104AC3003BFBEA248AF582EB3400F583E0C0E0E89F
:104AD30024AAF582E93400F583D0E0F00C888289BA
:104AE30083A3A882A983ECC3940840C7EE246FF57F
:104AF30082EF3400F583E0F8A3E0F9EE2471F58248
:104B0300EF3400F583E8F0A3E9F07901800279003E
:104B13008008F0EEA2E092AF79007F01021777C020
:104B230082C08375D90275D90375D90575E195EAF4
:104B3300246FF582EB3400F583E0F8A3E0F9EA246F
:104B430071F582EB3400F583E8F0A3E9F079010213
:104B530041EF74F61216A5EAFEEBFF9005457406C5
:104B6300F075084575090578081218B87C017903B2
:104B7300120BFA740212164B75D90675D903758296
:104B830045758305E0F5D9A3E582644A7004E5839E
:104B9300640570F075E1959003A2E06408701EEE61
:104BA300246FF582EF3400F583E0F8A3E0F9EE24F7
:104BB30071F582EF3400F583E8F0A3E9F07901029F
:104BC3004E2374F61216A5EAFEEBFF9061D0E07057
:104BD300667801900545740BF09003A2E0640770BA
:104BE3001975084575090578081218B87C01790309
:104BF300120BFA740212164B7805740128F5D97555
:104C0300D903758245758305E8FAE0F5D9A31AEA55
:104C130070F875E195EE246FF582EF3400F583E0CB
:104C2300F8A3E0F9EE2471F582EF3400F583E8F0A0
:104C3300A3E9F0790180027900024E2374F712167A
:104C4300A5EAFEEBFF75D90375D90375D90DEE24DB
:104C5300DDF582EF3400F583E0F5D975E19579044C
:104C6300120D08EE246FF582EF3400F583E0F8A30C
:104C7300E0F9EE2471F582EF3400F583E8F0A3E95F
:104C8300F07901024B1D74F61216A5EAFEEBFF90B4
:104C930061D0E0F87480C398FAEE2482F582EF3491
:104CA30000F583E06004780480027800E8240BF8C0
:104CB300EAC3985003024D4E7D09900545EDF0EE91
:104CC30024E2F8EF3400F97A467B057C0888828970
:104CD30083E08A828B83F088828983A3A882A98355
:104CE3008A828B83A3AA82AB831CEC70E0EE2482BE
:104CF300F582EF3400F583E0601D750845750905FD
:104D030078081218B87C097903EEFAEFFB120BFA54
:104D1300740212164B7D0D74012DF5D975D90375E7
:104D230082457583058D08E0F5D9A31508E508705C
:104D3300F675E1957904120D08EE241DF582EF3422
:104D430000F583E4F0A3F0790180027900024E2399
:104D530074F61216A5EAFEEBFF9061D0E0F87480BA
:104D6300C398FAEE2482F582EF3400F583E0600401
:104D7300780480027800E82408F8EAC39850030214
:104D83004E217806900545740CF09003BFE0900522
:104D930046F09003C0E0900547F09003C1E0900512
:104DA30048F09003C2E0900549F09003C3E09005FA
:104DB3004AF0EE2482F582EF3400F583E0601B7540
:104DC300084575090578081218B87C067903EEFAC8
:104DD300120BFA740212164B780A740128F5D9756E
:104DE300D9037582457583058808E0F5D9A31508AD
:104DF300E50870F675E1957904120D08EE246FF558
:104E030082EF3400F583E0F8A3E0F9EE2471F58234
:104E1300EF3400F583E8F0A3E9F07901800279002B
:104E23007F0202177774F61216A5EAFEEBFF906174
:104E3300D0E0F87480C398FAEE2482F582EF340050
:104E4300F583E06004780480027800E82404F8EA3B
:104E5300C3985003024F027802900545E8F0EE2410
:104E6300F4F582EF3400F583E0900546F0EE2482FA
:104E7300F582EF3400F583E0601B7508457509057D
:104E830078081218B87C027903EEFA120BFA74024E
:104E930012164B7806740128F5D975D90375824526
:104EA3007583058808E0F5D9A31508E50870F6753C
:104EB300E195EE2473F582EF3400F583E4F0EE24FC
:104EC3007FF582EF3400F583E4F0EE241DF582EFE5
:104ED3003400F583E4F0A3F07904120D08EE240DF9
:104EE300F582EF3400F583E0F8A3E0F9EE2471F5E1
:104EF30082EF3400F583E8F0A3E9F07901800279C9
:104F030000024E2374F61216A59061D0E0F8748067
:104F1300C398FCEA2482F582EB3400F583E0600455
:104F2300780480027800E82404F8ECC398405B79A5
:104F3300029005457407F0EA24F5F582EB3400F599
:104F430083E0900546F0EA2482F582EB3400F58392
:104F5300E0601875084575090578081218B87C02D1
:104F630009120BFA740212164B7906740129F5D94A
:104F730075D903758245758305E9F8E0F5D9A3185A
:104F8300E870F875E195790180027900024E237487
:104F9300F51216A5E9FCA2AFE433F50AC2AF7D0012
:104FA30080010DEA246EF582EB3400F583E0F8ED21
:104FB300C398501A8D08EA2508F8EB3400F9E82461
:104FC3006AF582E93400F583E06C70D68024EA2424
:104FD3006EF8EB3400F9E0FEEA2EFAEB3400FBEA5C
:104FE300246AF582EB3400F583ECF088828983E050
:104FF30004F0E50AA2E092AF7F0302177774F6127A
:1050030016A5A2AFE433FDC2AFEA246EF582EB34FA
:1050130000F583E014F07C0060368C08EA2508F87C
:10502300EB3400F9E8246BF582E93400F583E0C042
:10503300E0E8246AF582E93400F583D0E0F00CEA75
:10504300246EF582EB3400F583E0F8ECC39840CA94
:10505300EA246DF582EB3400F58374FFF0EA2469EA
:10506300F582EB3400F583E4F0EDA2E092AF024E5B
:1050730023C082C083E5A8F8C2AFEA246AF582EBB5
:105083003400F583E9F0EA2469F582EB3400F58313
:10509300E4F0E8A2E7A2E792AF0241EF74F312163D
:1050A300A5EAFEEBFFECFAEDFB8A828B83A3A3A3B5
:1050B300A3E0541FF0EE2436F582EF3400F583E4C9
:1050C300F0F50AEEFCEFFD8A828B83E0C0E0EC246E
:1050D3005DF582ED3400F583D0E0F0750B00E50A51
:1050E30033333354F8F50C8A828B83E0F508750962
:1050F30000E50B7808121603E508A2E0502FEE2412
:1051030036F8EF3400F988828983E0F508EE250844
:10511300F508EF3400F509E5082438F582E509348C
:1051230000F583E50CF088828983E004F0050B0524
:105133000CE50BC3940840AF050A8A828B83A3AAAC
:1051430082AB838C828D83A3AC82AD83E50AC39447
:105153000550030250CA7F0502177774F71216A58C
:105163009003CEE0640170030252BC7A009003D432
:10517300E060030252BC7401F0A3E4F0A3F09004D6
:105183003404F0900439F09003D7E4F0A3F0A3F0D3
:10519300A3F09003E104F0900407E4F09003EAF035
:1051A300A3F0A3F0A3F0A3F0A3F0A3F0900451F0B5
:1051B300900445F090043A7480F0A3E4F090044026
:1051C300F09004BCF0A3F0A3F0A3F0A3F0A3F0A32A
:1051D300F0A3F09004C5F0900454F09004A4F0A35D
:1051E300F0A3F0A3F0A3F0A3F0A3F0A3F0A3F0A324
:1051F300F09004B0F09004B2F09004AEF09004C8C4
:10520300F0A3F0A3F0A3F0A3F0A3F0A3F0A3F0782E
:10521300CE7903E8246EF582E93400F58374FFF058
:105223000A88828983A3A882A983EAC3940440E3FA
:105233007ACE7B0378DC790488828983E0C0E0EA54
:105243002461F582EB3400F583D0E0F08882898312
:10525300A3A882A9838A828B83A3AA82AB83E864EF
:10526300E17003E9640470D07ACE7B0378B57903E7
:1052730088828983A3E0C0E0EA24E6F582EB340068
:10528300F583D0E0F088828983A3A882A9838A82E8
:105293008B83A3AA82AB83E864BD7003E9640370C4
:1052A300CF9003CEE004F0640170089003D6E09041
:1052B30003D0F07AD27B0380047A007B00024B1D7B
:1052C300C082C0839003D5E4F09003D4F09003CE62
:1052D300F0A3F0A374FFF075E1F10241EFC082C0C7
:1052E30083780079009003D5E0600478D27903884D
:1052F300828983A3A3A3A3E0F90241EF74F61216F4
:10530300A5EAFEEBFFEE2463F582EF3400F583E0BC
:10531300F8A3E0F9E84970030253A4EE2463F8EF1D
:105323003400F97A007B00A2AFE433F508C2AF88FA
:10533300828983E0FCA3E0FDEC4D603A8882898397
:10534300E0FAA3E0FB8A828B83E0FCA3E0FD888282
:105353008983ECF0A3EDF08A828B83E4F0A3F088D9
:10536300828983E0FCA3E0FDEC4D700A8882898387
:10537300A3A3E4F0A3F0E508A2E092AF1211BE905C
:1053830004E2E004F09004E3E004F0EE2463F58229
:10539300EF3400F583E0F8A3E0F9E8496003025332
:1053A3001E8E828F83A3A3A3E0600F8E828F83A3BD
:1053B300A3A3E4F09003CFE014F09003CEE014F045
:1053C30070069003D074FFF08E828F83A3A3E4F062
:1053D3009004E1E0700D9003CFE064017005790063
:1053E300120CEAEEFAEFFB120C2A024E2374F712A8
:1053F30016A5EAFEEBFF8E828F83A3A3A3A3E0FA95
:105403007B00120906EEFAEFFB120B7C120C120260
:105413004B1DC082C08378B5790388828983A3E456
:10542300F088828983A3A882A983E864BD7003E915
:10543300640370E69003B674010241EE74F612162B
:10544300A5EAFEEBFFEC2403F8ED3400F9880889A4
:1054530009EC2407F8ED3400F9E8FCE9FD8C828DB2
:1054630083E0F8A3E0F9850882850983E0FAA3E0E5
:10547300FB1215AAEE240DF582EF3400F583E8F054
:10548300A3E9F08C828D83E0F8A3E0F98508828597
:105493000983E0FAA3E0FB1215AA8B09EA45096028
:1054A30013EE240DF582EF3400F583E02401F0A31D
:1054B300E03400F0024E2374F61216A5EAFEEBFF69
:1054C300EE242EF582EF3400F583E0FCA3E0FD78B3
:1054D3000079FAECFAEDFB1215AAEE246FF582EFD0
:1054E3003400F583E8F0A3E9F0780079FAECFAEDFB
:1054F300FB1215AA8B09EA45096013EE246FF582A6
:10550300EF3400F583E02401F0A3E03400F0024E11
:105513002374EC1216A5EAFEEBFF741412168178BD
:10552300081214ED120CAE8A0C8B0D8C0E8D0F75B8
:105533001002751100751200751300780C791012A2
:1055430014537510FF7511FF7512FF780C79101243
:1055530014B4780C1218B48E828F83E0F8A3E0F5AC
:10556300838882A3A312150B1222C1740412164B53
:10557300E960030256788E828F83E02402F8A3E069
:105583003400F9E8FAE9FB8A828B837808121479EC
:105593008A828B837508FF7509FF750AFF750B00F7
:1055A30078081214DAEE240BF582EF3400F583C089
:1055B30082C0838E828F83A3A3A3A3A3E02401F8D5
:1055C300A3E03400F9D083D082E0687003A3E069DC
:1055D3007005790102567A8E828F83A3A3A3A3A3B6
:1055E300A3A3E02401F0A3E03400F0EE2473F582DA
:1055F300EF3400F583E064017036EE2474F582EF36
:105603003400F583E0F8A3E0F98E828F83A3A3A38C
:10561300A3A3A3A3E0687003A3E0697013EE24744B
:10562300F582EF3400F583E02401F0A3E03400F0C9
:10563300EE247FF582EF3400F583E064017036EEEB
:105643002480F582EF3400F583E0F8A3E0F98E823D
:105653008F83A3A3A3A3A3A3A3E0687003A3E06919
:105663007013EE2480F582EF3400F583E02401F01B
:10567300A3E03400F0790002438774F61216A5E91B
:10568300FEECFFEA2462F582EB3400F583E064016B
:1056930060030257269061D0E0F508EA2482F58280
:1056A300EB3400F583E060047804800278007480B2
:1056B300C39508FC95E0FDEF28F8E43400F9E824ED
:1056C30002F8E93400F9EC98ED99A2D265D03340A1
:1056D3004E740A121681E0F508A3E0F509EA248264
:1056E300F582EB3400F583E0601578081218B8EF03
:1056F300FCEEF9120BFA740212164B74042FFF74AA
:10570300012FF5D98ED9EF600F850882850983F8BB
:10571300E0F5D9A318E870F875E19579008006796A
:1057230007800279FF024E2374F71216A5A2AFE495
:1057330033FEC2AF8A828B83E0F8A3E0F9E8498A9B
:10574300828B83600AA3A3E0F8A3E0F5838882EC4D
:10575300F0A3EDF08A828B83A3A3ECF0A3EDF08C8E
:10576300828D83E4F0A3024B1574F71216A5E9604A
:1057730021F88C828D83E08A828B83F08C828D83E7
:10578300A3AC82AD838A828B83A3AA82AB8318E8FE
:1057930070E0ECFAEDFB024B1D74F41216A5907841
:1057A30003E064427055900544E014F0704DC2AFBD
:1057B3001257B600782AD0E0F618D0E0F6E59F54E9
:1057C3000770057509FF800375097FC4C0E0782958
:1057D300E6F50808E65509F509740B78081216135F
:1057E300D0E02508F8906270E0A2E740F8E8C33300
:1057F300906272F0906270E0D2E0F09003D0E0F437
:105803007003025B96E0F875F003A4C8AAF02AF9C6
:1058130074D228FE740339FFEE2401F582EF3401BC
:10582300F583E0F8A3E0F9E849601EEE2401F58270
:10583300EF3401F583E0FAA3E0FBEE2400F582EFF9
:105843003401F583E0F9120FC08E828F83A3A3A3E3
:10585300A3A3A3A3E0F8A3E0F98E828F83A3A3A35A
:10586300A3A3E8F0A3E9F0906054E09003A9F090BB
:105873006055E09003AAF0906056E09003ABF0907F
:105883006057E09003ACF0906058E09003ADF09067
:105893006059E09003AEF090605AE09003AFF0904F
:1058A300605BE09003B0F090605CE0FC9003B1F0CB
:1058B30090605DE0FB9003B2F090605EE0FD9003CA
:1058C300B3F090605FE0FA9003B4F09003AFE08C24
:1058D300082508F8E43400F98D08E82508F8E934C8
:1058E30000F98B08E82508F8E93400F98A08E82567
:1058F30008FAE93400FBEE24F6F582EF3400F58371
:10590300E02AF0A3E03BF08C08EE24F8F582EF34B4
:1059130000F583E02508F0A3E03400F0EE24FAF567
:1059230082EF3400F583E02401F0A3E03400F0EECD
:1059330024FEF582EF3400F583E0F8A3E0F9E849AB
:105943006042906000E0C333FCE433FDE82CF58251
:10595300E93DF583E02AF0A3E03BF0906000E0FA34
:105963009003B1E0FCEAC333FAE433FBE82AF8E935
:105973003BF9E8244AF582E93400F583E02CF0A3EF
:10598300E03400F09003AFE070119003B2E0700BCD
:10599300A3E07007A3E07003025A938E828F83A360
:1059A300A3A3A3A3E0F8A3E0F9EE240DF582EF345B
:1059B30000F583E028F8A3E039F9EE240BF582EF34
:1059C3003400F583E8F0A3E9F0EE240FF582EF3419
:1059D30000F583E4F0EE241CF582EF3400F583E058
:1059E3006401701EEE2420F582EF3400F583E0F8A5
:1059F300A3E0F9EE241DF582EF3400F583E8F0A36C
:105A0300E9F09003AAE06052EE241CF582EF340023
:105A1300F5837401F0EE2469F582EF3400F583E039
:105A23007038EE2473F582EF3400F583E0702BEECB
:105A3300247FF582EF3400F583E0701EEE2420F519
:105A430082EF3400F583E0F8A3E0F9EE241DF5823C
:105A5300EF3400F583E8F0A3E9F0906062E07003AF
:105A6300025B468E828F83E0F8A3E0F9E82406FC0C
:105A7300E93400FDE82402FAE93400FB120CA88E95
:105A8300828F83E0F8A3E0C82412F582E8025B4C1E
:105A93009003B1E0603AEE240FF582EF3400F58312
:105AA300E4F0EE241CF582EF3400F583E06401702A
:105AB30040EE2420F582EF3400F583E0F8A3E0F90B
:105AC300EE241DF582EF3400F583E8F0A3E980208E
:105AD300EE24FCF582EF3400F583E02401F0A3E02B
:105AE3003400F0EE241DF582EF3400F583E4F0A3D7
:105AF300F0EE240BF582EF3400F583E0F8A3E0F930
:105B03008E828F83A3A3A3A3A3E0687003A3E0699A
:105B13006003025A05EE240FF582EF3400F583E0AB
:105B230060128E828F83A3A3A3A3A3E064057002F4
:105B3300A3E0600479088002793EEEFAEFFB120BD2
