:020000040000FA
:0600000002011A0222DBDE
:03002B00022A683E
:03003B00022A8D09
:03004300022A0F7F
:0300530002234E37
:03006B00022A372F
:10008300022147E5C754F84401F5C779012200006E
:100093000080FB120086B90003020104E479217891
:1000A30008B800028004F709D8FCE479297802B87B
:1000B30000028004F709D8FCE4900281782B790AC6
:1000C3008002F0A3D8FCD9FA781A90014A7A01BACF
:1000D30000028007E493A3F608DAF97AAB7B0B906E
:1000E300014B789079048015E493A3AD82AE838AA3
:1000F300828B83F0A3AA82AB838D828E83D8E9D9C6
:10010300E77582A175837F740012012C7582917546
:100113008300740012012C75D00075813F7518811E
:10012300751902759F00020096C09FF59FE473D076
:100133009F22D083D082C09FE493C0E0740193C018
:10014300E0740293F59F2201FF0000B40000280031
:100153002800283075A000A000A000A0000008001F
:1001630008E001F000100010001000100010001053
:100173000050005000500010001000D00700000095
:100183000000000F0001000500307507001000019A
:100193000081FF00000000FFD806F606DE06FF021E
:1001A300020208025000A0000000E80302C381011C
:1001B3000000AD8102BF81010000020C02B3810186
:1001C3000000B30202BF81010000030C02ED8101B4
:1001D3000000C90202BF81010000040C02B78101C3
:1001E3000000CB0202BF81010000050C02B98108A7
:1001F3000000CC0202BF81010000060C02BB81019A
:100203000000070CFF0100FFA80CA80CA80CA80C09
:10021300A80CA80CA80CA80CA80CA80CA80CA80C3B
:10022300A80C3C0F540F360F4E754E752054657352
:10023300746572000A094E754E75205465737465B2
:1002430072051214006400020AFF0201050702038B
:1002530018021804184E754E752054657374657230
:1002630000000000000000000000501032100000E9
:10027300FFFF020202020202020202010D0000005D
:10028300100102C381010000A48102BF81010000AB
:10029300D50C02E7810100008F0702BF8101000036
:1002A300D60C02E581010000158102BF8101000027
:1002B300D70C02E381010000F98002BF8101000035
:1002C300D80C02E181010000B78002BF8101000068
:1002D300D90C02CF81010000A58002BF810100007B
:1002E300DA0C02CD81010000938002BF810100007E
:1002F300DB0C02CB81010000818002BF8101000081
:10030300DC0C02C981010000078102BF81010000EA
:10031300DD0C02C781010000DE0C01E803053F107C
:100323000A1A4E756E75203100001A4E756E7520CF
:100333003200001A4E756E75203300001A4E756E2A
:1003430075203400001A4E756E75203500001A4E64
:10035300756E75203600001A4E756E7520370000D5
:1003630002C381010000A78102BF81010000840D47
:1003730002D381030000340A022A81030000480AE1
:1003830002B581010000850D02BF810100008D0DC2
:1003930002D5810300004E0A022A81030000620A8B
:1003A30002B5810100008E0D02BF81010000960D90
:1003B30002D781030000680A022A810300007C0A35
:1003C30002B581010000970D02BF810100009F0D5E
:1003D30002D981030000820A022A81030000960ADF
:1003E30002B581010000A00D02BF81010000A80D2C
:1003F30002DB810300009C0A022A81030000B00A89
:1004030002B581010000A90D02BF81010000B10DF9
:1004130002DD81030000B60A022A81030000CA0A32
:1004230002B581010000B20D02BF81010000BA0DC7
:1004330002DF81030000D00A022A81030000E40ADC
:1004430002B581010000BB0D0000000000000000A8
:10045300FF000130750302010600000000000000E8
:100463000000000000000000000000000000000089
:100473000000000000FFFF0600800CE8031202C327
:1004830081010000B08102BF81010000E00E02EB98
:10049300810100009B0B022A810300009C0B104B7F
:1004A300657920507265737320537461746500021B
:1004B300C381010000AA8102BF81010000010F0274
:1004C300F181000000A40B022A81030000A50B02A6
:1004D300B581010000020F12013587D003120135E7
:1004E3009ED003120135CFD0031201350AD1031276
:1004F300013534D1031201355ED10312013575D1B3
:10050300031201358CD103120135A3D10312013536
:10051300CCD103120135DFD103120135F5D103121A
:10052300013508D2031201352FD20312013545D804
:100533000212013549D90212013581D9021201355E
:10054300A4D902120135AFD902120135D2D9021250
:100553000135E1DA02120135B6DB0212013531DC75
:1005630002120135B9DC02120135F4DC0212013545
:100573002BDD02120135B9DD0212013592DE0212C2
:100583000135F2DE02120135FDDE021201357CDF98
:10059300021201357FDF0212013582DF02120135BB
:1005A30011E00212013514E00212013544E0021297
:1005B30001356EE0021201355CE1021201350EE2F3
:1005C30002120135ABA603120135D3A6031201357E
:1005D30001A70312013538A70312013596A70312A9
:1005E3000135E1A7031201352CA8031201356CA8CC
:1005F30003120135B2A803120135E0A80312013535
:100603009DA903120135A7A903120135B4A9031249
:100613000135E7A903120135B3AA03120135BFAAB5
:1006230003120135D7AA03120135E1AA03120135DA
:1006330004DB0312013512DB031201352ADB03123B
:10064300013542DB031201356CDE0112013518DF7F
:100653000112013593DF01120135B4E001120135B6
:10066300F0E00112013599E10112013580E2011236
:100673000135E4E3011201353BE401120135BCE429
:1006830001120135ACE501120135F9E5011201351D
:100693007FE601120135B1E601120135C5E8011209
:1006A300013507E90112013525E901120135A8E9F0
:1006B300011201357CEA0112013544EB01120135C7
:1006C3007A87031201354D8803120135F688031228
:1006D3000135498903120135F98903120135858AE8
:1006E30003120135718B03120135A08B03120135FF
:1006F300B38C03120135FB8C03120135D08D031229
:1007030001350C8E03120135288E0312013525DFC6
:100713000312013522B40312013538B40312013533
:100723005EB4031201357AB50312013584B50312A1
:100733000135B9B603120135B1B70312013591FA88
:1007430002120135C1FB02120135F4FB021201351D
:100753003EFC0212013505FE021201357DCE011267
:100763000135E7CE0112013546D00112013556D0CD
:100773000112013583D001120135DAD0011201359E
:1007830083D1011201358AD20112013554D30112EA
:100793000135B4D401120135F7D4011201359CD5CA
:1007A30001120135E9D5011201350FD601120135C8
:1007B3001DD80112013522D80112013527DA0112A1
:1007C300013574DA01120135E7DA011201351ADB5A
:1007D30001120135BCDB0112013565DC0112013563
:1007E3009DDC01120135A0DC01120135E8DC0112A8
:1007F300013528DD011201357FDD01120135CEC639
:1008030003120135E6C6031201352EC70312013563
:1008130044C7031201358BC7031201359FC8031266
:1008230001352CC90312013577C9031201353C4840
:100833000012013548480012013583480012013582
:10084300C848001201358849001201350E4A0012CA
:100853000135784A00120135B14A00120135EF4CD7
:1008630000120135D34E00120135B9500012013583
:10087300FC51001201354A54001201355C55001237
:100883000135A75600120135B75700120135D45769
:10089300001201350F580012013539580012013585
:1008A300FA5C001201358F5D00120135E05D001224
:1008B3000135075E00120135595E00120135775E7E
:1008C30000120135D15E00120135BA5F0012013505
:1008D300306100120135B46100120135D7A1031252
:1008E3000135E1A10312013524A2031201353FA210
:1008F30003120135CFA203120135F7A2031201350A
:1009030034A3031201356BA30312013594A303121D
:10091300013509A4031201351EA40312013533A4C2
:100923000312013564A40312013578A403120135BF
:100933009DA403120135D7A40312013503A50312A5
:1009430001353BA503120135E5A5031201352EA69A
:100953000312013558A60312013583A6031201358C
:1009630010D90312013518A90212013546A9021242
:10097300013594AA0212013574AB0212013593AB0F
:100983000212013510AC0212013553AC02120135CB
:10099300A9AD021201356AAE02120135F1B002129D
:1009A300013592B10212013588B20212013585B3C5
:1009B30002120135DFB4021201356AB502120135A4
:1009C300E6D3031201354FD403120135A3D4031226
:1009D3000135CAD403120135FBD40312013568ABC8
:1009E30003120135D5AB031201351CAC03120135DB
:1009F30034AD0312013530AE0312013513AF0312C8
:100A030001357FE202120135C1E20212013593E39F
:100A1300021201356CE40212013566E5021201355A
:100A230048E602120135B1E60212013567E7021208
:100A33000135DBE70212013547E80212013570E8A0
:100A430002120135EAE80212013583E90212013587
:100A5300E8E902120135FDE90212013543EA021207
:100A630001355CEA02120135C1EA02120135C4EA1A
:100A73000212013517BE031201353FBE03120135C1
:100A83007DBE031201353BBF03120135A2BF031222
:100A93000135BEBF03120135E6BF0312013516C08F
:100AA3000312013525C003120135A2C0031201351B
:100AB300C8C0031201356FBE011201354DC00112CA
:100AC30001357FC201120135BBC201120135E8C2F3
:100AD30001120135D2C3011201351DC401120135C2
:100AE30068C4011201357AC401120135BAC4011276
:100AF3000135EFC4011201353DC5011201356CC545
:100B0300011201358FC501120135DCC50112013512
:100B130061C6011201357BC801120135BACA01123F
:100B23000135FBCA011201359DCC01120135DECC22
:100B33000112013551CD01120135A2CD011201354A
:100B4300039C02120135019D021201359AA3021280
:100B53000135BBA50212013586A702120135EEA8A5
:100B6300021201351B6200120135CA6200120135FF
:100B7300F762001201353D63001201357364001200
:100B83000135A16400120135376600120135B166E3
:100B930000120135CC66001201354767001201359A
:100BA300A16800120135016A00120135076B0012BA
:100BB3000135686C00120135816C00120135DF6C60
:100BC30000120135CD6D00120135006E00120135A2
:100BD300706E00120135EA6E00120135346F001297
:100BE3000135FE6F00120135D37000120135B27169
:100BF300001201353D7200120135AB72001201354E
:100C03001F73001201354A73001201350974001273
:100C130001356E75001201358B7500120135AA7509
:100C2300001201359B7600120135C07600120135A2
:100C3300EA7600120135657700120135BF7700129D
:100C43000135287900120135D67900120135177A5A
:100C5300001201352F8E021201357D8E02120135ED
:100C6300898E02120135678F02120135988F0212A5
:100C73000135C98F02120135499002120135819065
:100C830002120135D390021201351091021201357F
:100C93002D93021201355395021201353E9702122C
:100CA3000135289902120135C9FF02120135059752
:100CB300011201353597011201350E9E01120135DE
:100CC300939F0112013590A50112013578A60112F7
:100CD3000135B5A601120135D8A60112013509A7C0
:100CE3000112013512A7011201351CA701120135AA
:100CF3000AA80112013500A901120135F68101127A
:100D03000135F58501120135FB8501120135368D5B
:100D1300011201354F9201120135C9FB0112013550
:100D23005FFC0112013575FC01120135EBFC011268
:100D330001355FFD011201359DFD0112013511FEE3
:100D4300011201358AFE0112013593FE01120135AC
:100D53009FFE01120135B4FE01120135F2FE0112AC
:100D6300013508FF0112013567FF01120135D5AFC7
:100D730003120135E2AF03120135FCAF0312013553
:100D83003BB00312013579B003120135DEB0031213
:100D93000135F3B003120135FEB0031201350BB177
:100DA3000312013522B10312013530B103120135AB
:100DB3003BB10312013547B10312013556B103129A
:100DC300013561B10312013584B1031201352BB230
:100DD300031201353BB20312013555B2031201353B
:100DE30072B2031201358EB203120135B3B203128C
:100DF3000135BEB203120135D3B203120135E7B296
:100E03000312013548B3031201354EB30312013502
:100E130054B3031201355AB30312013572B30312EB
:100E23000135A5B30312013505800212013589800E
:100E330002120135388102120135978202120135FF
:100E4300B88402120135A48502120135D985021234
:100E53000135FB8502120135AA8602120135A288EB
:100E630002120135CB88021201355D890212013568
:100E73008F89021201359C8902120135F38902120E
:100E83000135198A02120135868C02120135898DCA
:100E930002120135E18D021201355DED01120135BA
:100EA30067EE011201354EEF0112013558EF0112C1
:100EB30001357AEF0112013586EF011201351FF179
:100EC300011201354EF1011201356AF201120135A9
:100ED300C3F20112013529F40112013508F501129B
:100EE300013564F501120135D1F5011201350CF616
:100EF300011201354BF60112013504F901120135D6
:100F03001EF901120135AAF901120135B8F90112CE
:100F1300013511FA011201351FFA0112013592FA56
:100F230001120135F6FA0112013540FB01120135B8
:100F3300B5C202120135D7C202120135FDC4021235
:100F4300013512C8021201352AC902120135DDC961
:100F530002120135BFCA0212013541D20312013513
:100F630066D203120135D8D2031201350080031271
:100F73000135098003120135128003120135E9801E
:100F8300031201359A8203120135D082031201350F
:100F93000A83031201354083031201357A83031256
:100FA3000135AE8303120135DA830312013523843D
:100FB300031201355D8403120135A6840312013542
:100FC300FE84031201353385031201358E85031226
:100FD3000135C885031201351986031201354F8681
:100FE30003120135898603120135B78603120135D1
:100FF300DA860312013594DC03120135C0DC0312D7
:1010030001351BDD0312013525DD0312013535DD05
:10101300031201359D8E031201358F9003120135A2
:101023006F91031201359A910312013558920312FD
:101033000135B592031201354193031201356493CF
:10104300031201357B9403120135A4940312013575
:1010530029950312013502F30212013517F3021227
:10106300013573F302120135DEF30212013526F462
:101073000212013590F402120135BFF40212013558
:10108300CDF4021201352FF5021201356DF502126E
:10109300013588F50212013523F602120135C8F62F
:1010A300021201354BF70212013584F702120135A2
:1010B3000FF80212013566F802120135C5F8021263
:1010C3000135D7F802120135FDF80212013506F990
:1010D300021201355AFA02120135D6D7031201352D
:1010E300B4D803120135A1C903120135E6C90312AD
:1010F30001352CCA03120135F5CB03120135E2DDAC
:1011030003120135A9DF03120135C4DF03120135D0
:10111300D4DF03120135E8EA0212013508EB0212AB
:1011230001357EEC02120135CCEC02120135ECECF8
:101133000212013554ED02120135D6ED02120135CA
:101143001CEE02120135A8EE02120135F1F2021271
:10115300013594D603120135C5D603120135EFD6F6
:10116300031201350FD7031201356DD70312013571
:10117300C99B03120135EE9B03120135269C031212
:10118300013585DE03120135102B00120135292E9E
:1011930000120135DB2F001201357F3000120135BB
:1011A300223100120135D931001201350832001203
:1011B3000135C636001201355D3700120135993805
:1011C30000120135013900120135B539001201351C
:1011D3006B3C00120135A53C001201350F3D001296
:1011E30001356D3D00120135CB3D00120135283E1E
:1011F30000120135173F001201355D3F0012013522
:10120300A23F00120135C53F00120135084100120B
:1012130001351C410012013525420012013564429B
:1012230000120135904200120135DF4200120135F0
:101233000043001201353E4300120135854500127B
:101243000135C64500120135644600120135CF460B
:1012530000120135084800120135B8FF02120135AA
:10126300F5C303120135C0C603120135C3FF0112D2
:10127300013529DA0312013539DA0312013556DA59
:1012830003120135F6DA0312013510BB03120135DF
:10129300BABB03120135FCBD0312013541D503125C
:1012A300013573D503120135D3D503120135EAD5C0
:1012B3000312013546D60312013583D603120135D5
:1012C30086D603120135477A00120135667A001279
:1012D3000135FB7A00120135F97B00120135BA7E24
:1012E300001201351A7F00120135837F0012013588
:1012F300F87F0012013510C1031201353EC30312FA
:101303000135AAC3031201357495031201357B9786
:1013130003120135019803120135089903120135AF
:10132300CC99031201354A9A031201352D9B0312FE
:101333000135309B031201353E9B031201355B9B44
:1013430003120135849B03120135AD9B0312013552
:10135300BB9B03120135EBB50212013530B6021205
:1013630001354DB6021201353DB9021201358EBA6F
:10137300021201353ABD0212013578C2021201355B
:10138300A7CE031201350ECF03120135B9CF0312D5
:1013930001352FD003120135BBB703120135EEB768
:1013A30003120135F4B80312013549BA03120135AA
:1013B300E3CD02120135BFCE0212013506CF021270
:1013C300013543CF02120135B1CF021201350BD0E3
:1013D300021201357BD00212013553D102120135BD
:1013E30046D202120135CAD2021201356DD402125D
:1013F3000135F8D40212013588D50212013521D600
:101403000212013538D60212013573D702120135A3
:10141300C9D70212013518AB01120135BCAF011255
:101423000135ADB201120135D6B201120135FFB259
:1014330001120135B1B3011201358FB50112013526
:10144300E1B60112013528BC0112013561BC01125C
:101453000135A5BC01120135B1BD011201353FDDD6
:1014630003120135DBDB03120135EFDB0312013518
:1014730067DC0312013539CC0312013589CC031221
:101483000135ECCC03120135B2CD031201356ACE1E
:101493000312013597FF01120135E2FF01E0667087
:1014A3001008A3E066700A08A3E066700408A3E0CE
:1014B3006622C3E7960809E7960809E7960809E74D
:1014C3009622C3E09608A3E09608A3E09608A3E05B
:1014D3009622C008C3E096F50808A3E096420808E0
:1014E300A3E096420808A3E09645087001D3D0080C
:1014F30022080808EAC0E0EBC0E086F0E7A4FA1887
:101503000986F0E7A42AFA180986F0E7A42AFA184C
:101513000986F0E7A42AFA1986F0E7A4FBE5F02A86
:10152300FA190886F0E7A42BFBE5F03AFA190886C6
:10153300F0E7A42BFBE5F03AFA18180986F0E7A4C4
:10154300C5F02BFBE43AFA1908E7C5F0C6A426F662
:10155300E5F03BFBE43AFA1886F0E7A4F6E5F00879
:1015630026F6E43B08F6E43A08F6D0E0FBD0E0FACE
:1015730022E4CFC0E0E4CEC0E0E4CDC0E0E4CCC0E0
:10158300E075F020E626F608E633F608E633F608BB
:10159300E633F6181818EC33FCED33FDEE33FEEFAB
:1015A30033FFC3EC9709ED9709EE9709EF971919E4
:1015B30019400FFFEC97FC09ED97FD09EE97FE1913
:1015C3001906D5F0BFECF709EDF709EEF709EFF7C8
:1015D300191919D0E0FCD0E0FDD0E0FED0E0FF22E5
:1015E3006016080808C6C313C618C613C618C61360
:1015F300C618C613C6D5E0EA227009080808226097
:1016030016181818C6C333C608C633C608C633C669
:1016130008C633C6D5E0EA22E627F60809E637F618
:101623000809E637F60809E637F622E026F608A3A6
:10163300E036F608A3E036F608A3E036F622E02605
:10164300F008A3E036F008A3E036F008A3E036F094
:1016530022C3E697F60809E697F60809E697F6081F
:1016630009E697F622C3E096F008A3E096F008A3F4
:10167300E096F008A3E096F022E657F60809E6574D
:10168300F60809E657F60809E657F622E056F60883
:10169300A3E056F608A3E056F608A3E056F622E0C8
:1016A30056F008A3E056F008A3E056F008A3E0566E
:1016B300F022E0F608A3E0F608A3E0F608A3E0F6BC
:1016C30022E6F008A3E6F008A3E6F008A3E6F0227A
:1016D300E0FAA3E0FBA3E0FCA3E0FD22EAF0A3EB26
:1016E300F0A3ECF0A3EDF022E0F8A3E0F9A3E0FA15
:1016F300A3E0FB22E8F0A3E9F0A3EAF0A3EBF022D6
:10170300CAC0E0E6F0A308DAFAD0E0FA22CAC0E0E1
:10171300E0A3C582CCC582C583CDC583F0A3C582B2
:10172300CCC582C583CDC583DAE6D0E0CA22C3E443
:1017330098F8E499F91217728026C3E49AFAE49BA5
:10174300FBE920E7E9121772E498F8E499F922C358
:10175300E498F8E499F9121772E498F8E499F9C354
:10176300E49AFAE49BFB22EB20E7CFE920E7E0B918
:101773000010BB0008E88AF084F8AAF022E4FBC852
:10178300FA22EB70227B10C833C8C933C933500720
:10179300C39AC3DBF280069A50012ADBEAC833F40A
:1017A300C8C933F4C9FA2275F008E4C833C8C93389
:1017B300C933C99AC99B5004C92AC93BD5F0ECFB6C
:1017C300C833F4C8E4C9FA22600D08C6A2E713C6F9
:1017D30018C613C6D5E0F322600C08C6C313C61897
:1017E300C613C6D5E0F422700422600D18C6C333B5
:1017F300C608C633C6D5E0F41822251810AF08F57D
:1018030018400C15198008F51840021519D2AF229B
:1018130000C0D0251810AF08F518500C0519800822
:10182300F51850020519D2AFD0D0222518F5821031
:10183300AF08F518400C15198008F5184002151962
:10184300D2AF851983222518F582E43519F5832251
:101853002518F8E43519F9222518FAE43519FB227D
:101863002518FCE43519FD22E4732518C582C0E070
:10187300E51934FFC583C0E0E518C3958224F81049
:10188300AF08858319858218800885831985821896
:10189300D2AFCEF0A3E520F0A37808E608F0A3DEEC
:1018A300FAEFF0A3E58124FAF8E608F0A3E608F0DE
:1018B300A3E608F0A30808E608F0A3E608F0A315DA
:1018C300811581D0E0FED0E0F8158115811581E8FE
:1018D300C0E0EEC0E0222518C582C0E0E51934FF60
:1018E300C583C0E0E518C3958224F910AF0885834A
:1018F300198582188008858319858218D2AFCEF0A6
:10190300A3E520F0A37808E608F0A3DEFAEFF0A33E
:10191300E58124FBF8E608F0A3E608F0A30808E64F
:1019230008F0A3E608F0A315811581D0E0FED0E00E
:10193300F815811581E8C0E0EEC0E02285198385A2
:101943001882E0A3FEE0A3F5207808E0A3F608DF01
:10195300FAE0A3FFE0A3C0E0E0A3C0E0E0A3C0E09F
:10196300E0A3C0E0E0A3C0E010AF08858218858340
:10197300198008858218858319D2AFD083D082025B
:101983000132851983851882E0A3FEE0A3F5207850
:1019930008E0A3F608DFFAE0A3FFE0A3C0E0E0A3BA
:1019A300C0E0E0A3C0E0E0A3C0E010AF0885821868
:1019B3008583198008858218858319D2AFD083D097
:1019C3008222C0D02518C582C0E0E51934FFC58343
:1019D300C0E0E518C3958224F310AF088583198509
:1019E30082188008858319858218D2AFC8F0A3E9CD
:1019F300F0A3EAF0A3EBF0A37908E709F0A3D8FA80
:101A0300ECF0A3EDF0A3EEF0A3EFF0A3D0E0F0A38E
:101A1300D0E0F0A3D0E0F0A3E520F0A3E5F0F0A33D
:101A230022851983851882E0C0E0A3E0F9A3E0FAD8
:101A3300A3E0FBA37808E0F608A3DFFAE0FCA3E049
:101A4300FDA3E0FEA3E0FFA3E0C0E0A3E0C0E0A3AA
:101A5300E0F5D0A3E0F520A3E0A3F5F010AF0885EF
:101A630083198582188008858319858218D2AFD09F
:101A730082D083D0E0F8D0E0327404800674028010
:101A8300027401C0E0F40412182ED0E012170322EE
:101A93007404800474028000CCC0E0EDC0E0E5185B
:101AA300C39CCCAD1950011D10AF068C188D198045
:101AB300068C188D19D2AF121710D0E0FDD0E0FCC0
:101AC30022D083D082E9C0E0E493A3C386F0C5F0BB
:101AD30095F0F908E493A386F0C5F095F0700BE454
:101AE30093A3C3994005E9048002A3E475F002A41B
:101AF3002582F582E5F03583F583D0E0F9E493A3FD
:101B0300C0E0E493C0E022D083D082ECC0E0EDC01B
:101B1300E0E493A3FCE493A3FDED4C600D121B568C
:101B2300EC24FFFCED34FFFD80EFE493A3FCE4938E
:101B3300A3FDED4C600D121B95EC24FFFCED34FF6F
:101B4300FD80EFD0E0FDD0E0FCE493A3C0E0E4939C
:101B5300C0E022C0E0C3E493960874019396184052
:101B63000FE4936670080874019366187000701987
:101B7300A3A3C3E49396087401939618A3A3400DFB
:101B8300D0E0D0E0D0E0021B46A3A3A3A3A3A3D03D
:101B9300E022C0E0C0F088F0E493667008087401A6
:101BA3009366187000A8F0A3A3700BD0F0D0E0D018
:101BB300E0D0E0021B46A3A3D0F0D0E02274F512DC
:101BC30018D9EAFEEBFFEE2434F8EF3400F9880865
:101BD3008909EE2435F582EF3400F583E0F8EE242D
:101BE30037F582EF3400F583E0F50AEC850AF0A4BB
:101BF300FCAAF0850AF0EDA42AFDE82CF8E43DF9EF
:101C03007A257B00121772EA850882850983F0F82A
:101C1300740758F97401B900028004C333D9FCFA7C
:101C2300E8131313541FF8EE28F8EF3400F9E824EF
:101C33005DF582E93400F583E05A6008EE2434F55B
:101C430082EF802CEE2434F582EF3400F583E0C07C
:101C5300E0EE2436F582EF3400F583E0F5F0D0E0D2
:101C630084A8F0EE28F8EF3400F9E82438F582E987
:101C73003400F583E0F97F0402198574F51218D94D
:101C8300EAFEEBFFEE2434F582EF3400F583E0C087
:101C9300E0EE2435F582EF3400F583D0E0F08E8258
:101CA3008F83A3A3A3A3A3A3A3C082C0838E828F86
:101CB30083A3A3A3A3A3E0F8A3E0F9D083D082E096
:101CC300C398F508A3E099F509EE247FF582EF3474
:101CD30000F583E064017069EE2480F582EF34003F
:101CE300F583E0F8A3E0F98E828F83A3A3A3A3A3D4
:101CF300A3A3E0FCA3E0FD8E828F83A3A3A3A3A3EE
:101D0300E0FAA3E0FBC3EA9CEB9D5010C3EC98ED13
:101D130099402EC3EA98EB995027800EC3EA98EBBB
:101D2300994007C3EC98ED9940177CDC7D04EEFAEB
:101D3300EFFB120C06EE247FF582EF3400F583E40B
:101D4300F0EE2434F8EF3400F9E8FCE9FDEE243535
:101D5300F582EF3400F583E0F8EE2437F582EF34B3
:101D630000F583E0F50AE508850AF0A4F508AAF072
:101D7300850AF0E509A42AF509E82508F8E43509F8
:101D8300F97A257B00121772EA8C828D83F0F8743E
:101D93000758F97401B900028004C333D9FCFAE887
:101DA300131313541FF8EE28F8EF3400F9E8245DF9
:101DB300F582E93400F583E05A6008EE2434F582B5
:101DC300EF802CEE2434F582EF3400F583E0C0E09D
:101DD300EE2436F582EF3400F583E0F5F0D0E084AD
:101DE300A8F0EE28F8EF3400F9E82438F582E93456
:101DF30000F583E0F91229FB021C79C082C08385B8
:101E03001882851983E0F8A3E0F9C3EA9CEB9D509F
:101E130010C3EC98ED99401BC3EA98EB99501480DA
:101E23000EC3EA98EB994007C3EC98ED9940047907
:101E33000180027900D083D08222EAC39CFAEB9D11
:101E4300FB2274EF1218D99003A2E064086005E046
:101E53006407702A9061C8E060249003D0E0F460C6
:101E63001DE0F875F003A4C8AAF02AF974D228FE7D
:101E7300740339FF8E828F83A3A3A3E07003021F31
:101E830075906060E0C0E0EE2468F582EF3400F501
:101E930083D0E0F0750C45750D05750800750900D4
:101EA300E5D914F50AE5D95403F50E6017740365F3
:101EB3000E605CE50A6010EE2467F582EF3400F5EE
:101EC30083E07003021F5A900540E06401602AEE2C
:101ED3002482F582EF3400F583E060047804800205
:101EE3007800850A08E508C398FA95E0FB120AC84A
:101EF3008A088B09EA45097005120E0A8074EE24DC
:101F030082F582EF3400F583E070048A0C8B0DE5D3
:101F13000A6012850C82850D83F50BE5D9F0A315B4
:101F23000BE50B70F6EE2482F582EF3400F583E0C7
:101F3300604474FC250AF50A780C121A80AC0AA9CD
:101F43000EEEFAEFFB120CA27402121813E97026BC
:101F5300AA08AB09121386793D8E828F83A3A3A3AC
:101F6300A3E0FA7B0012099CEEFAEFFB120C1E129F
:101F73000CB4790080747403650E6056850A10757D
:101F830011007810121A80AC0CAD0DAA08AB09121F
:101F93000C7E7402121813EE2468F582EF3400F5F8
:101FA30083E064807004747F8001E0F50C780C1288
:101FB3001A84E50EF50C780C121A84A90AAC08AD44
:101FC300099003D0E0FA7B0012096074021218131F
:101FD30080139003A2E06408600BAC0CAD0DEEFA25
:101FE300EFFB120D0E120E1679017F0A021985748A
:101FF300F51218D974FC1217FDEAFEEBFF8908A24B
:10200300AFE433F509C2AF806AEE2463F8EF34001E
:10201300F97A007B00A2AFE433F50AC2AF88828964
:1020230083E0FCA3E0FDEC4D603A88828983E0FA0B
:10203300A3E0FB8A828B83E0FCA3E0FD8882898393
:10204300ECF0A3EDF08A828B83E4F0A3F08882891D
:1020530083E0FCA3E0FDEC4D700A88828983A3A38F
:10206300E4F0A3F0E50AA2E092AF1213869004E332
:10207300E004F0EE2463F582EF3400F583E0F8A387
:10208300E0F9E849603DEE2463F582EF3400F5831F
:10209300E02402FAA3E03400FBEA2402F50AEB345D
:1020A30000F50B780A121A808A828B83E0FCA3E086
:1020B300F9EEFAEFFB120C427402121813E97003E3
:1020C30002200C9004E3E060639004E4E0F89004E1
:1020D300E3E0C398500C7402650870509004E5E087
:1020E300604A8E828F83A3A3A3A3E08518828519F8
:1020F30083F0A3E4F09004E3E0F87402121849E8D3
:10210300F0A3E4F09004E3E0F89004E2E028F07434
:1021130002121849AC82AD83851882851983AA827D
:10212300AB83790112096C9004E3E4F0E509A2E0C2
:1021330092AF7404121813021C79000000852187E2
:102143008522C622C0E0C0D0E8C0E0E9C0E0EAC012
:10215300E0EBC0E0ECC0E0EDC0E0EEC0E0C008C0E2
:1021630009C00AC00BC082C083C0F0A2AFE433FE33
:10217300C2AF759B00906182E0A2E05012E591A28C
:10218300E0500C7591FE740165217003121E45E049
:10219300A2E55051E591A2E5504B7591DF9003A262
:1021A300E064076005E064087023740165217035FD
:1021B30079019003D0E0FA75F003A4CAA8F028FBD4
:1021C30074D22AFA74033BFB121FF28018E0640DE9
:1021D30070139003C4E004F064287002E4F07A0002
:1021E300E0F9120E1C906182E0A2E6400302228E07
:1021F300E591A2E6400302228E7591BF9003A2E00F
:1022030064057008120D44120D508003120D4A75B7
:102213002100120DAAE99003A3F07900120D9E127A
:102223000B767A017B009003A1E0F91210B090784D
:1022330003E064427055900544E014F0704DC2AF62
:1022430012224600782AD0E0F618D0E0F6E59F5433
:102253000770057509FF800375097FC4C0E07829FD
:10226300E6F50808E65509F509740B78081217DB3B
:10227300D0E02508F8906270E0A2E740F8E8C333A5
:10228300906272F0906270E0D2E0F0906181E0A21F
:10229300E35009E5E9A2E3500375E9F7A3E0A2E7F8
:1022A3005009E591A2E7500375917FEEA2E092AF4A
:1022B300D0F0D083D082D00BD00AD009D008D0E0A0
:1022C300FED0E0FDD0E0FCD0E0FBD0E0FAD0E0F9B6
:1022D300D0E0F8D0D0D0E032C0E0C0D0C082C0831C
:1022E300906183E0A2E05009E5BFA2E0500375BF0F
:1022F300FEE0A2E15009E5BFA2E1500375BFFDE096
:10230300A2E25009E5BFA2E2500375BFFBE0A2E3DE
:102313005009E5BFA2E3500375BFF7E0A2E45009FB
:10232300E5BFA2E4500375BFEFE0A2E55009E5BFA6
:10233300A2E5500375BFDFE0A2E65009E5BFA2E6C0
:10234300500375BFBFD083D0828088C0E0C0D0E87F
:10235300C0E0E9C0E0EAC0E0EBC0E0ECC0E0EDC003
:10236300E0C0F0E5A7A2E6500FE5A1A2E6500953AD
:10237300A7BF75A1BF1223B3E5A7A2E5500CE5A142
:10238300A2E5500653A7DF75A1DFE5A7A2E1500937
:10239300E5A1A2E1500375A1FDE5A7A2E2500CE57A
:1023A300A1A2E2500653A7FB75A1FBD0F00222C401
:1023B30074F81218D97521019003A2E06406701510
:1023C300120CD28A828B83A3A3A3A3A3A3E0FAA3B1
:1023D300E0FB120D32A2AFE433FED2AF9003A8E0CC
:1023E300640170187A207B009003A1E0F912113A7E
:1023F3007A207B009003A1E0F91210B6906182E08D
:10240300D2E6F0900541E0602185C6228016900354
:10241300A7E064017008E5C654F84405F5C653BE49
:10242300FC1221407401652160E4EEA2E092AF7FCB
:1024330001021985008E238F2485822885832785B1
:102443001882851983E0CEA3E0CF85288285278370
:10245300EBC9EAC8EDCBECCA75F010C3E833C8E9A1
:1024630033C9EA33CAEB33CBC3EA9EF526EB9FF5B8
:1024730025B35004AB25AA26EC33CCED33CDD5F0F0
:10248300DAAE23AF242274E91218D974F81217FDB7
:10249300851882851983ECF0A3EDF08A088B0990E7
:1024A30003A2E024F7C39405500675080102262011
:1024B300120CD28A0A8B0BAE0AAF0BEE4F700302DB
:1024C300261DAC08AD097402121849AA82AB831207
:1024D3000D628E828F83A3A3750CFF750DFF750E9E
:1024E300FF750F00780C12168F74021218497510BD
:1024F300FF7511FF7512FF751300781012168F7890
:102503000C79101214B5502A780C791012165475E0
:1025130008017509C8750A00750B007808790C1253
:1025230014B55052850C08850D09850E0A850F0BCD
:1025330080507514017515C8751600751700851040
:102543000885110985120A85130B7808790C121670
:1025530054781479081214B5401C750800750900E5
:10256300750A00750B0178087910121654780879EA
:102573000C12161B800C750801750900750A00758D
:102583000B00740978081215FC750C19F50DF50E7E
:10259300F50F7808790C1215748E828F83A3A3A389
:1025A300A3A3A3E0F8A3E0F97AD07B031217728800
:1025B3000C890DE4F50EF50F7808790C12161B74CF
:1025C30006121849E0F8A3E0F97AD07B03121772D8
:1025D300E8FA8A0CE4F50D7808790C1214B5500763
:1025E3007808790C1216549003A2E06408600AE09C
:1025F30064066005E06405702D750C0D780C790890
:102603001214B54021750CF4750DFF750EFF750F8F
:10261300FF7808790C12161B800C750800750900E9
:10262300750A00750B00851882851983E0F8A3E00D
:10263300F583888278081216C474081218137F1061
:1026430002198574F71218D9120D7490053FE064CE
:10265300017010906245E4F0A3F053F4F343FE0CD1
:102663005390F3120D20E5C654804449F5C6E59E08
:10267300547F644970F8906185740FF090053DE0D4
:10268300F47002A3E0604E90053EE0600814601B06
:1026930014602E804075080175090090053DE078AF
:1026A300081217EAE508F45280802A7508017509B3
:1026B3000090053DE078081217EAE508F45290808F
:1026C3001475080175090090053DE078081217EAB2
:1026D300E508F452A079007F0202198574F71218F5
:1026E300D9E9FEEAFF74016E700C7A807B009003D7
:1026F300A1E0F91210B0902B08E493F46008E4937E
:10270300F9120B6A800953C680E59E547F70FA1252
:102713000D2690053FE064017003120B8890053D80
:10272300E0F47002A3E0604B90053EE060081460A3
:102733001A14602C803D75080175090090053DE071
:1027430078081217EAE508428080287508017509A0
:102753000090053DE078081217EAE50842908013DF
:1027630075080175090090053DE078081217EAE540
:102773000842A0120D74120CD28A088B09A808A96A
:1027830009E8496015E5E170FCE82414F582E934B1
:1027930000F583E0F46003E0F5E174016F700A7AF9
:1027A300019003A1E0F91211100226DA74ED121858
:1027B300D98A088B098C0A8D0B7413121849780C6B
:1027C3001216B57808790C1214B57510017511C875
:1027D30075120075130050127808790C121654788C
:1027E3001079081214B550168010780C7908121657
:1027F300547810790C1214B54004790180027900E1
:102803007F0C02198574ED1218D98A088B098C0A7A
:102813008D0B7413121849780C1216B5780C7908BD
:102823001214B540117808790C121654AA08AB0992
:10283300AC0AAD0B8022751000751100751200757E
:1028430013017810790C1216547810790812161B9C
:10285300AA10AB11AC12AD1380A68A828B837508C4
:10286300FF7509FF750AFF750B0078081216A27F22
:102873000402198574F51218D98C828D8378081295
:1028830016B58A828B837808121668EA2404F8EB5B
:102893003400F98C828D83A3A3A3A3E0FCA3E0FD02
:1028A30088828983C3E09CF0A3E09DF088828983BA
:1028B300C3E09420A3E0944E40268A828B8375085C
:1028C300FF7509FF750AFF750BFF78081216418A19
:1028D300828B83A3A3A3A3E02420F0A3E0344EF0D0
:1028E30002285D74F51218D9E9FE9004F7E0FAA303
:1028F300E0FBEEC333F8E433F974E928F58274801E
:1029030039F583E02AF508A3E03BF5097808121AA4
:10291300807A407B427C0F7D0012243874021218A7
:10292300138A088B098C0A8D0B741078081215E32F
:10293300AA08AB097F0402198574F11218D98A0C0D
:102943008B0D8C0E8D0F740F121849E0FAA3E0FB68
:102953007411121849E0F508A3E0F5097808121A72
:1029630080EA2401F508EB3400F509E4F50AF50BD8
:10297300780C79081214F4750871750902780C79CA
:10298300081214F4AA0CAB0DAC0EAD0F122438745C
:10299300021218138B09EA450960047A0180027A4E
:1029A30000EC2AFCED3400FD7413121849E0F8A37F
:1029B300E0F9E8FEE9FFECF8EDF97A717B02121712
:1029C30072880889098E828F8378081216C4ECF8FE
:1029D300EDF97A717B021217728A088B09740578F4
:1029E300081217EA8E828F83A3A3A3A3E508F0A39B
:1029F300E509F07F08021985C082C083E990600071
:102A0300F0D083D08222C2AF02000022C0E074F271
:102A13001219C5A2AFE433FED2AFC2C0E5D1A2E41E
:102A2300500653D1EF121350EEF8EEA2E092AF7FAF
:102A330001021A24C0E074F21219C5A2AFE433FEF6
:102A4300D2AFE589A2E04006E589A2E15003121264
:102A5300B4758900758900C2C5EEF8EEA2E092AFA5
:102A63007F01021A24C0E0C0D0E8C0E0E9C0E0A2C0
:102A7300AFE433F8D2AFC2C7E8F9E8A2E092AFD02F
:102A8300E0F9D0E0F8D0D0D0E032C0E0C0D0E8C068
:102A9300E0E9C0E0C008C009C082C083A2AFE4334C
:102AA300F9D2AF900A2CE0F8900A2DE068700B532E
:102AB3009AFB900A2E7401F08031C2E9900A2CE04F
:102AC300F50874012508900A2CF075090074AC25EB
:102AD30008F58274093509F583E0F5C1900A2CE005
:102AE300C394804006900A2C7400F0E9F8E9A2E050
:102AF30092AFD083D082D009D008D0E0F9D0E0F8EB
:102B0300D0D0D0E032FFFFFFFFFFFFFFFF74F012D2
:102B1300186D74F81217FD8A0E8B0FE9FF8C0C8D5C
:102B23000D7E00850E08850F097808121AC400046B
:102B330010F52D582B7B2B9A2BBD2BE02B032C341C
:102B43002C572C6E2C9E2C562D792D9C2DCA2DF591
:102B53002DF52DC72C74016F7019850C82850D839B
:102B6300E0C39403500D850C82850D83E0900D7DA9
:102B7300F080027E18022E1D74026F7015850C8280
:102B8300850D83E0F8A3E0F9900D7EE8F0A3E9F06A
:102B930080027E18022E1D74016F7019850C8285C8
:102BA3000D83E0C39402500D850C82850D83E09064
:102BB3000798F080027E18022E1D74016F7019852C
:102BC3000C82850D83E0C39405500D850C82850D21
:102BD30083E0900799F080027E18022E1D74016F26
:102BE3007019850C82850D83E0C39402500D850C0A
:102BF30082850D83E090079AF080027E18022E1DD5
:102C030074106F70277508107509007808121A8000
:102C1300AC0CAD0D7A9B7B0712105C740212181377
:102C23008A088B0985088285098380027E18022E13
:102C33001D74016F7019850C82850D83E0C39402A6
:102C4300500D850C82850D83E09007ABF080027EEA
:102C530018022E1D74016F700D850C82850D83E0A3
:102C6300900D81F080027E18022E1D74046F702671
:102C730090815078081216B5850C82850D837808EB
:102C83001214C55011850C82850D831216EB900723
:102C9300AD1216F780027E18022E1DEF7021120767
:102CA30026E97013121200E9F5087950121410E99D
:102CB300F5091211EE800A9008407401F080027E3B
:102CC30018022E1D74076F6003022D5175080675D7
:102CD30009007808121A80850C82850D83A3AC82C3
:102CE300AD83740412185B121062740212181385F8
:102CF3001882851983EAF0A3EBF07C007D0074024F
:102D030012185B850C82850D83E0F9121194E9F5A5
:102D13000AE50AC3940A5032120726E97015A90A74
:102D2300121206E9F5087950121410E9F509121187
:102D3300EE801D850A0875090074412508F5827423
:102D4300083509F5837401F080067E0280027E183F
:102D5300022E1D74016F7019850C82850D83E0C3EB
:102D63009402500D850C82850D83E09007ACF080B2
:102D7300027E18022E1D74016F7019850C82850D59
:102D830083E0C3940A500D850C82850D83E0900D7A
:102D930080F080027E18022E1D74016F7025850C51
:102DA30082850D83E0C394074019850C82850D83CA
:102DB300E0C39411500D850C82850D83E0900D8244
:102DC300F080577E18805374016F702290083FE0A3
:102DD300F508850C82850D83E090083FF0E50870C7
:102DE3003990083FE0640170311211EE802C7E1897
:102DF3008028C3E50E9427E50F9400501B74026FDF
:102E03007016850C82850D83E0FCA3E0FDAA0EAB52
:102E13000F1205C4E9FE80027E02EEF9740812184F
:102E2300137F0802193F74F012186D74D71217FD3F
:102E3300E9C0E0851882851983D0E0F07401121887
:102E430049EAF0A3EBF08C0E8D0F908144740312CA
:102E5300186374061217107403121863740112189E
:102E630049E0FAA3E0FB851882851983E0F9121182
:102E730094E9FEEEC3940A4003022FB6EEF9121151
:102E8300D0E9FF900D7DE064027004740180027448
:102E930000F5087808121A84743A121849E0FDEF15
:102EA300FCEEF9AA0EAB0F12124274011218137C36
:102EB300147D007900741512185B1210748A088B44
:102EC3000985080A85090B74151218637A1075F0C1
:102ED30006EEA42424F912140AE9703B7C1079FF4E
:102EE300741512185B1210D4E9702C74251218494A
:102EF300AC82AD837A0475F006EEA42425F912148E
:102F03000AE9F5087415121863EFA2E0E433F9AA8D
:102F13000EAB0F12064EE974091218637A0C747023
:102F23002EF912140AE97079740912185B1211C48C
:102F3300750800E508C394045067E508F87900E8CC
:102F430075F003A4C8AAF075F000A42AFA75F0037B
:102F5300E9A42AF97409121849E58228F50CE583D6
:102F630039F50D850C82850D83E0F8A3E0F9E84976
:102F7300602B850C82850D83A3A3E0F50A750B00F6
:102F8300780A121A80850C82850D83E0FCA3E0FD8C
:102F9300AA0EAB0F1208A67402121813E9050880D3
:102FA30092EFA2E1500D900797E0F9AA0EAB0F1232
:102FB30008ACE97439121849E06404700F900D7D70
:102FC300E064027007AA0EAB0F12123C7900742959
:102FD3001218137F0802193F74F212186D890B8AB5
:102FE300088B09ECFEEDFF750A0AE50B600B146014
:102FF3000814604114605F807CAA08AB091211E2D7
:10300300E9F50AE50AC3940A506BEE4F6067750C45
:1030130006750D00780C121A80AC08AD09EEFAEFB4
:10302300FB12105C74021218138A0C8B0D850C8230
:10303300850D838040AA08AB091211DCE9F50AE586
:103043000AC3940A502FEE4F602BEEFAEFFBA90A46
:103053001211D6E9801FAA08AB091211E8E9F50A93
:10306300E50AC3940A500EEE4F600AEEFAEFFBA98D
:103073000A1211D6E9A90A7F0602193F74F212183F
:103083006D8A0C8B0DE9FF7E1574FF650C7004745B
:10309300FF650D702A750800E508C3940A5014EF04
:1030A300FC7A027B00A9081211B2E960027E0005D6
:1030B3000880E5EF60627A2A7B12120AAA8059AA75
:1030C3000CAB0D120A8C8A088B0985080A85090B3B
:1030D300E50A450B60407C007D00E50A2405FAE41F
:1030E300350BFB850A82850B83A3A3A3A3E0F91207
:1030F3001194E9F508E508C3940A500EEFFC7A022F
:103103007B00A9081211B2E97E00EF600BAA0AAB9B
:103113000B12122A80027E14EEF97F0602193F7405
:10312300F012186D74FE1217FD851882851983EA53
:10313300F0A3EBF08C0A8D0B7412121849E0F50E14
:10314300A3E0F50F7E15851882851983E064FF706F
:1031530004A3E064FF701D7F00EFC3940A506BACBF
:103163000EAD0FAA0AAB0BEFF91211B8E960027E9C
:10317300000F80E5851882851983E0FAA3E0FB122E
:103183000A8C8A0C8B0D850C08850D09E508450909
:1031930060367C007D00E5082405FAE43509FB85EB
:1031A3000882850983A3A3A3A3E0F9121194E9FF7D
:1031B300EFC3940A5014AC0EAD0FAA0AAB0BEFF990
:1031C3001211B8E97E0080027E14EEF9740212181F
:1031D300137F0802193F74F712186DEAFEEBFF9094
:1031E30007B1EEF0A3EFF0900797E0FC7D007A269D
:1031F3007B001205C4E9F508900797E0F912082E41
:103203007F0102193F74F212186D74EC1217FD8AD4
:103213000A8B0B850A82850B83A3A3E024FA700330
:1032230002364C24FD70030234C41470030232F8D6
:1032330014601024FD700302346C1470030235070C
:103243000236BAAE0AAF0B9007B1E0F8A3E0F9E893
:103253004960669007B1E0F8A3E0F5838882E0F85F
:10326300A3E0F9E8496052EE240CF582E43FF583CC
:10327300E0F5087808121A84EE240BF582E43FF592
:1032830083E0F98E828F83A3A3A3A3A3A3A3A3A302
:10329300E0FCA3E0FDEE2403FAE43FFB9007B1E07A
:1032A300F8A3E0F5838882E0F8A3E0F5838882122F
:1032B300186B740112181380398E828F83A3A3A312
:1032C300A3A3A3A3A3A3121A979007AD1216D31215
:1032D30006607402121813E9601879018E828F83D5
:1032E300A3A3A3A3A3A3A3A3A3E0FAA3E0FB1206B0
:1032F3005AE90236BAAE0AAF0B8E828F83A3E0601F
:103303000302341A8E828F83A3A3A3A3A3E0A2E0B4
:10331300400302341A90084BE0F8A3E0F9E849604F
:103323000302341A7C0E7D007900AA18AB1912101F
:10333300748A088B09AA08AB09EE240CF582E43FD2
:10334300F583E0F8A3E0F9E84960367508067509E6
:10335300007808121A80EE240CF582E43FF583E02E
:103363002410FCA3E03400FD740212185B12105CFD
:1033730074021218138A088B0985088285098380D1
:103383004F8E828F83A3A3A3E0FAA3E0FB120A8CE0
:103393008A0C8B0D850C08850D09E5084509602D00
:1033A300750C06750D00780C121A80E5082405FCCF
:1033B300E43509FD740212185B12105C74021218D2
:1033C300138A0C8B0D850C82850D8380030236BA1C
:1033D3008E828F83A3A3A3A3A3E0A2E25004D2F01F
:1033E3008002C2F0A2F0E433F87900740C12184999
:1033F300E048F0A3E049F0EEFCEFFDAA18AB191288
:1034030011CAE970127A027B00900797E0F9121053
:10341300B0E979000236BC9007B1E0F8A3E0F9E81F
:103423004960439007B1E0F8A3E0F5838882A3A342
:10343300E0F8A3E0F9E849602D8E828F83A3E0FCD6
:1034430079018E828F83A3A3A3E0FAA3E0FB900705
:10345300B1E0F8A3E0F5838882A3A3E0F8A3E0F545
:1034630083888212186B0236BAAE0AAF0B9007B18B
:10347300E0F8A3E0F9E84960459007B1E0F8A3E07C
:10348300F5838882A3A3E0F8A3E0F9E849602F85D8
:103493000A82850B83A3E0FC79028E828F83A3A328
:1034A300A3E0FAA3E0FB9007B1E0F8A3E0F583887B
:1034B30082A3A3E0F8A3E0F583888212186B023697
:1034C300BA850A08850B097C007D00E5082404FA07
:1034D300E43509FB850882850983A3A3A3E0F912D8
:1034E3001194E9FEEEC3940A5017E508240AFCE49C
:1034F3003509FD7A0475F006EEA42425F9121404A7
:10350300E90236BAAE0AAF0B9007ACE06018900D33
:1035130080E0F98E828F83A3A3A3E0FAA3E0FB12DA
:10352300065AE90236BA900D7DE0701579058E8250
:103533008F83A3A3A3E0FAA3E0FB12065AE90236A2
:10354300BA8E828F83A3A3A3E0FAA3E0FB120A8CB3
:103553008A0C8B0D850C08850D098E828F83A3A39E
:10356300A3A3A3A3A3E0A2E05071E5084509606803
:10357300850882850983A3A3A3A3E0605E8E828F5F
:1035830083A3A3A3A3A3A3A3A3A3E0F8A3E0F9E8BE
:10359300C4540FF87900E85401F8E95400F9E8A29B
:1035A300E04038740E121863E5082405FAE435097F
:1035B300FB850882850983A3A3A3A3E0F9121194D1
:1035C300E9701879038E828F83A3A3A3E0FAA3E0A3
:1035D300FB12065AE90236BA0236BAEE2405FCE4B7
:1035E3003FFD850882850983A3A3A3A3E0F98E8207
:1035F3008F83A3A3A3E0FAA3E0FB1212369007B1D3
:10360300E0F8A3E0F9E849603E9007B1E0F8A3E0F1
:10361300F5838882A3A3E0F8A3E0F9E84960287C56
:103623000079008E828F83A3A3A3E0FAA3E0FB902B
:1036330007B1E0F8A3E0F5838882A3A3E0F8A3E051
:10364300F583888212186B806E120726E9706890E2
:103653000840E06401701A121200E9FE90084074F9
:1036630000F07C0A7D0079007A417B081210748097
:103673003C7E00EEC3940A50348E087509007441F1
:103683002508F58274083509F583E06401701BEEA3
:10369300F9121206E9F88E0875090074412508F538
:1036A3008274083509F5837400F00E80C6795012D0
:1036B3001410E9FE1211EE790174141218137F0627
:1036C30002193F74F312186D74F21217FD8908EA98
:1036D300FEEBFF8C09AC18AD197A0E75F006E50800
:1036E300A42420F912140AE970647C0679FFAA184D
:1036F300AB191210D4E97056740C121849E0F8A3F0
:10370300E0F9E8F50CE5096005EE420C8004EEF4FF
:10371300520C850C0A750B00740C121849E0650AEB
:103723007004A3E0650B6022E50CF87900740C12B9
:103733001849E8F0A3E9F0AC18AD197A0E75F00654
:10374300E508A42420F9121404E979018002790020
:10375300740E1218137F0502193F74F012186D745A
:10376300E61217FD89098A0E8B0FECFEEDFF740C30
:103773001218637A0E75F006E509A42420F91214D1
:103783000AE9600302388D7C0679FF740C12185B1A
:103793001210D4E9600302388DAC18AD197A0C7499
:1037A300702509F912140AE96003023889750800C3
:1037B300AA18AB191211C4E50E450F702E7C0C79B3
:1037C30000AA18AB191210D4E9600302386F7C0CFD
:1037D3007D007900AA18AB191210748A0A8B0B8525
:1037E3000A82850B8375080102386FAC18AD19AADC
:1037F3000EAB0F1211BE8A0C8B0D850C0A850D0BB7
:10380300E50A450B7030EE4F601BAC18AD197A001A
:103813007B001211BE8A0C8B0DA80CA90D880A8996
:103823000BE849700479008063850A82850B83E580
:103833000EF0A3E50FF0850A82850B83A3A3E0F8BE
:103843007900EE687002EF696022EEC0E0850A82BB
:10385300850B83A3A3D0E0F0EE4F700D850A82851C
:103863000B837400F0A37400F0750801E50860167B
:10387300AA18AB191211C4AC18AD197A0C747025BF
:1038830009F9121404E9790180027900741A1218F3
:10389300137F0802193F74F712186DEAFEEBFF7BE2
:1038A30000EBC39404504EEBF87900E875F003A4E1
:1038B300C8AAF075F000A42AFA75F003E9A42AF95E
:1038C300EC28F582ED39F583E06E7003A3E06F70A9
:1038D30021EBF87900E875F003A4C8AAF075F000AD
:1038E300A42AFA75F003E9A42AF9EC28FAED39FBC6
:1038F30080070B80AC7A007B007F0102193F74F7CD
:1039030012186D7F00EFC3940440030239B0EFF83F
:103913007900E875F003A4C8ACF075F000A42CFCA2
:1039230075F003E9A42CF9EA28F582EB39F583E075
:10393300F4FCA3E0F4FDEFF87900E875F003A4C804
:10394300AEF075F000A42EFE75F003E9A42EF9EA9B
:1039530028F582EB39F583ECF0A3EDF0EFF879006D
:10396300E875F003A4C8ACF075F000A42CFC75F066
:1039730003E9A42CF9EA28F582EB39F583A3A3E044
:10398300F4C0E0EFF87900E875F003A4C8ACF07573
:10399300F000A42CFC75F003E9A42CF9EA28F582C5
:1039A300EB39F583A3A3D0E0F00F0239087F0102BE
:1039B300193F74F012186D74F41217FDEAFEEBFF51
:1039C3008C088D0990084BE0F8A3E0F9E849702CC6
:1039D300EE4F6006E508450970057901023C61EE8A
:1039E300FAEFFB1211E2E9900D83F0900D83E0C32F
:1039F300940A40081211F4E9900D83F0900D83E0CE
:103A0300C3940A4003023C5F90084BE0F8A3E0F93B
:103A1300E8496003023AABEEFCEFFD7A0E75F0065F
:103A2300900D83E0A42420F9121404E9F50B7C0C17
:103A33007D0079FFAA18AB191210748A0C8B0D85BF
:103A43000C0E850D0FAC18AD197A0C900D83E02484
:103A530070F9121404E9F50A750C0E750D00780C53
:103A6300121A80EEFCEFFD900D83E0F87900E87503
:103A7300F00EA4C8AAF075F000A42AFA75F00EE9B6
:103A8300A42AF974B328FA740739FB12105C740280
:103A93001218138A0C8B0DA80CA90D90084BE5087E
:103AA300F0A3E509F0023C5B90084BE0F8A3E0C803
:103AB3002406F582C83400F583E0F8A3E0F9E84969
:103AC300604390084BE0F8A3E0C82406F582C834AD
:103AD30000F583E0FCA3E0FD7A1B75F006900D83EF
:103AE300E0A42421F9121404E9F890084BE0F9A3A7
:103AF300E0C92406F582C93400F5837400F0A37489
:103B030000F0023C5B90084BE0F8A3E0C8240AF500
:103B130082C83400F583E0F8A3E0F9E849604390F4
:103B2300084BE0F8A3E0C8240AF582C83400F58303
:103B3300E0FCA3E0FD7A1B75F006900D83E0A4245E
:103B430022F9121404E9F890084BE0F9A3E0C92420
:103B53000AF582C93400F5837400F0A37400F002FF
:103B63003C5B90084BE0F8A3E0C8240CF582C83412
:103B730000F583E0F8A3E0F9E849604390084BE0DF
:103B8300F8A3E0C8240CF582C83400F583E0FCA355
:103B9300E0FD7A1075F006900D83E0A42423F9125A
:103BA3001404E9F890084BE0F9A3E0C9240CF5826A
:103BB300C93400F5837400F0A37400F0023C5B90F9
:103BC300084BE0F8A3E0C82408F582C83400F58365
:103BD300E0F8A3E0F9E849606F90084BE0F8A3E050
:103BE300C82408F582C83400F583E0FCA3E0FD7A1D
:103BF3001075F006900D83E0A42424F9121404E94F
:103C0300F50A90084BE0F8A3E0C82408F582C8340D
:103C130000F583E02410FCA3E03400FD7A0475F082
:103C230006900D83E0A42425F9121404E9F8900802
:103C33004BE0F9A3E0C92408F582C93400F5837485
:103C430000F0A37400F0801090083FE060031212AC
:103C53004812123079018006790080027901740CD0
:103C63001218137F0802193F74F712186D74F212B9
:103C730017FDE9FEAC18AD197A0E75F006EEA42413
:103C830020F912140AE9700E740C121849E0F8A313
:103C9300E0F9E8F980027900740E1218137F01022B
:103CA300193F74F412186D74F21217FD8909EAFEB4
:103CB300EBFFE509C3940A5004EE4F7004790280C8
:103CC30041AC18AD197A0E75F006E509A42420F964
:103CD30012140AE9F508E5087026750A06750B0043
:103CE300780A121A807402121863EEFAEFFB1210AC
:103CF3005C74021218138A0A8B0B850A82850B8364
:103D0300A908740E1218137F0402193F74F41218D1
:103D13006DEAFEEBFF750800E508C3940A5044758D
:103D23000A06750B00780A121A80EEFCEFFDE5080F
:103D3300F87900E875F00EA4C8AAF075F000A42A7B
:103D4300FA75F00EE9A42AF974B928FA740739FB55
:103D530012106E7402121813E96004A90880060594
:103D63000880B5790A7F0402193F74F412186DEACA
:103D7300FEEBFF750800E508C3940A5044750A0674
:103D8300750B00780A121A80EEFCEFFDE508F8794E
:103D930000E875F00EA4C8AAF075F000A42AFA751D
:103DA300F00EE9A42AF974B328FA740739FB121048
:103DB3006E7402121813E96004A9088006050880CE
:103DC300B5790A7F0402193F74F712186D74F01263
:103DD30017FDEAFEEBFF750800E508C3940A5039A6
:103DE300AC18AD197A1075F006E508A42423F9126E
:103DF300140AE970207C1079FFAA18AB191210D4A9
:103E0300E97012EEFCEFFDAA18AB19120630E97047
:103E130004A9088006050880C0790A7410121813D3
:103E23007F0102193F74F412186D750800E508C389
:103E3300940A4003023F06E508F87900E875F00E9E
:103E4300A4C8AAF075F000A42AFA75F00EE9A42A12
:103E5300F974B328FC740739FD7A0E75F006E5088A
:103E6300A42420F912140AE97003023F017C067DA1
:103E73000079FFE508FA7B00EA75F00EA4CAA8F002
:103E830075F000A428F875F00EEBA428FB74B32A90
:103E9300FA74073BFB1210748A0A8B0BAE0AAF0B42
:103EA3007C067D0079FFE508FA7B00EA75F00EA435
:103EB300CAA8F075F000A428F875F00EEBA428FB4F
:103EC30074B92AFA74073BFB1210748A0A8B0BAC81
:103ED3000AAD0BE508F87900E875F00EA4C8AAF05E
:103EE30075F000A42AFA75F00EE9A42AF974BF2824
:103EF300F582740739F5837400F0A37400F00508A4
:103F0300023E3090083FE060031212481212307FE5
:103F13000402193F74F712186D7E00EEC3940A5021
:103F2300327C0679FFEEFA7B00EA75F00EA4CAA88C
:103F3300F075F000A428F875F00EEBA428FB74B319
:103F43002AFA74073BFB1210D4E96004EEF98005EA
:103F53000E80C8790A7F0102193F74F712186D7E2B
:103F6300007F00EFC3940A502F7C0679FFEFFA7BA2
:103F730000EA75F00EA4CAA8F075F000A428F8753D
:103F8300F00EEBA428FB74B32AFA74073BFB121060
:103F9300D4E970010E0F80CBEEF97F0102193F7453
:103FA300F712186D7E007F00EFC3940A500DEE7078
:103FB3000AEFF9121206E9FE0F80EDEEF97F010216
:103FC300193F74F012186D74C91217FDE9FE900DB4
:103FD30083E06E701D7A017B00900797E0F9121061
:103FE300B6E97A027B00900797E0F91210B6E9125E
:103FF300125474291218637A0E75F006EEA4242065
:10400300F912140AE960030240F97C0679FF742966
:1040130012185B1210D4E960030240F97C0E7D0094
:1040230079FF742912185B1210748518828519831D
:10403300EAF0A3EBF07C1B7D0079FF740E12185B92
:104043001210748A0A8B0B850A0E850B0F7C0C7D6C
:104053000079FF740212185B1210748A0C8B0D85A1
:104063000C0A850D0B74291218637A0E75F006EE8F
:10407300A42420F9121404E9F508740E1218637AC3
:104083001B75F006EEA42421F9121404E942087406
:104093000E1218637A1B75F006EEA42422F912148B
:1040A30004E94208740E1218637A1075F006EEA440
:1040B3002423F9121404E94208740E1218637A10C7
:1040C30075F006EEA42424F9121404E94208740ED0
:1040D3001218637A0475F006EEA42425F912140469
:1040E300E9420874021218637A0C74702EF91214E0
:1040F30004E942088003750800A9087437121813ED
:104103007F0802193F74F712186DE9FEEE900797C6
:10411300F01211EE7F0102193F74F212186D890A31
:10412300EAFEEBFFEE5400F8EF5480F9E8496035FE
:10413300900797E0F91210988A0C8B0DA80CA90D23
:1041430088088909E8496012AA08AB09121218E91C
:104153006008AA08AB09121086E9EE6400FAEF645E
:1041630080FB024220EE5402602D7C007D007A0029
:104173007B001211CAE960187A017B00900797E06F
:10418300F91210B0E9EE6402FAEF6400FB02422078
:104193007A027B00024220EEA2E0507D90084BE0C1
:1041A300F8A3E0F5838882A3A3A3E0FAA3E0FB12BC
:1041B300124EE9605E9007B1E0F8A3E0F9E84960C8
:1041C300459007B1E0F8A3E0F5838882A3A3E0F864
:1041D300A3E0F9E849602F7C00790190084BE0F8EF
:1041E300A3E0F5838882A3A3A3E0FAA3E0FB9007EF
:1041F300B1E0F8A3E0F5838882A3A3E0F8A3E0F598
:1042030083888212186B121254EE6401FAEF640071
:10421300FB800A7A017B0080047A007B007F060220
:10422300193F74F712186DEAFEEBFF7508018E82D1
:104233008F83E02450601314601924E1701CEEFA9C
:10424300EFFB1211ACE9F5088010EEFAEFFB121246
:104253001E8007EEFAEFFB121224A9087F01021950
:104263003F74F712186DEAFEEBFF8E828F83A3A3D0
:10427300A3A3E0641E701179008E828F83A3A3E051
:10428300FAA3E0FB12119AE97F0102193F74F612B7
:10429300186D8A088B09850882850983A3A3A3A3C4
:1042A300E07034AE08AF098E828F83A3A3A3A3A3C8
:1042B300A3A3121A978E828F83A3A3A3A3A3E0FCC5
:1042C300A3E0FD8E828F83A3A3E0FAA3E0FB121188
:1042D300A07402121813E97F0202193F74F712182F
:1042E3006DEAFEEBFF900797E0F98E828F83A3E0E0
:1042F300FAA3E0FB1208ACE97F0102193FC082C0B8
:104303008374FF1217FD1211FAE9C39402400B855F
:1043130018828519837402F08009851882851983B0
:10432300740AF0AC18AD197A01790512073EE974E5
:1043330001121813D083D08202013274F212186D65
:1043430074E81217FD8A088B09E9FE8C0A8D0B7C31
:10435300187D007900AA18AB191210748A0C8B0D02
:10436300AC0CAD0D851882851983E508F0A3E5092A
:10437300F0900799E0C0E07402121849D0E0F09081
:10438300079AE0C0E07403121849D0E0F0900D8260
:10439300E0C0E07417121849D0E0F0741512184900
:1043A300E054FEF8A3E054FFF9900D81E0A2E0E4AD
:1043B30033FA7B00E84AF8E94BF97415121849E817
:1043C300F0A3E9F0900D81E0A2E15004D2F0800265
:1043D300C2F07415121849E054FDFAA3E054FFFB30
:1043E300A2F0E433F87900E828F8E933F9EA48F869
:1043F300EB49F97415121849E8F0A3E9F0900D811F
:10440300E0A2E35004D2F08002C2F07415121849FE
:10441300E054F7FAA3E054FFFBA2F0E433F50C7584
:104423000D007403780C1217EAEA450CF8EB450DFE
:10443300F97415121849E8F0A3E9F0900D81E0A290
:10444300E45004D2F08002C2F07415121849E0540B
:10445300EFFAA3E054FFFBA2F0E433F50C750D0073
:104463007404780C1217EAEA450CF8EB450DF9745D
:1044730015121849E8F0A3E9F0900D81E0A2E55088
:1044830004D2F08002C2F07415121849E054DFFA26
:10449300A3E054FFFBA2F0E433F50C750D007405A3
:1044A300780C1217EAEA450CF8EB450DF97415126E
:1044B3001849E8F0A3E9F0900D81E0A2E25004D29C
:1044C300F08002C2F07415121849E054FBFAA3E01D
:1044D30054FFFBA2F0E433F50C750D007402780C65
:1044E3001217EAEA450CF8EB450DF9741512184951
:1044F300E8F0A3E9F090079AE0602A750C10750DB7
:1045030000780C121A807C9B7D077406121849AA46
:1045130082AB8312105C74021218138A0C8B0D8504
:104523000C82850D839007ABE06011EE600E74156D
:10453300121849E04402F0A3E04400F09007ABE016
:1045430060067801790080047800790074141218E9
:1045530049E048F0900798E0600678047900800409
:10456300780079007414121849E048F0AC0AAD0BD6
:10457300AA18AB19120654E974181218137F06020D
:10458300193F74F712186DEAFEEBFF7508009007E8
:10459300ABE0600678017900800478007900E84296
:1045A30008900798E0600678047900800478007921
:1045B30000E84208A908EEFAEFFB12070EE97F01B3
:1045C30002193F74F212186D74E31217FD8A0C8BF3
:1045D3000DE9FF8C0A8D09742B121849E0F5087454
:1045E300086509700A75F006EFA42422FE80087599
:1045F300F006EFA42421FE7C1B7D007900740212D7
:10460300185B121074851882851983EAF0A3EBF006
:1046130074021218637A1BEEF912140AE9703874E3
:104623001C121849E0C39407402D741C121849E06A
:10463300C394115022E508F50B780B121A84740306
:10464300121863E50AA2E0E433F9AA0CAB0D1206D3
:10465300667401121813E9741D1218137F060219E8
:104663003F74F712186D120924E97E00EEC3940A11
:1046730050557C0679FFEEFA7B00EA75F00EA4CA6A
:10468300A8F075F000A428F875F00EEBA428FB74CD
:10469300B32AFA74073BFB1210D4E97027EEF879BA
:1046A30000E875F00EA4C8AAF075F000A42AFA7504
:1046B300F00EE9A42AF974B328FA740739FB7900D8
:1046C30012092AE90E80A57F0102193F74F6121818
:1046D3006D74FD1217FDEAFEEBFF90084DE0F8A3A1
:1046E300E0F9E849703975084F7509087808121A16
:1046F300807508027509007808121A8075082A75F2
:1047030009817808121A807CFF7DFF7A017B0012F1
:104713000780740612181390084DEAF0A3EBF0908B
:10472300084DE0F8A3E0F9E84970030247ECE4F52B
:1047330008F5097808121A80740412185388088936
:10474300097808121A8074041218538808890978A2
:1047530008121A8090084F121A97790290084DE0B8
:10476300FCA3E0FDEEFAEFFB12089A74081218138B
:10477300E9704A851882851983E0FA7B0074011277
:104783001849E0F87900E4C8F9EA28F508EB39F5A7
:1047930009E508450960267808121A8090084DE05B
:1047A300F8A3E0F5838882A3A3A3A3E0FCA3E0FD21
:1047B300EEFAEFFB1211A07402121813E9E4F508E4
:1047C300F5097808121A8090084F121A977CFF7D1A
:1047D300FF90084DE0FAA3E0FB12078C7404121853
:1047E3001390084DEAF0A3EBF090084DE0F8A3E036
:1047F300F9E84970047901800279007403121813EF
:104803007F0202193FC082C08390084BE0F8A3E007
:10481300F9E849601790084BE0FAA3E0FB12108611
:10482300E9F890084B7400F0A37400F0900D8374C2
:104833000AF0D083D082020132C082C083E9900C97
:104843006AF0024AA474F712186DE99002E1F07C51
:10485300197D037AFF7BFF1208B29002E274FFF026
:10486300A3F0A3E4F0A3F079051208469002E1E077
:10487300F91207687AD07B08120A7A7F0102193F7E
:1048830074F412186D8A088B09EB5480603090021F
:10489300E1E0F91210988A0A8B0BAE0AAF0BEE4FC8
:1048A30060138E828F83E064B07003120858EEFAAF
:1048B300EFFB121086AA08E5096480FB80047A00E6
:1048C3007B00024A7374F212186D74FC1217FDEA2E
:1048D300FEEBFFEE4F60387402121849EEF0A3EFBF
:1048E300124CD8ECF0A3ED124CD8AA82AB8312077A
:1048F30062E9F50870737412121849125831E50A07
:10490300450B60658E828F83124976EE4F70057575
:10491300080280557A067B001210F28A0C8B0DA8D0
:104923000CA90DE8497005750813803D88828983B9
:10493300E4124980A3A3EEF0A3EF125CCAE50AF0E8
:10494300A3E50BF09002E7124A089002E76017E034
:10495300FCA3E08003EAFCEBFD8C828D83124A0802
:1049630070F38C828D831257B1A908740412181343
:10497300025ECCA3A3A3A3E0FEA3E0FF22F0A3F077
:10498300888289832274F212186D890AE975F017F7
:10499300A4FEAFF09002E6E4F09002E4124A08604D
:1049A3000A1210F89002E4E4F0A3F0EEFAEFFB121F
:1049B30010F28A088B09EA4509602FEEFCEFFD79B6
:1049C300001210749002E4E508F0A3E509F07B00FF
:1049D30080081249F2E4F0A3F00BEBC3950A40F20E
:1049E300E50A9002E6F0790080027913025ECCEBCF
:1049F30075F017A4F8A9F09002E4E028FAA3E039CF
:104A03008A82F58322125547EA4B2274F412186DF9
:104A1300750800750900740C121849125C9EFEE9B2
:104A2300FF800CE5082401F508E5093400F509C306
:104A3300E5089CE5099D503285080A85090B740336
:104A4300780A1217EAEA250AF8EB350BF988828906
:104A530083A3A3A3A3A3A3125831EE650A7003EFA4
:104A6300650B70BFE8FAE9FB80047A007B008000E5
:104A73007F0402193FC082C0839002E7124AAB60F1
:104A83001C88828983A3A3E06A7003A3E06B8882F6
:104A9300898370E8A3A3A3A312554380047A007B00
:104AA30000D083D082020132125F9FE8492274EE64
:104AB30012186D74FC1217FDEAFEEBFF8518828550
:104AC3001983E4F0A3F0EE2402125795EE240512A5
:104AD3004CC6EE2404F50EEF1250ABE024FE603911
:104AE30024FC604624FE605224FE605E24FE7003B4
:104AF300024BCB24FE7003024C4324FE7003024C92
:104B03005224FE7003024C6124FC7003024C702497
:104B1300FE7003024C7F024CBC9003007417F0A399
:104B2300E4124CE01204E0024CBC85188285198320
:104B3300AC82AD8312085E024C8C85188285198382
:104B4300AC82AD83120864024C8C850C08850D0978
:104B53007402121849AC82AD8385088285098312D9
:104B630055431207868A0C8B0DAC0CAD0DEC4D60D2
:104B730042E4F50CF50D780C121A80750C00750DD6
:104B830003780C121A80750C01750D03780C121A38
:104B9300807408121849121A97791612553D120893
:104BA3009A7408121813E9F50C700B125539120494
:104BB300F8800F750C01850882850983124CCE128B
:104BC30057B1850C08024C8F7402121849AC82ADA0
:104BD30083850C82850D831255431207868A108BB9
:104BE30011AC10AD11EC4D6043850C82850D83A390
:104BF300A3121A977510007511037810121A807595
:104C030010017511037810121A80740812184912D2
:104C13001A97791612553D12089A7408121813E957
:104C2300F509700B1255391204FE800F75090185C1
:104C33000C82850D83124CCE1257B1850908804C26
:104C4300851882851983AC82AD8312086A803A8500
:104C53001882851983AC82AD83120870802B851866
:104C630082851983AC82AD83120876801C851882F5
:104C7300851983AC82AD8312087C800D85188285EB
:104C83001983AC82AD83120882E9F508E50860292F
:104C93008E828F83A3E06414601F850E82850F8349
:104CA300E0900300124CD8125F9B9003011257B19E
:104CB300E508A3124CE01204DAEEFAEFFB12080443
:104CC30002569DF50CEF3400F50D22125F9F8518F7
:104CD3008285198322F085188285198322F07C004E
:104CE3007D03850A82850B831255472274EE1218C1
:104CF3006D74FC1217FD8A0A8B0B8C0E8D0FEA2440
:104D030005F508EB3400F5097C157D0079007A0080
:104D13007B03121074E5082402F50CE509124CC953
:104D23008518828519838582108583117810121A5C
:104D330080850882850983A3A3A3A31251F3121AC2
:104D430080E5082405F510E5093400F51178101203
:104D53001A80850C82850D8312554D1207807406C7
:104D63001218138A108B11AE10AF11E50A2402F545
:104D73000AE50B125798EE4F7003024EB580177475
:104D83000212184912554388828983EAF0A3EBF093
:104D9300900300E004F0900300E0C3940540030295
:104DA3004EB5E4F510F5117810121A807510E975F7
:104DB30011027810121A807510EA75110278101218
:104DC3001A807406121849121A977910EEFCEFFD37
:104DD30012553D12089A7408121813E9705E85087B
:104DE30082850983A3A3A3A3A3A3A3E0F89002E965
:104DF300E06870481251F3121A807CEA7D02E508DC
:104E03002408FAE5093400FB12106E740212181319
:104E1300E960298E828F83A3A3A3A3125543900332
:104E230000E0F510740278101217EA74012510F5EA
:104E33008274033511F583EAF0A3EBF074021218C0
:104E4300498582108583117810121A807402121812
:104E530049121A97850C82850D83125FB012078C55
:104E630074041218138A108B11AE10AF1190030043
:104E7300E0F510751100740278101217EA7400251A
:104E830010F874033511F988828983A3124A0870D4
:104E930003024D79E82403F8E93400F9EE4F600387
:104EA300024D828882898374FFF0A3F0900300E0AF
:104EB30004F0900300E0600A1255391204EC790003
:104EC300800B8508828509831257A8790A02569DAB
:104ED30074EA12186D74FE1217FD8C128D13EA24F6
:104EE30005F50CEB12611A12497A75080075090071
:104EF300EA2402F510EB3400F51185188285198335
:104F030085820A85830B780A121A80850C82850DA7
:104F130083A3A3A3A31250B5121A80E50C2405F5AD
:104F23000AE50D125798780A121A80850C82850DAE
:104F330083125FAE12078074061218138A0A8B0B52
:104F4300EA450B7003025066EA2404F50EEB125097
:104F5300AB12497A8A828B83A3A3A3E0F9851082DB
:104F630085118312554312076EE9F5096003025058
:104F730066E4F514F5157814121A807514E975159D
:104F8300027814121A807514EA7515027814121A2D
:104F9300807406121849121A977913AC0AAD0B855F
:104FA300108285118312554312089A74081218133C
:104FB300E9F50960030250669002E9E0F8E508703C
:104FC30009E02402900301F08017900301E0FCE85C
:104FD3002402FAE43400FBEA6C7001EB6003025034
:104FE3006A850882AA821251EA94141251E250731C
:104FF300850E82850F83E0C0E074022A1250A2D08E
:10500300E0F00508850E82850F83A3E0C0E08508E4
:105013000A7402250A1250A2D0E0F005089002E9B2
:105023001250B5121A807CEA7D0285080A740225A3
:105033000AFA74033400FB12105C74021218139002
:1050430002E9E02508F50874FF6E700374FF6F60D2
:1050530012EE24010EEF3400FFE508C3941450034D
:10506300024EFDE508601312542E851082851183CC
:105073001255431204F279008014E509700375098F
:105083000A851282851383EEF0A3EFF0A909740257
:105093001218137F0E02193F85080C7402250CF5B4
:1050A3008274033400F583223400F50F850E82F5F4
:1050B3008322125CDD2274EE12186D74FE1217FD4A
:1050C3008C0E8D0FEA2405F50CEB124CC9750B0001
:1050D300900300E4F0F50AEA2402F508EB3400F546
:1050E300098049900300E0FA9002E9E0F81251EADE
:1050F30094171251E2400D900300E0F87416C39820
:105103009002E9F01251F3121A807CEA7D027401D5
:105113002AFA74033400FB12105C74021218139001
:1051230002E9E0F8900300E028F0050AE50C2416F4
:10513300F582E50D1250A6E0F8E50AC39840030294
:1051430051CB900300E0C39416507DE50AC333F8B6
:10515300E433F9E50C28FEE50D39FF85188285193E
:1051630083AC82AD838E828F831255431207868A66
:10517300108B11AC10AD11EC4D7005750B01804314
:10518300E4F510F5117810121A807510E975110203
:105193007810121A807510EA7511027810121A80AD
:1051A3007406121849121A9779168508828509839D
:1051B30012554312089A7408121813E9F50B700379
:1051C3000250E61257A480107C007D038508828577
:1051D3000983125543120504A90B740202569FE971
:1051E3009400C365D03322EA28F8E43400F9E822B6
:1051F300E0F51075110078102274EA12186D74FC32
:105203001217FD8A0C8B0D8C128D13EA2405F50AF7
:10521300EB125798750800750900E50A2402F5108A
:10522300E50B3400F511740212184985820E85834B
:105233000F780E121A80850A82850B83A3A3A3A37A
:10524300125C89121A80E50A2405F50EE50B340079
:10525300F50F780E121A8085108285118312579EDE
:1052630012553D12078074061218138A0E8B0FAE67
:105273000EAF0FE50C2402F50EE50D3400F50F809B
:10528300408882898374FFF0050812509B74FFF0F5
:1052930005089002E9E0F50C750D00780C121A80F0
:1052A3007CEA7D0285080C7402250CFA7403340031
:1052B300FB12105C74021218139002E9E02508F542
:1052C30008EE4F60718E828F83A3A3A3E0F9850E4E
:1052D30082850F8312554312076EE9F509EE240404
:1052E300124CC6E97044E4F514F5157814121A80CB
:1052F3007514E97515027814121A807514EA751578
:10530300027814121A807408121849121A97791124
:10531300EEFCEFFD850E82850F8312554312089A2A
:105323007408121813E9F5096027850C82850D832B
:105333001254241257B1E508700302540A12542E72
:10534300850E82850F8312554312050A7900025494
:105353001F850882AA82EA9002E97009E02404907A
:105363000301F08022E0F8900301E0F514E824043F
:10537300FCE43400FDEC65147001ED70C01251EAD9
:1053830094121251E250B6850C82850D83E0C0E081
:1053930074022A1250A2D0E0F00508850C82850D14
:1053A30083A3E0C0E012509BD0E012544085820CEE
:1053B30085830D780C121A807404121849121A97F7
:1053C300851082851183125FB012078C7404121842
:1053D300138A0C8B0DAE0CAF0D85080C7402250CD3
:1053E300F874033400F9EE4F700302528485188277
:1053F300851983E088828983125440A3E0C0E012B8
:10540300509BD0E0025292E509700375090A850AA0
:1054130082850B831254241257B1A90974040250D4
:1054230093125F9F85128285138322900301E0F517
:10543300F0E50884900300F07C007D0322F005086A
:105443008518828519832274EC12186D74FE121765
:10545300FD8A088B098C0E8D0FEA2405FEEB3400C0
:10546300FF851882851983AC82AD838E828F831268
:1054730055431207868A0A8B0BEE2418124CC6EA90
:10548300450B7003025514125686503285188285D7
:1054930019831255431208948A108B11EA4511603F
:1054A3006B7912AC0AAD0B850882850983125543CB
:1054B30085108285118312186BE9F50A7058E4F59B
:1054C3000AF50B780A121A808E828F83A3A3E0F564
:1054D3000A780A121A80EE2403125795780A121AD0
:1054E300808E828F8312554D1208A07406121813F2
:1054F300E9F50A7021850C82850D83E0701F85080C
:10550300828509831255431205108011750A0E8096
:1055130009750A018004E50A60031257A4850C8209
:10552300850D83E0600479008002A90A74021218D1
:10553300137F0C02193F7C007D03850A82850B8350
:1055430012554722E0FAA3E0FB22E0FCA3E0FD852D
:1055530008828509831255472274EE12186D74FE72
:105563001217FD8A088B098C0C8D0DEA2405FEEBBE
:105573003400FF750E00851882851983AC82AD83D4
:105583008E828F831255431207868A0A8B0BEA4554
:105593000B70030256721256865035851882851990
:1055A300831255431208948A0E8B0FEA450F605EEF
:1055B3007912AC0AAD0B85088285098312554385A0
:1055C3000E82850F8312186BE9F50E600302567580
:1055D300850882850983125831AA0AFB1208888A32
:1055E300108B11A810A911E849701E7AFF7BFF12D6
:1055F30008888A108B11A810A911E849606C888269
:105603008983E50AF0A3E50BF0750A008007750EA0
:105613000E805F050A9002E6E0FAE50AC39A504A53
:10562300E50A75F017A4FAABF088828983A3A3E097
:105633002AFAA3E03BFB8A828B8312579EEC4D70C0
:10564300D2750A17750B00780A121A80EEFCEFFD6B
:1056530012105C7402121813EEFCEFFD85088285AC
:1056630009831255431205168014750E09800375BC
:105673000E01125F97850C82850D831257B1A90E17
:105683000251DDE5082402F508E5093400F5098A2D
:10569300828B83A3A3A3E0A2E52274041218137FD1
:1056A3000A02193F74EC12186D8C108D11EA24054F
:1056B300F50CEB124CC9750F00EA2402F50AEB1244
:1056C3005798850A82F5831255431208888A088BF6
:1056D30009EA4509700302578A750E008071850C2B
:1056E30082850D83E06401704F8E828F83A3A312A2
:1056F3001A978E828F83A3A3A3A3E0F512751300D9
:105703007812121A80EE2405F512EF3400F513789F
:1057130012121A8012553D1208A07406121813E9CA
:10572300F50F6014850C82850D83E4F0125F978575
:1057330010828511831257B17C177D007900EEFA30
:10574300EFFB1210748E828F83E4F0A3F0050E90AA
:1057530002E6E0F8E50EC398501EE50E75F017A4B7
:10576300F8A9F0850882850983A3A312612412573F
:105773009EEC4D60030256E185088285098374FF20
:10578300F0A3F0E50F700612553D12051CA90F0298
:105793005534F50AEF3400F50B22A3E0FCA3E0FD3A
:1057A300228E828F83125F9F850E82850F83E8F09E
:1057B300A3E9F022C082C0839002E2E06A7003A3EF
:1057C300E06B70067AE27B0280047A007B00024A77
:1057D300A4C082C08378008C828D83E06A7003A3A7
:1057E300E06B7010E875F003A4F8A9F0EC28FAED6B
:1057F30039FB8015088C828D83A3A3A3E06A700311
:10580300A3E06B60DF7A007B00024AA474F61218EF
:105813006D1208528A828B83E582458370067A0073
:105823007B008007A3A3A3A3125543025E48E0F5C0
:105833000AA3E0F50B2274E812186D74FB1217FD2E
:10584300E9851882851983F08A168B17ECFEEDFF24
:10585300751000741D121849125F9B741D121849AC
:105863001257B18E828F83A3A3A3E0A2E4502D74B9
:105873001D1218491255431208948A828B83E582BC
:1058830045837003025C7A790AEEFCEFFDAA16AB3E
:105893001712186BE9F5106003025C7D741F121870
:1058A30049125CA974211218491258317423121831
:1058B30049E0F50EA3E0F50F8E828F83E06402606A
:1058C30003025C28A3125F9B850882850983A38555
:1058D3008212858313EE2406124CC688828983E0E4
:1058E300FAA3E0F9EA2400F514E439F51578141263
:1058F3001B0A0100002801281D5907000228E2594C
:1059030003284F590029195B0129445B0229E55AF1
:105913000329195B0429C35B285CE50E450F60036B
:10592300025C23850C82850D83125C9EFAE9FB8A57
:10593300828B83E0850A82850B83125CD4121A80E2
:105943008A828B83A3E0FCA3E0025BADE50E450FE7
:105953006003025C23850A82850B837401F0125C69
:10596300B1850882850983F07C007D008E828F8358
:10597300A3A3A3A3E02401FAA3E03400FB12078648
:10598300EA4B60418A828B83E02402F8850A828590
:105993000B83E028F0EA2404F8EB3400F9888289C9
:1059A30083E0851282851383125CE6125CD4121A9B
:1059B300808A828B8312579DE5082403FAE5093414
:1059C30000FB025BB2850A82850B83E02404F07C32
:1059D300047D007900AA12AB13121074025C7DE5FA
:1059E3000E450F6003025C23125CB1FEA3E0FF854A
:1059F3000A82850B837404F0EE850882850983F09F
:105A0300EF851282851383F07403121849AC82ADBB
:105A130083EEFAEFFB1207868A0C8B0DEA450D70B5
:105A230003025AC68A828B83A3A312497674011296
:105A3300184985820E85830F780E121A8074051219
:105A43001849121A977CFF7DFF12078C74041218F1
:105A5300138B0FEA450F7033850C82850D83125C1F
:105A630089121A80850C82850D83A3121A977C02F2
:105A73007D007AC17B811205B87404121813E97092
:105A83000A740112184974FFF0A3F08E828F83E029
:105A930064027039750C02750D00780C121A808E31
:105AA300828F8312579DE5082404FAE5093400FB2D
:105AB30012105C7402121813850A82850B83E0248A
:105AC3000280097401121849EEF0A3EFF074011279
:105AD3001849125C9AF07401121849A3125C9202DD
:105AE3005C1DE50E450F6003025C23850C82850D6A
:105AF3008312579EAA16AB171208B8850A82850B24
:105B0300837402F0EA850882850983F08512828511
:105B13001383EB025C20E50E450F6003025C231246
:105B23005CB1F8A3E0F9850A82850B837402F0E87F
