:020000040800F2
:10000000004000203D0E0008491C00084D1C00085F
:1000100000000000000000000000000000000000E0
:10002000000000000000000000000000511C00085B
:100030000000000000000000551C0008591C0008CA
:10004000810E0008810E0008810E0008810E000854
:10005000810E0008810E0008810E0008810E000844
:10006000810E0008810E0008810E0008810E000834
:10007000810E0008810E0008810E0008790B00082F
:10008000910B0008810E0008810E0008810E000807
:10009000810E0008810E0008810E0008810E000804
:1000A000810E0008810E0008810E0008810E0008F4
:1000B000DD130008ED0B0008810E00085D1C000830
:1000C0005FF808F1014B18607047C046405C004083
:1000D000014B18607047C046445C004007239843BA
:1000E000014B18607047C046505C00408000034BD5
:1000F0009C466044006880B27047C046005C004087
:100100000B1C8000044A944660440168034A114075
:10011000194389B201607047005C00408F89FFFF7E
:100120008000094B9C4660440268084B1340CA0695
:1001300001D5102253408A0601D520225340044A9B
:10014000134303607047C046005C0040BF8F00004F
:100150008080000080000A4B9C4660440268094B86
:100160001340CA0402D58022520153408A0402D5AA
:10017000802292015340044A134303607047C046F3
:10018000005C00408FBF0000808000008000054BB5
:100190009C4660440268044B1340044A13430360C6
:1001A0007047C046005C00400F0E000080810000D8
:1001B0008000054B9C4660440268044B1340044A8F
:1001C000134303607047C046005C00400F0F0000FF
:1001D00080C000008000054B9C4660440268044BD0
:1001E0001340044A134303607047C046005C00405C
:1001F0000F0F0000C08000008000064B9C4660444A
:1002000003685B0405D50268034B1340034A13439C
:1002100003607047005C00400F0F000080C00000CA
:100220008000064B9C46604403685B0605D5026867
:10023000034B1340034A134303607047005C0040C4
:100240000F0F0000C0800000064B1B681B041B0C36
:10025000C000C018044B9C466044012399430180B0
:100260007047C046505C004000600040064B1B6871
:100270001B041B0CC000C018044B9C4660440123A7
:10028000994301807047C046505C004004600040C4
:10029000054B1B681B041B0CC000C018034B9C467D
:1002A000604401807047C046505C004002600040DE
:1002B0000D4B1B681B041B0CC00018180B4B9C46F5
:1002C00060443E2909D94B09CA0601D1013B9BB2C2
:1002D0009B02074A1343038005E04B08CA0700D579
:1002E00001339B0203807047505C00400660004071
:1002F0000080FFFF064B1B681B041B0CC000C018CE
:10030000044B9C46604400888005800D7047C046C1
:10031000505C004002600040064B1B681B041B0C35
:10032000C000C018044B9C46604400888005800DC6
:100330007047C046505C00400660004030B50B4D31
:100340002B68C0001B041B0CC318094CA446634453
:100350000124A14319802B681B041B0CC018054BFA
:100360009C466044A243028030BDC046505C0040C1
:10037000006000400460004010B5002931D1294BD5
:100380001B68C0001B041B0C1B1827498C466344C8
:100390003E2A14D95109D40601D1013989B2890202
:1003A000224C214319801F4B1B681B041B0CC018D7
:1003B0001F4B9C4660445309D20627D028E05108C1
:1003C000D40700D5013189021980164B1B681B0424
:1003D0001B0CC018164B9C4660445308D2071CD413
:1003E0001DE001291DD10F490B68C0001B041B0C27
:1003F000C3180D4CA44663441A800B681B041B0CE5
:10040000C0180B4B9C46604402800AE0013B9BB243
:100410009B02064A1343038003E001339BB29B0215
:10042000038010BD505C0040026000400080FFFF70
:1004300006600040064B1B681B041B0CC000C01864
:10044000044B9C46604400888005800D7047C04680
:10045000505C004002600040064B1B681B041B0CF4
:10046000C000C018044B9C46604400888005800D85
:100470007047C046505C00400660004000290AD129
:1004800080000B4B9C46604402680A4B13400A4AAA
:10049000134303600BE0012909D18000044B9C4603
:1004A00060440268034B1340044A134303607047DF
:1004B000005C00400F0F0000C080000080C0000002
:1004C00010B501325210084B9C466144002A09D0F5
:1004D00043781B02047823430B800230013A023137
:1004E000002AF5D110BDC046006000400132521014
:1004F000064B9C466144002A06D00B8803800230DC
:10050000013A0231002AF8D17047C046006000402D
:10051000044B1A6B80218A431A631A6B10431863C9
:100520007047C0460010024038B5041C5C4B5B6845
:100530000C221340042B0BD002D8002B05D026E050
:10054000082B08D00C2B1FD021E0564B036020E075
:10055000544B03601DE0524B5D685A68AD022D0F8D
:100560000235C0235B021A4203D14F484543256040
:100570000FE04B4BDB6A0F2119400131494802F073
:1005800035FC4543256004E0484B036001E0454BE2
:10059000236043494B681B061B0F454DEB5CDBB2E8
:1005A0002068021CDA4062604B685B055B0FEB5C05
:1005B000DBB2DA40131CA2600A6BD20502D43D4ABA
:1005C000E26008E0364A5268520402D45A08E260F7
:1005D00001E09A08E260324A126B520602D4364AAF
:1005E000226102E08022120222612D4A126BD206A1
:1005F00002D42C4A626100E06061294A126B9207C2
:1006000001D1A36119E0264A126B03210A40012A95
:1006100001D1A06111E0224A126B03210A40022A93
:1006200003D180221202A26107E01D4A126B03214E
:100630000A40032A01D11B4AA261194A116BC02248
:100640009202114201D1E36120E0154B1A6BC023E5
:100650009B02134080225202934201D1E06115E0D7
:100660000F4B1A6BC0239B021340802292029342CD
:1006700003D180231B02E36108E0094B1B6BC022FE
:1006800092021340934201D1064BE361044B1B6B72
:100690001B0602D4054B236200E0206238BDC04631
:1006A0000010024000127A0000093D00006CDC02DC
:1006B00000000020809FD50012800000002904D097
:1006C000044A53691843506103E0024A5369834363
:1006D0005361704700100240002904D0044AD369D6
:1006E0001843D06103E0024AD3698343D361704762
:1006F000001002407047C0467047C0467047C04671
:100700007047C0467047C04600290BD0031C013912
:1007100089B20131401800221978521801338342FE
:10072000FAD100E00022D043C0B2704710B5041CDB
:10073000AE235B00C3581B699847E378A370002081
:1007400010BDC04608B58378C37004238370593345
:10075000FF33C358DB689847002008BD08B5AC23B9
:100760005B00C358DB69002B00D09847002008BD10
:1007700010B5041C00210022402301F05FFF201C63
:1007800080210022802301F059FF201C00214022FB
:10079000002301F071FF201C80214022002301F082
:1007A0006BFF0123A3705C33FF33E358207B5B684E
:1007B0009847002010BDC04610B582B0041C6946A1
:1007C00001F0FEF96B4619781F230B40012B09D06D
:1007D000002B02D0022B0AD00EE0201C694600F04C
:1007E000F1FF0EE0201C694601F046F909E0201CEB
:1007F000694601F065F904E07F239943201C02F06B
:10080000D9F8002002B010BD70B5041C00293CD1FD
:100810004378022B2CD1436B456AAB4206D95D1B52
:100820004563816AAAB202F079FA38E0866B301C1F
:10083000291C02F061FB00290BD1B54209D8E36BFA
:100840009E4206D2201C002202F068FA0023E363D5
:1008500025E0AC235B00E358DB68002B04D0A278D2
:10086000032A01D1201C9847201C02F085FA16E0CB
:10087000042B14D10B4B1968002910D0C9B202F017
:10088000FDF80022074B1A6009E0AC235B00C35857
:100890005B69002B03D08278032A00D1984700209F
:1008A00070BDC0461401002010B5041C002923D1DE
:1008B0004378032B2AD1021CB832D369D268934201
:1008C0000CD99B1A011CB831CB610969934200D93C
:1008D000131C9AB2201C02F03BFA17E0AC235B0019
:1008E000C3581B69002B03D08278032A00D1984794
:1008F000201C02F037FA09E0AC235B00C3589B6967
:10090000002B03D08278032A00D19847002010BD25
:10091000F8B5041C0E1C151C1F1C00F067FEAC2350
:100920005B00E550AE256D0067510833E65000F0DE
:100930000DFB201C01F066FE63591B689847201CC4
:1009400000F06EFE201C02F0BBF8F8BD10B5041CD0
:10095000AC235B00C3581B689847AE235B00E35889
:100960009B689847002010BD08B5AC235B00C358B6
:100970005B689847002008BD00B583B08020000365
:100980000121FFF79BFEC0239B00009301236A46D1
:10099000137100239371D371033353710248694675
:1009A00000F074FB03B000BD0008004870B58AB0C9
:1009B0000024274B1C60274B1C60274B1C60274BD7
:1009C0001C60029003940494059407940C230693EE
:1009D0008025ED02281C0121FFF770FE281C012153
:1009E000FFF77AFE1E4D281C0A21042200F0A2FB0C
:1009F000281C0B21042200F09DFB08A9C0231B0129
:100A0000089302230B7101334B718C710126CE7157
:100A1000281C00F03BFB134D281C02A900F0F8FC39
:100A2000281C1149012200F069FD281C0F490122F0
:100A300000F064FD01A81D2303704470867002F06D
:100A4000A5F9281C012100F049FD0AB070BDC0467F
:100A50008403002050010020C00200203003002049
:100A60000004004800480040050105000701070098
:100A700000B583B002200121FFF72EFE01A810234C
:100A80000370002343700133837002F07FF903B0D9
:100A900000BDC04638B5FFF7EBFF1A4B18681A497E
:100AA00002F0A4F9451EADB20023184A1360184A9B
:100AB0001360184A13601849184A4A600B800B816A
:100AC0004B80174C201C00F0B7FD201C291C012274
:100AD00000F004FE134901234B80FA239B008B6036
:100AE000201C00F00DFE201C002100F04BFE201CFD
:100AF0000821012200F04CFE201C012100F0F4FD31
:100B000038BDC04698000020808D5B00C8020020E0
:100B1000540100209405002044010020FFFF000044
:100B200000040040CC02002038B5802040020121A2
:100B3000FFF7D2FD0B4B18680B4902F057F9441E22
:100B4000A4B20A490A4B4B6000230B800B814B80F7
:100B5000084D281C00F070FD281C211C012200F00B
:100B6000BDFD38BD9800002040420F004401002028
:100B7000FFFF0000004001408023DB0505225242B8
:100B80001A829B6B9BB2014AD3807047F000002011
:100B900008B51248082100F005FE00281CD00F48B7
:100BA000082100F00BFE0E4B1B68002B02D0013B0E
:100BB0000B4A13600B4B1B68002B02D0013B094A08
:100BC0001360094B1B68002B02D0013B064A1360DF
:100BD0000248002100F086FD08BDC0460004004028
:100BE0009405002054010020C802002010B52848B8
:100BF000284900F0A5FC002824D0254C201C2549BC
:100C000000F0C0FC24490A68531C0B60A08C2349E7
:100C10008854502B07D100221F4B1A60204B1B68B1
:100C2000002B0FD131E01C4B1B681D4A1268934208
:100C300008D10133502B02D0194A136002E0002280
:100C4000174B1A601248174900F07AFC00281ED092
:100C50000F4C201C134900F095FC13490A68531CE3
:100C60000B6012498A5C2285502B02D100220E4B68
:100C70001A600D4B1A680E4B1B689A4207D1044844
:100C80000849002200F03AFC01E00123D4E710BD3E
:100C9000004800400501050050010020E00200204E
:100CA0008403002007010700C00200203403002055
:100CB00030030020F0B5144BDC6800219F68134A14
:100CC0004220134D3F260FE0115CEC5C51188C70F4
:100CD000115C013131401154115C51188978013394
:100CE00000240121634503D1231C8024A400A446D1
:100CF0001C1EBC42E8D1044BDC604B4259414942C6
:100D000001200843F0BDC046F0000020400B002049
:100D100094030020194B1B68002B14D1174B18604B
:100D2000174B1B7C002B07D080229200154B1A8595
:100D30000022134B1A7406E080229200114B9A6134
:100D400001220F4B1A74104B1B68002B14D10E4B51
:100D500019600B4B5B7C002B07D080225200094BA3
:100D60001A850022064B5A7406E080225200054B79
:100D70009A61FF3A024B5A747047C04654010020F2
:100D8000F000002000080048C802002010B5FFF75E
:100D9000F3FDFFF77FFEFFF7C7FE084C201C802104
:100DA000890000F0C5F9201C8021490000F0C0F93D
:100DB00096200002FFF7FAFD10BDC046000800486B
:100DC00000B583B0C020C0020121FFF777FC0123EA
:100DD0006A46137100239371032269464A71CB71ED
:100DE000C0239B0000939020C00500F04FF9044BF6
:100DF00000930448694600F049F9002003B000BDA3
:100E0000FFFF00000004004808B5FFF7BFFFFFF731
:100E1000D7FF06480649074A074BFFF779FD01F05F
:100E200011FF6420C821FFF775FFF8E75801002083
:100E300060000020B000002010000020002103E02E
:100E40000A4B5B584350043109480A4B42189A42F6
:100E5000F6D3094A02E0002313600432074B9A429A
:100E6000F9D301F093F9FFF7CFFF70478430000802
:100E700000000020F0000020F0000020500E0020B4
:100E8000FEE7000012230B8000487047102F000877
:100E900004230B80014814307047C046102F00080F
:100EA0001A230B80004870474400002010B5002A28
:100EB00013D00B1C013AD2B201325200891800241F
:100EC000020F092A02D830321A7001E037321A7044
:100ED00000015C7002338B42F2D110BD10B50A1CC8
:100EE000034C0448211C00F089FE201C10BDC046A4
:100EF000B4050020342F000810B50A1C034C044828
:100F0000211C00F07BFE201C10BDC046B405002053
:100F1000582F000810B50A1C034C0448211C00F08F
:100F20006DFE201C10BDC046B40500206C2F0008CB
:100F300010B50A1C034C0448211C00F05FFE201C65
:100F400010BDC046B4050020782F000838B50A4B04
:100F500018680A4B1D680A4B1B68C01800280AD085
:100F6000084CA11C0822FFF7A1FF211C1231281CEC
:100F70000422FFF79BFF38BDACF7FF1FB0F7FF1F40
:100F8000B4F7FF1F44000020054B1A6892B20821F5
:100F90000A431A601A6892B204390A431A60704709
:100FA000405C0040044B1968044A0A401A60BF22A2
:100FB00012021A607047C046405C0040FBFF000010
:100FC00008B5072801D02C4B18702B4B1B78DBB2CF
:100FD000052B4CD89B00294AD3589F46284B1B68A9
:100FE000002B05D1FFF7DEFF0622234B1A7041E0EC
:100FF0000522214B1A703DE0FFF7D4FF04221E4B5F
:101000001A70033A1E4B1A6034E01B4B02225A70CE
:1010100001321A702EE0184A5378013BDBB253704C
:101020005378002B26D10422134B1A7022E0154965
:101030000B689AB2102313430B600F4B05221A70F2
:1010400005325A7016E00C4A5378013BDBB25370FC
:101050005378002B0ED10B4A11680B4B0B401360D9
:101060000622054B1A700022054B1A6002E0062288
:10107000014B1A7008BDC04698050020882F000853
:1010800010010020405C0040EFFF0000F0B54F462B
:101090004646C0B40025002201260327331C934096
:1010A0000C681C409C423AD10B79013B012B1DD8A6
:1010B00083683C1CAC40A343836084684B79AB409D
:1010C000234383608388984613041B0C9946341C81
:1010D0009C404346A34383808488A4468C794B4636
:1010E0009C40231C644623439BB2838003683C1CC2
:1010F000AC40A343036004680B79AB402343036017
:10110000C3689C461304DB0B3C1C9C40231C6446B8
:101110009C43C460C468CB79AB402343C3600132B5
:101120000235102ABAD10CBC90469946F0BDC04693
:101130008161704710B507230B409B00C9088900E7
:101140004018016A0F249C40A1430162016A9A4041
:10115000131C0B43036210BD00207047F0B55F46BF
:1011600056464D464446F0B4002930D0031C411881
:101170001A4D1B4F1B4A91462E1C9346A846CC463F
:101180002C68621C2A60187838558024A400A2427A
:1011900007D100224046026062461268002A10D140
:1011A00013E032685846006882420AD10132802436
:1011B000A400A24202D04846026002E00022094890
:1011C000026001338B42DBD101E00122F3E7002012
:1011D0003CBC90469946A246AB46F0BDF8000020C4
:1011E00094030020FC00002008B50B4B9B79072BD3
:1011F00003D10A4800F07EF904E0082B02D1074829
:1012000000F078F9064B1A688023DB009A4202D17D
:101210000022034B1A6008BD7C00002000440040FF
:101220003801002008B5002815D13C49E1235B02B4
:101230000B6000234B608B60C022D200CA604B6100
:101240000C330B6101F0A2F935483649012200F058
:1012500055F9002060E0344B1B79012B08D0002B9E
:1012600002D0022B09D00DE000222C4B9A600EE038
:10127000C0229201294B9A6009E080229201274BFB
:101280009A6004E00020FFF7CDFF022044E0264BE7
:101290005B79012B0ED0002B02D0022B0FD013E074
:1012A00000221E4BDA60204B9B79072B11D0082BB4
:1012B00022D012E08022D200184BDA6025E0C02252
:1012C000D200164BDA6020E00020FFF7ABFF0220CF
:1012D00022E00022114B5A6004E00020FFF7A2FF39
:1012E000022019E00D4B104A12681A6000225A6160
:1012F0000C321A6100200FE00022084B5A60F1E71F
:1013000080225201054B5A60ECE7074B9B79072B73
:10131000DFD0082BF4D0E0E708BDC0469C050020D4
:1013200000440040050105007C00002008B520288D
:1013300002D0212816D025E013484B781A028B786A
:101340001B0413430A781343CA781206134303603D
:101350000B7903714B7943718B7983710120FFF70E
:1013600061FF0FE0084B1A780A701A68120A4A7077
:101370005A888A70DA78CA701A790A715A794A7169
:101380009B798B71002008BD7C00002010B582B0D5
:101390000F49E1235B020B6000244C608C60C0238A
:1013A000DB00CB604C610C230B61002001F0EEF8F8
:1013B00008480949012200F0A1F801A81C23037084
:1013C00044701B3B837001F0E1FC002002B010BDB3
:1013D0009C050020004400400501050008B50A48AE
:1013E0000A4900F0ADF8002803D000200021FFF7E3
:1013F000FBFE0548082100F09DF8002802D00248B5
:1014000000F078F808BDC046004400400501050022
:10141000F0B58DB0041C0D1C0368012293430360DA
:101420004268284B13408A68134343600268264B86
:101430001A40CB6849680B4329690B431343036087
:101440008268224B13406A691343836003A8FFF745
:101450006BF81F4B9C4201D1099E05E01D4B9C423D
:1014600001D10A9E00E0059E23681B040CD576007E
:101470002B68301C0193191C01F0B8FC071C301CB0
:10148000019901F039FD0AE02B68301C0193191C09
:1014900001F0ACFC071C301C019901F02DFD2A68FD
:1014A0005208002391425B41FF1823681B0405D5B5
:1014B0003A07520F084B3B401A43171CBBB2A3819B
:1014C0000DB0F0BDFFCFFFFFF3E9FFFFFFFCFFFF13
:1014D0000038014000440040F0FF0000002904D023
:1014E000026801231343036003E00368012293436E
:1014F00003607047808CC005C00D704730B5051C77
:101500008CB2240AFF231940FE3B8B40191C022C8D
:1015100001D1051D03E0032C01D10830051C002A70
:1015200003D02B681943296002E02B688B432B60A2
:1015300030BDC046C0690840411E8841C0B27047F6
:1015400010B58AB2120AFF230B401C1C0123A340D2
:10155000012A02D10268134006E0022A02D1426841
:10156000134001E082681340C2690020002B07D0BD
:10157000090C01238B401A40101C411E8841C0B247
:1015800010BDC046090C01238B4003627047C04662
:10159000002805D0054A116820230B43136004E09E
:1015A000024A136820218B4313607047006C00408F
:1015B000002805D0054A116840230B43136004E05E
:1015C000024A136840218B4313607047006C00404F
:1015D000044B5968044A0A405A605A6810435860DC
:1015E0007047C046006C0040FFFFFFCF08B5802069
:1015F00000040121FFF770F80020FEF789FF80202A
:1016000000050121FFF768F880208005FFF7E0FF63
:101610000120FFF7CDFF0120FFF7BAFF08BDC0464C
:1016200000B583B001A81F2303701E3B4370837075
:1016300001F0ACFB03B000BD10B503889BB2204A9B
:10164000904206D08022D205904202D01D4A90429C
:1016500031D1702293434A8813431B4A904219D0D8
:101660000A891A4C2340134303804B68C3620B88DA
:101670000385134B984208D0154B984205D0154B63
:10168000984202D0144B984201D18B7A03860123F1
:10169000838214E00C4A13804B68D3620B88138555
:1016A000F5E70A89094C2340134303804B68C36262
:1016B0000B880385E0E7044A9042F2D1EAE710BDC7
:1016C000002C01400004004000100040FFFCFFFF20
:1016D00000400140004401400048014001858282F1
:1016E0007047C04641627047002904D00288012338
:1016F0001343038003E00388012293430380704770
:1017000070B5028C194B13400384028C8588ADB2EE
:10171000868B73239E430B881E43154B1A408C897E
:101720002402224392B24B881B021A4393B2114AFD
:10173000904214D1104A1340CA89120213430F4A2F
:1017400013408A88120213439BB20D4A15400A8A3D
:1017500012011543AAB24D8A2D012A4395B2858004
:1017600086838A68C263038470BDC046FFFEFFFFA4
:10177000FFFDFFFF002C0140FFF7FFFFFFFB000014
:10178000FFCFFFFF838B0822934319438183704768
:10179000002A03D083891943818102E083898B4326
:1017A00083817047028A808983B200200A4203D075
:1017B0001940481E8141C8B27047C046C94389B22A
:1017C0000182704730B583B0051C0C1C4B78092B87
:1017D00000D941E19B00A44AD3589F464A88130A86
:1017E00099B2072965D89B00A049CB589F46B023E2
:1017F0005B00C358007B1B6801A99847011CE38864
:10180000402B5BD1383B5EE0AC235B00C358007BD0
:101810001B6A01A99847011CB2235B00E8504DE008
:10182000D3B2052B39D89A00914B9B589F46B023D1
:101830005B00C358007B5B6801A99847011C3DE031
:10184000B0235B00C358007B9B6801A99847011C2B
:1018500034E0B0235B00C358007BDB6801A99847E4
:10186000011C2BE0B0235B00C358007B1B6901A95E
:101870009847011C22E0B0235B00C358007B5B69E2
:1018800001A99847011C19E0B0235B00C358007BF5
:101890009B6901A99847011C10E0002101F08AF81A
:1018A000DEE0002101F086F8DAE0002101F082F8A4
:1018B000D6E0281C002101F07DF8D1E001AB1B88A7
:1018C000002B00D1CCE0E288002A00D1C8E0181C2F
:1018D000934200D9101C82B201AB1880281C01F081
:1018E0000FFABDE08B88002B19D1CB88002B16D1C5
:1018F0004B887F241C408378032B03D1002101F007
:1019000059F8ADE004715B4B1C6001F02BFA002C20
:1019100002D00223AB70A3E00123AB70A0E0281C2F
:10192000002101F047F89BE08B78524A1371012B9C
:1019300003D9002101F03EF892E08278022A02D019
:10194000032A0FD02DE0002B09D0037003228270F0
:10195000191CFEF7FBFF281C01F004FA80E001F0DF
:1019600001FA7DE0002B0AD102338370002303705B
:101970000021FEF7F9FF281C01F0F4F970E001786E
:101980008B420BD0FEF7F0FF3A4B19792970281CD7
:10199000FEF7DCFF281C01F0E5F961E001F0E2F957
:1019A0005EE0002101F006F85AE000230193CB88A5
:1019B000012B03D0002100F0FDFF51E08378022BC2
:1019C00002D0032B05D009E001A9012201F098F90A
:1019D00046E0291C012201F093F941E0002100F0CA
:1019E000E9FF3DE0002301938378023B012B0CD8F3
:1019F000012301938368002B01D003230193281C4A
:101A000001A9022201F07CF92AE0002100F0D2FFB6
:101A100026E04B88012B23D183605833FF33C35812
:101A20009B689847281C01F09DF919E08378023BD8
:101A3000012B0DD84B88012B12D100238360593321
:101A4000FF33C3589B689847281C01F08BF907E0C7
:101A5000002100F0AFFF03E0281C002100F0AAFFE6
:101A6000002003B030BDC046A02F0008C82F0008DA
:101A7000E82F00081401002070B5041C0E1C8378A8
:101A8000032B16D10B79012B0ED8AC235B00C35866
:101A90009B689847051CF388002B0ED100280CD1B9
:101AA000201C01F05FF908E0002100F083FF002511
:101AB00003E0002100F07EFF0025281C70BDC04619
:101AC00030B583B0051C0C1C002301938A88D1B269
:101AD0006378012B24D0002B43D0032B6DD1837866
:101AE000022B02D0032B05D016E04B0665D000F088
:101AF00061FF62E06388002B03D14B0601D000F048
:101B000059FFAC235B00EB589B68281C211C9847AD
:101B1000281C01F027F950E0002100F04BFF4CE0B9
:101B20008378022B02D0032B05D016E04B0644D05D
:101B300000F040FF41E06388002B03D14B0601D049
:101B400000F072FFAC235B00EB589B68281C211C43
:101B50009847281C01F006F92FE0002100F02AFF29
:101B60002BE08378022B02D0032B05D022E04B061A
:101B700023D000F01FFF20E013060BD57F23194070
:101B80008B005918C90043189B7E002B0CD00123F1
:101B9000019309E08B005918C9004118B8318B78BE
:101BA000002B01D001230193281C01A9022201F07E
:101BB000A7F802E0002100F0FDFE002003B030BDD8
:101BC000037C0B70437C4B70C37C1B02827CD3185C
:101BD0004B80437D1B02027DD3188B80C37D1B028B
:101BE000827DD3189BB2CB80C363012343707047BF
:101BF00008B5002100F0DEFE08BDC04630B5002863
:101C000021D00378002B08D0041C00230133DBB261
:101C100001342578002DF9D100E000235B00023368
:101C200013800B7003234B700478002C0BD0013B06
:101C300000255A1CD2B20130CC540233DBB28D5491
:101C40000478002CF5D130BD7047C046FEE7C04691
:101C50007047C0467047C0467047C04608B500F0A0
:101C600009FA08BDF0B5474680B482B0002201AB46
:101C70001A80C74D10239846A844E8E16B46DC88DB
:101C80000F231C4000D08AE06B4606331B88DB061E
:101C900014D4C04A1168C04B0B401360BC4C207E6A
:101CA000FEF728FB2063A36A9C466044A062BB4BFE
:101CB0001B685B68201C00219847C8E1B54B1B6876
:101CC0009BB201AA138013881B0516D5B823E85CC4
:101CD000FEF722FB021CD023E850143BE95A404691
:101CE000FEF704FCAB4A1168AD4B0B401360AB4BE5
:101CF0001B689B68281C9847A9E101AB1B881BB295
:101D0000002B00DBA3E1A34A1168A54B0B40136035
:101D10009F4CB823E05CFEF7FFFA021CD023E05092
:101D200000280CD09A4CC826143BE15AA059FEF763
:101D3000DDFBD023E358A25994466344A351974B4B
:101D40001B68934C1B68201C00219847954B1B680F
:101D50001B041B0C944A94466344C422A1583E2998
:101D60000AD94A0992B2C90601D1013A92B2920245
:101D70008E490A431A8007E04A0892B2C90701D582
:101D8000013292B292021A8082490A68884B13404B
:101D9000C02292015340874A13430B6057E1A300CE
:101DA0007C4A9E1833689BB201AA138013881BB229
:101DB000002B00DB9BE03268794B13403360A300BB
:101DC0001B19DB00724AD318C0339B78002B17D144
:101DD000A3001B19DB00D318B8331878FEF79CFA60
:101DE000021C071E52D0A3001B19DB006849CB1848
:101DF000191CC8310868B8339988FEF777FB45E0AD
:101E0000A3001B19DB00624AD318B8331878FEF719
:101E10006DF9430418D5A3001B19DB005C4AD318E5
:101E2000B8331878FEF706FB021C071E24D0A30067
:101E30001B19DB005649CB18191CC8310868B83388
:101E4000D988FEF753FB17E0A3001B19DB00504AAB
:101E5000D318B8331878FEF7FFFA021C071E0BD010
:101E6000A3001B19DB004A49CB18191CC8310868AC
:101E7000C0331988FEF73AFBA3001B19DB00444A64
:101E8000D318B83318780021FEF7F8FA391CA300EC
:101E90001B19DB003E4AD318181CD0300268BA1850
:101EA0000260C8331A68D2191A605B68002B08D028
:101EB000A0000019C000364F3818C0304068814279
:101EC0000BD2364B1A683248A3001B19DB00C3182B
:101ED000B83319781368984709E02D48A10009190B
:101EE000C9004118B83109789BB200F0B3FC01ABCE
:101EF0001B881B0600D4AAE03268274B13403360CE
:101F0000A3001B19DB00224A9446634420339B78CC
:101F1000002B18D1A3001B19DB00D618307EFEF76A
:101F2000E9F9021E306369D01948611C8B00591809
:101F3000C9000E58A3001B19DB00C318998B301C75
:101F4000FEF7BEFA5AE0A3001B19DB00104AD318B3
:101F5000187EFEF7CBF843062ED5A3001B19DB0035
:101F60000B4AD618307EFEF765FA021E30633CD06D
:101F70000748611C8B005918C9000E58A3001B1993
:101F8000DB00C318D98B301CFEF79AFA2DE0C0464F
:101F900058010020005C00400F8F0000240000204A
:101FA0008F0F0000505C0040066000400080FFFF83
:101FB0008FBF000080800000A3001B19DB002A4AAD
:101FC000D618307EFEF748FA021E30630DD0264840
:101FD000611C8B005918C9000E58A3001B19DB00A7
:101FE000C318198C301CFEF76BFAA3001B19DB0019
:101FF0001D4AD318187E0121FEF740FA1A4EA3009D
:102000001B19DB00F718387EFEF774F93863631C80
:102010009900CA18D20092591218C818C0008251EB
:1020200033185B68002B0AD1104B1A680E48A300C6
:102030001C19E4000419217E5368984707E00A48F8
:10204000A1000C19E4000419217E00F051FC084B9A
:102050001B6899B26A46D1801B0400D50EE602B017
:1020600004BC9046F0BDC04658010020240000206A
:10207000445C004010B582B06B460022DA80394AD9
:10208000126892B2DA80DA88374B196880231B0213
:102090000B401A4201D0FFF7E5FD6B4606331B8863
:1020A000314A126813405B050CD5304A2D4B1A603B
:1020B0002F4B1B682F4C1B69201C9847201C0021AC
:1020C00000F0DCFC6B4606331B88274A126813407D
:1020D0009B0402D5284A234B1A606B4606331B88A3
:1020E000214A12681340DB040AD5244A1D4B1A60AA
:1020F0001F4B1B689B691F4898470020FEF760FF35
:102100006B4606331B88184A126813401B0509D515
:102110001B4A144B1A60164B1B685B69154898479D
:10212000FEF732FF6B4606331B880F4A12681340D6
:102130009B0507D5134A0B4B1A600D4B1B68DB68D8
:102140000C4898476B4606331B88074A12681340B1
:10215000DB0505D50C4A034B1A600720FEF730FF5C
:1021600002B010BD445C00403C010020FFFB0000B9
:102170002400002058010020FFDF0000FFEF0000D6
:10218000FFF70000FFFD0000FFFE000082B0394BAA
:102190001A6801210A431A605868374A02405A6097
:1021A0001868364A02401A601868354A02401A60B8
:1021B0005868344A02405A60DA6A0F208243DA6271
:1021C000186B314A02401A635A6B8A435A630022E1
:1021D0009A60009201921A68802149020A431A60AB
:1021E000191C80229202A020C0000B6813400193AA
:1021F000009B01330093019B002B02D1009B834283
:10220000F3D11C4B1B689B0302D50123019301E012
:1022100000230193019B012B2AD111221B4B1A6031
:10222000144B5A685A605A685A605968184A0A40EA
:102230005A605A68882149030A435A601A68802103
:1022400049040A431A60191C802292040B68134245
:10225000FCD0084B5A6803218A435A60596802220D
:102260000A435A60191C0C224B681340082BFBD1FF
:1022700002B07047001002400CB8FFF8FFFFF6FEF6
:10228000FFFFFBFFFFFFC0FFACFEFFFF002002408F
:10229000FF7FC0FF08B5074B1868FF2808D0064B22
:1022A0001A68064B9B6806499847FF22014B1A6043
:1022B000002008BDAC0000201C010020840000208C
:1022C0003807002043230B80004870470030000887
:1022D00010B5041C81210022C02300F0AFF9201C9E
:1022E0008221002280235B0000F0A8F9201C03213A
:1022F000002288235B0000F0A1F9201C81214022EC
:10230000022300F0B9F9201C03214022022300F02F
:10231000B3F9201C82210822032300F0ADF9054BFC
:102320001B689847201C0321034A402300F092FABF
:10233000002010BD84000020F806002038B5051CE0
:10234000094C8B005918C9004118D0310988074B36
:102350001B69201C9847281C0321221C402300F0E5
:1023600079FA002038BDC046F8060020840000201D
:1023700010B5041C812100F01BFA201C032100F081
:1023800017FA201C822100F013FA024B5B68984771
:10239000002010BD8400002070B5051C0E1C0B78B9
:1023A00060241C402AD0202C24D1CA88002A19D0AD
:1023B0005BB2002B0CDA4878274C284B9B68211C19
:1023C0009847F288281C211C00F09AFC002441E068
:1023D0004978234B1960234B1A601F4900F0A8FC71
:1023E000002437E048781D4B9B6800210022984765
:1023F00000242FE0FFF7FCFB02242BE04B780A2B94
:1024000018D00B2B1CD0062B24D14B881B0A212B58
:1024100009D1CB881A1C9BB23A2B00D93A2292B22E
:102420001149123102E0104909313A22281C00F00A
:1024300067FC0FE00B490431012200F061FC09E068
:102440008B78002B04D10021064A51601C1C01E04E
:10245000FFF7CEFB201C70BD380700208400002051
:10246000AC0000201C0100200030000838B5194BDA
:102470001B7A012B2BD1174BD96800290ED11B6970
:10248000012B07D10022134B1A618131002300F088
:102490002FFA1CE000220F4B1A7218E0402908D9CD
:1024A0000C4A948A5369403353614039D1604023C8
:1024B00008E0084A948A8BB25569AC466144516180
:1024C0000021D160044AA218812100F011FA0020F5
:1024D00038BDC0461C0100204007002070B5294BC4
:1024E0009B695A1C052B02D0264B9A6148E0254B6C
:1024F00000229A611B7A012B42D0224B596980231A
:10250000DB00994206D11F4B5A61DD69002D05D0D1
:1025100000210FE01B4BDD69A94203D10022194BBA
:102520001A722DE0A94205D98023DB005B1A154AF7
:10253000D36002E06B1A134AD360124BDC68402C64
:1025400006D98EB240315961403CDC6040230FE037
:102550008EB2A3B20B4A091951610021D160402B00
:1025600001D101311161402D02D10021054AD16113
:10257000012404490C72044AB218812100F0B8F910
:10258000002070BD1C01002040070020F0B583B082
:10259000041C0E1C802040030121FEF78FF88020D0
:1025A00080020121FEF798F8154FA400E05905219B
:1025B0000022FEF7BFFD3D19686806210022FEF7E4
:1025C000B9FD202300931E3B6A461371013B5371F2
:1025D000002269468A71CB71E059FEF757FD40230E
:1025E000009368686946FEF751FDA868311CFEF744
:1025F0000FFFA8680121FEF771FF03B0F0BDC046D0
:10260000D400002008B5012383700022027182608B
:10261000C3600120FDF756FD0020FDF753FD0020AB
:10262000FDF756FD0020FDF759FDBF200002024BCB
:102630001860FDF747FD08BD3C01002010B50C06F1
:1026400007D57F2421408C006118C900183141183A
:1026500006E07F2421408C006118C900B831411880
:10266000002A02D18A728B8004E001228A72CB8018
:102670001B0C0B81002010BD70B50C060CD57F26FD
:102680000E40B500AC19E40018340419AE19F60078
:102690008019012545760CE07F250D40AE007419A8
:1026A000E400B83404197519ED004019B83000255C
:1026B0004570E260E3707F200840207003D1002263
:1026C0006262E2612262002222616261A261A27002
:1026D000012B14D0002B04D0022B07D0032B09D0E0
:1026E00011E080218900FDF70BFD0CE00021FDF7D2
:1026F00007FD08E0C021C900FDF702FD03E08021CD
:10270000C900FDF7FDFCA37A002B1FD16378002BD5
:102710000BD02078A188FDF797FD2078FDF780FD8C
:1027200020782021FDF7FCFC3FE02078A188FDF710
:102730009DFD2078A189FDF7BBFD2078FDF75CFDAC
:102740002078C0218901FDF705FD2EE02078FDF7F6
:102750001DFD2078E1882289FDF7F0FD6378002BCC
:1027600012D12078FDF748FD2078FDF759FD20783B
:10277000FDF730FD2078C0218901FDF7EBFC2078C2
:102780000021FDF7CDFC10E02078FDF735FD207825
:10279000FDF746FD2078FDF70BFD20780021FDF7C1
:1027A000BFFC20780021FDF7D5FC002070BDC0469D
:1027B00010B54BB2002B07DA7F2421408C00611842
:1027C000C9001831441806E07F2421408C006118AC
:1027D000C900B8314418A37A002B12D16378002BBA
:1027E00007D02078FDF71CFD20780021FDF798FC2C
:1027F0002DE02078FDF700FD20780021FDF7AAFCF0
:1028000025E06378002B11D12078FDF7F5FC2078C6
:10281000FDF706FD2078FDF7DDFC20780021FDF7AF
:1028200099FC20780021FDF77BFC10E02078FDF773
:10283000E3FC2078FDF7F4FC2078FDF7B9FC207864
:102840000021FDF76DFC20780021FDF783FC0020BE
:1028500010BDC04670B582B0051C002001907F24D9
:102860000C40A1000919C90069180E1CC836326055
:1028700073600A1CD0321060C0314A68934204D998
:10288000019201995B1A736007E00193A3001B1981
:10289000DB00EB18C83300225A60A3001B19DB00D1
:1028A000EB18C0339B78002B0AD10199A3001B19A8
:1028B000DB00EB18B833187889B2FDF7F9FC0AE0B1
:1028C000019AA3001B19DB00EB18B833187859786C
:1028D00092B2FDF751FDA1000C19E4002C19B83497
:1028E0002078C0218901FDF735FC002002B070BDC1
:1028F000F0B583B0061C002001907F240C40A50099
:102900002919C90071180C760D1C8A62CB62086304
:102910004A6A934204D90192019A9B1ACB6202E05F
:1029200001930023CB62A3001B19DB00F3182033B3
:102930009B78002B0FD1019AA86AA5002D19ED00F4
:102940007519A98B92B2FDF7BBFD0199287E89B25A
:10295000FDF79EFC22E0019AA7003F19FF00F7193E
:10296000387E797E92B2FDF707FD387EFDF7BEFB1B
:10297000430601D5398C04E0A3001B19DB00F318D2
:10298000D98B019AA86A92B2FDF79AFDA3001B1990
:10299000DB00F318187E597EFDF770FDA1000C19BD
:1029A000E4003419207E3021FDF7BAFB002003B08B
:1029B000F0BDC04608B54BB2002B07DA7F231940A3
:1029C0008B005918C9001831411804E08B005918C0
:1029D000C900B8314118087800280BD10E480268A8
:1029E0000E4B13400E4A53400E4A1343036001231B
:1029F0008B700EE04B78002B05D001238B701021DB
:102A0000FDF78EFB05E001238B7080214901FDF766
:102A1000A1FB002008BDC046005C0040BFBF000015
:102A2000101000008080000010B54BB2002B07DAB8
:102A30007F2319408B005918C9001831441804E04D
:102A40008B005918C900B83144186378002B09D09D
:102A50002078FDF7E5FB20783021FDF761FB0023AE
:102A6000A37009E02078FDF7C7FB2078C021890119
:102A7000FDF770FB0023A370002010BDF0B50171BD
:102A80000024FF270A4E0B4D381C204082000A4BC1
:102A90009C466244136830432B4003431360013467
:102AA000042CF1D180231943044B1960F0BDC046BA
:102AB000808000000F0F0000005C00404C5C004074
:102AC000044A1368802109020B43136001238370B9
:102AD0007047C046585C004030B583B0051C417853
:102AE0004B1EDBB26A46D41DD3718B1EDBB29371D1
:102AF000CB1EDBB26A465371013989B2FDF704FE81
:102B00002378DBB2EB5C834200D092E06B78C82B79
:102B100000D98EE09622D200474B1A80AB78012B69
:102B200002D0042B7CD084E0C02292009023DB05ED
:102B30001A8501225242414B1A85EB780F2B78D827
:102B40009B003F4AD3589F469022D205936980212B
:102B500049000B4393616CE09022D2059369802178
:102B600089000B43936164E0344A916904230B4369
:102B700093615EE0314A916908230B43936158E009
:102B80002E4A916910230B43936152E02B4A9169BD
:102B900020230B4393614CE0284A916940230B4367
:102BA000936146E0254A916980230B43936140E09D
:102BB000224A9369802149000B43936139E01F4AFF
:102BC0009369802189000B43936132E01B4A93692A
:102BD0008021C9000B4393612BE0184A936980213F
:102BE00009010B43936124E0144A93698021490150
:102BF0000B4393611DE0114A9369802189010B43C6
:102C0000936116E00D4A93698021C9010B439361DA
:102C10000FE00A4A9369802109020B43936108E09F
:102C2000C02292009023DB051A8501225242034BF9
:102C30001A8503B030BDC046400B00200004004898
:102C40004430000870B5FEF735F8431C47D150E01A
:102C5000284AD2189178284A117001333F210B403D
:102C600053709378012B0FD0002B02D0022B14D07D
:102C700031E0214B1B7843221E498B54AA2B31D1C2
:102C8000423A1D4B9A702DE01B4B02229A701E781F
:102C9000442118484654DA7024E0174BDB78C72BE0
:102CA00015D85A1CD2B21448C2701249CB184033FE
:102CB0000078D8704423CB5C934213D100230E4A92
:102CC00093700E4A8B54281CFFF706FF0AE000227F
:102CD000094B9A7006E00022074B9A7002E0054CFF
:102CE000251C43354223E25CD2B2034B5B789A4207
:102CF000AED170BD400B0020400100200E0300004B
:102D000010B50C1C131C8263426302224270002126
:102D1000221CFFF7EDFD002010BDC04610B50C1CB5
:102D2000131C0021221CFFF7E3FD002010BDC0464C
:102D300010B50C1C131CD8228350043A8350D13A8E
:102D400042700021221CFFF785FD002010BDC04607
:102D500010B50C1C131C0021221CFFF77BFD00206A
:102D600010BDC04608B50423437000210022002393
:102D7000FFF7BEFD002008BD08B505234370002104
:102D800000220023FFF766FD002008BD70B58378A0
:102D9000002B1ED002789508AD00134B9C4665446D
:102DA000C026B600AB5903242240D400FF22111CD8
:102DB000A1408B43417889010A40A2401343AB51A3
:102DC00003781F2213401E3A9A40131C6246136078
:102DD00008E003781F2213401E3A9A40131C8022F9
:102DE00001498B5070BDC04600E100E0002243085D
:102DF0008B4274D303098B425FD3030A8B4244D3C3
:102E0000030B8B4228D3030C8B420DD3FF22090204
:102E100012BA030C8B4202D31212090265D0030BC3
:102E20008B4219D300E0090AC30B8B4201D3CB03B9
:102E3000C01A5241830B8B4201D38B03C01A5241FB
:102E4000430B8B4201D34B03C01A5241030B8B42FD
:102E500001D30B03C01A5241C30A8B4201D3CB02E8
:102E6000C01A5241830A8B4201D38B02C01A5241CD
:102E7000430A8B4201D34B02C01A5241030A8B42D0
:102E800001D30B02C01A5241CDD2C3098B4201D3E8
:102E9000CB01C01A524183098B4201D38B01C01A66
:102EA000524143098B4201D34B01C01A52410309DD
:102EB0008B4201D30B01C01A5241C3088B4201D38C
:102EC000CB00C01A524183088B4201D38B00C01A39
:102ED000524143088B4201D34B00C01A5241411A60
:102EE00000D20146524110467047FFE701B500206D
:102EF00000F00CF802BDC0460029F7D003B5FFF77B
:102F000075FF0EBC4243891A1847C0467047C04639
:102F10001201000200000040830440570002010239
:102F200003010000040309040A0600020000004037
:102F30000100000053544D3332205669727475619C
:102F40006C20436F6D506F727420696E2046532061
:102F50004D6F64650000000053544D6963726F65E6
:102F60006C656374726F6E69637300005643502022
:102F7000436F6E666967000056435020496E746562
:102F80007266616365000000DC0F0008F80F00083E
:102F90000A100008161000082E100008461000083D
:102FA000E41900082C1A0008581A0008121A000820
:102FB000581A0008E4180008DC170008581A00081E
:102FC000AA19000828190008B2180008EE1700080E
:102FD0000818000820180008B2180008B2180008E5
:102FE000A2180008AA1800082E18000840180008A7
:102FF000521800086418000876180008881800089D
:1030000009024300020100C032090400000102026B
:10301000010005240010010524010001042402021E
:103020000524060001070582030800FF09040100CA
:10303000020A0000000705030240000007058102A4
:1030400040000000482B0008582B0008682B00089F
:10305000742B0008802B00088C2B0008982B00088C
:10306000A42B0008B02B0008BE2B0008CC2B0008B6
:10307000DA2B0008E82B0008F62B0008042C0008C7
:04308000122C000806
:10308400000000000102030401020304060708090A
:10309400F5060008F9060008FD0600080107000807
:1030A4000507000828000020A908000809080008EE
:1030B400B90700085D070008710700084507000804
:1030C4002D0700081A0300000000000000000000A3
:1030D40000000000000000000000000000000000EC
:1030E400850E0008910E0008F90E0008DD0E000898
:1030F400A10E0008150F0008310F000800C20100DE
:10310400000008008D130008591100082D13000851
:10311400E91100085D110008006CDC0200000000E9
:10312400000000000102030406070809FF00000074
:10313400D122000871230008992300080000000030
:10314400952200086D2400083D230008DD240008B2
:10315400C5220008000C0048000C00480044004050
:10316400000C0048000C0048000C0048000C00480B
:0400000508000000EF
:00000001FF
